:020000040800F2
:1000000000280020B91C0008B51B0008BB1B000815
:10001000C11B0008C71B0008CD1B00080000000022
:10002000000000000000000000000000D31B0008DA
:10003000DF1B000800000000EB1B0008F71B000896
:10004000011D0008011D0008011D0008011D000818
:10005000011D0008011D0008011D0008011D000808
:10006000011D0008011D0008011D0008011D0008F8
:10007000011D0008011D0008011D0008011D0008E8
:10008000011D0008011D0008011D0008011D0008D8
:10009000011D0008011D0008011D0008011D0008C8
:1000A000011D0008011D0008011D0008011D0008B8
:1000B000051C0008191C000800000000011D0008B4
:1000C000011D00080000000000000000011D0008E4
:1000D00000000000011D00082D1C000800000000A9
:1000E000011D0008011D0008011D0008000000009E
:1000F0000000000000000000000000000000000000
:0C01000000000000000000005FF808F1A3
:10010C0010B5054C237833B9044B13B10448AFF345
:10011C0000800123237010BD980000200000000017
:10012C00984E000808B5034B1BB103490348AFF3C5
:10013C00008008BD000000009C000020984E0008C4
:10014C0080B483B000AF01237B6020E0144A7B684D
:10015C00012142F82310134A7B68012142F8231035
:10016C00114A7B68012142F82310104A7B68012157
:10017C0042F823100E4A7B68002142F823100D4AE6
:10018C007B68C82142F823107B6801337B607B6855
:10019C00042BDBDD00BF00BF0C37BD4680BC7047B5
:1001AC00E80000204401002080010020D400002041
:1001BC006C0100205801002080B582B000AF0123F3
:1001CC007B6099E0514A7B6852F8232050497B6848
:1001DC0041F823204F4A7B6852F823204B497B6817
:1001EC0041F823207B68012B09D102214A4802F0F7
:1001FC001DF903461946474A7B6842F823107B6871
:10020C00022B0AD14FF40061444802F00FF9034667
:10021C001946404A7B6842F823107B68032B09D1AE
:10022C0001213E4802F002F903461946394A7B681F
:10023C0042F823107B68042B09D10121364802F0C7
:10024C00F5F803461946334A7B6842F82310304AC6
:10025C007B6852F823202D497B6851F823309A4251
:10026C0047D12A4A7B6852F823202A497B6851F8E7
:10027C0023309A423DD12A4A7B6852F823202549E3
:10028C007B6851F823309A4216D0224A7B6852F888
:10029C00232023497B6841F823201E4A7B6852F8AF
:1002AC002330002B25D1786800F058F81D4A7B6864
:1002BC00C82142F823101CE01A4A7B6852F82330FC
:1002CC005A1E18497B6841F82320164A7B6852F85D
:1002DC002330002B0DD10F4A7B6852F82330002BB2
:1002EC0002D1786800F03AF80E4A7B68C82142F8CF
:1002FC0023107B6801337B607B68042B7FF762AF34
:10030C0000BF00BF0837BD4680BD00BF44010020C0
:10031C00E80000208001002000080140000C014092
:10032C00D40000205801002080B483B000AF786066
:10033C00094A7B6852F82330002B06D0064A7B68AA
:10034C00002142F82310012300E0002318460C374B
:10035C00BD4680BC704700BF6C01002080B483B0E8
:10036C0000AF7860044A7B68012142F8231000BF7B
:10037C000C37BD4680BC70476C01002084B080B542
:10038C0000AF07F1080C8CE80F000120FFF7CCFF41
:10039C000346002B06D0BC4B03221A60BB4B012238
:1003AC001A606CE1B94B1B68012B4DD0002B40F34C
:1003BC006681502B00F36381322BC0F26081323B9B
:1003CC001E2B00F25C8101A252F823F0DF0400081E
:1003DC008B0600088B0600088B0600088B060008AD
:1003EC008B0600088B0600088B0600088B0600089D
:1003FC008B060008370500088B0600088B060008E2
:10040C008B0600088B0600088B0600088B0600087C
:10041C008B0600088B0600088B060008AB0500084D
:10042C008B0600088B0600088B0600088B0600085C
:10043C008B0600088B0600088B0600088B0600084C
:10044C008B060008010600089149924804F0F2F866
:10045C0003469AB24FF47A738E4907F1080003F001
:10046C00BEFB00F04BFD8C4B4FF4C8721A60874BEF
:10047C0032221A608949874804F0DCF803469AB2A4
:10048C004FF47A73834907F1080003F0A8FB844BFF
:10049C001B681946012001F041FAFA21032001F0F2
:1004AC003DFA804B1B68804A82FB03129211DB17CA
:1004BC00D31A7E4A13607A4B1B687B4A82FB031269
:1004CC009211DB17D31A7A4A13607A4B64221A60A2
:1004DC00D5E0002000F05EFD002000F0D3FD764B4F
:1004EC005B68012B40F0C480684B3C221A60734956
:1004FC00684804F09FF803469AB24FF47A73654942
:10050C0007F1080003F06BFB6D4B1B6819460120CB
:10051C0001F004FA6A4B1B68634A82FB03129211C6
:10052C00DB17D31A624A1360A2E0002000F032FD00
:10053C00002000F0C5FD604B5B68012B40F09A80F9
:10054C00524B46221A605F49524804F073F8034636
:10055C009AB24FF47A734F4907F1080003F03FFB4E
:10056C004F4B1B681946012001F0D8F94C4B1B6806
:10057C004D4A82FB03129211DB17D31A4B4A1360BC
:10058C00484B1B68484A82FB03129211DB17D31AA3
:10059C00474A1360404B4FF4C8721A606AE000205F
:1005AC0000F016FD002000F04FFD434B5B68012B63
:1005BC0062D1364B50221A604349364804F03AF85F
:1005CC0003469AB24FF47A73324907F1080003F0EC
:1005DC0006FB3B4B1B681946012001F09FF9384B79
:1005EC001B68314A82FB03129211DB17D31A2F4A74
:1005FC00136041E0002000F009FD002000F024FD14
:10060C002D4B5B68012B39D1204B32221A602349C8
:10061C00204804F00FF803469AB24FF47A731D4940
:10062C0007F1080003F0DBFA1D4B1B68194601208B
:10063C0001F074F91B4B1B681B4A82FB03129211CD
:10064C00DB17D31A194A1360154B1B68164A82FB29
:10065C0003129211DB17D31A154A13600E4B1B6849
:10066C00B3F5167F0AD10C4B4FF4FA721A6005E001
:10067C0000BF04E000BF02E000BF00E000BFBD46C9
:10068C00BDE8804004B07047000000200C00002042
:10069C00B04E0008B401002004000020C84E000831
:1006AC001800002010000020D34D62101C00002008
:1006BC00200000202400002070020020D84E0008EA
:1006CC0014000020E84E0008F84E000884B080B5F5
:1006DC0000AF07F1080C8CE80F00A34B5B68012BF3
:1006EC0006D1A24B02221A60A14B01221A60F0E241
:1006FC009D4B9B68012B0AD19E4B1B68C3F10103D8
:10070C009C4A13604FF4FA71022001F007F9984BE0
:10071C001B68013B032B00F2AF8201A252F823F0BD
:10072C003D070008DF070008C90900086B0B00082B
:10073C009149924803F07EFF03469AB24FF47A73C4
:10074C008E4907F1080003F04AFA894B02221A601D
:10075C008B4B1B688B4A1360894B1B688A4A82FB44
:10076C0003129211DB17D31A884A1360804B1B6853
:10077C00874A1360874B64221A6041F2883101204A
:10078C0001F0CCF84FF4FA71022001F0C7F8FA210D
:10079C00032001F0C3F88049784803F04BFF03466F
:1007AC009AB24FF47A73754907F1080003F017FAFF
:1007BC00764B1B681A467949704803F03BFF034699
:1007CC009AB24FF47A736D4907F1080003F007FAF7
:1007DC007FE2684B1B68184600F0DCFB654B1B681E
:1007EC00184600F031FC0120FFF79EFD0346002B5C
:1007FC0042D05F4B03221A60694B1B68614A13603D
:10080C00674B1B68604A82FB03129211DB17D31AE9
:10081C005E4A1360564B1B685D4A13605D4B642245
:10082C001A6041F28831012001F078F84FF4FA7126
:10083C00022001F073F8FA21032001F06FF85949F6
:10084C004E4803F0F7FE03469AB24FF47A734B49C5
:10085C0007F1080003F0C3F94C4B1B681A464F49CB
:10086C00464803F0E7FE03469AB24FF47A734349C5
:10087C0007F1080003F0B3F90220FFF755FD03461A
:10088C00012B29D13F4B1B6803F57A733D4A13604A
:10089C003C4B1B683C4A82FB03129211DB17D31AA8
:1008AC001A464149354803F0C5FE03469AB24FF447
:1008BC007A73324907F1080003F091F9314B1B6848
:1008CC003A4A934203DD2F4B4FF47A721A6041F28D
:1008DC008831012001F022F80320FFF725FD0346A3
:1008EC00012B40F0CB81274B1B68254A1360244B0E
:1008FC001A682B4B1B68D31A2D4A136041F28831AE
:10090C00012001F00BF81E4B1B681F4A82FB0312DF
:10091C009211DB17D31A1D4A13601E4B64221A6006
:10092C00124B02221A60124B01221A602149134801
:10093C0003F080FE03469AB24FF47A730F4907F125
:10094C00080003F04CF9114B1B681A461A490B4866
:10095C0003F070FE03469AB24FF47A73074907F11D
:10096C00080003F03CF989E170020020000000202F
:10097C000C000020B4000020084F0008B401002037
:10098C0010000020C0000020D34D62101C0000207D
:10099C0020000020240000201C4F0008344F0008C9
:1009AC0014000020484F0008644F0008B882010072
:1009BC0018000020784F0008884F0008B14B1B68C6
:1009CC00184600F023FBAF4B1B68184600F078FB71
:1009DC000120FFF7A9FC0346002B48D0AA4B0422A8
:1009EC001A60AA4B1B68AA4A82FB03129211DB17EE
:1009FC00D31AA84A1360A54B1B68A54A82FB0312A5
:100A0C009211DB17D31AA44A13609F4B1B68A34A9D
:100A1C001360A34B64221A6041F28831012000F06C
:100A2C007DFF4FF4FA71022000F078FFFA210320C9
:100A3C0000F074FF9B499C4803F0FCFD03469AB2FE
:100A4C004FF47A73984907F1080003F0C8F8924BF9
:100A5C001B681A469549944803F0ECFD03469AB27C
:100A6C004FF47A73904907F1080003F0B8F80220AC
:100A7C00FFF75AFC0346012B29D1864B1B6803F563
:100A8C007A73844A1360834B1B68814A82FB03127E
:100A9C009211DB17D31A1A468549834803F0CAFD15
:100AAC0003469AB24FF47A737F4907F1080003F0BA
:100ABC0096F8784B1B687F4A934203DD754B4FF4D5
:100ACC007A721A6041F28831012000F027FF03206E
:100ADC00FFF72AFC0346012B40F0D2806D4B1B68BC
:100AEC00754A1360744B1A68684B1B681344734A3D
:100AFC00136041F28831012000F010FF6E4B1B682F
:100B0C00634A82FB03129211DB17D31A624A1360F9
:100B1C00634B64221A606A4B02221A605A4B012200
:100B2C001A606849604803F085FD03469AB24FF499
:100B3C007A735D4907F1080003F051F8564B1B68B6
:100B4C001A466149584803F075FD03469AB24FF4B2
:100B5C007A73554907F1080003F041F890E0494BCE
:100B6C001B68184600F034FA464B1B68184600F018
:100B7C0089FA0120FFF7D8FB0346002B05D0504B18
:100B8C0002221A60404B01221A600220FFF7CCFBB4
:100B9C000346012B29D13F4B1B6803F57A733D4A61
:100BAC0013603C4B1B683A4A82FB03129211DB1711
:100BBC00D31A1A463E493C4803F03CFD03469AB210
:100BCC004FF47A73384907F1080003F008F8314BF9
:100BDC001B68384A934203DD2E4B4FF47A721A602D
:100BEC0041F28831012000F099FE0320FFF79CFBB5
:100BFC000346012B6CD1274B1B68244A13602E4BE8
:100C0C001A68224B1B6813442C4A136041F288313A
:100C1C00012000F083FE1D4B1B681D4A82FB031252
:100C2C009211DB17D31A1C4A13601D4B64221A60F5
:100C3C00234B02221A60144B01221A6021491A48D4
:100C4C0003F0F8FC03469AB24FF47A73164907F195
:100C5C00080002F0C4FF104B1B681A461B491248CF
:100C6C0003F0E8FC03469AB24FF47A730E4907F18D
:100C7C00080002F0B4FF2BE000BF2AE000BF28E020
:100C8C0000BF26E0B40000200C000020180000205B
:100C9C00D34D6210C00000201C000020200000205A
:100CAC00240000209C4F0008B4010020344F0008A1
:100CBC00644F0008B88201001400002010000020CE
:100CCC0000000020784F0008B84F0008D04F0008F3
:100CDC0000BFBD46BDE8804004B0704780B500AF92
:100CEC0001224FF48061054801F0B7FB00224FF45C
:100CFC008071034801F0B1FB00BF80BD000C0140C6
:100D0C000008014080B500AF00224FF48061054817
:100D1C0001F0A3FB01224FF48071034801F09DFB0D
:100D2C0000BF80BD000C01400008014080B500AF41
:100D3C0001224FF48061054801F08FFB01224FF432
:100D4C008071034801F089FB00BF80BD000C01409D
:100D5C000008014080B500AF234B1B68B3F5167F2C
:100D6C003CD0B3F5167F3DDCB3F5C87F03D0B3F5AB
:100D7C00FA7F2DD036E0FFF7D9FF1C4B09221A6001
:100D8C000420FFF7D1FA0346002B2AD0FFF7BAFF55
:100D9C00174B1B683C2B03D0154B1B68322B04D113
:100DAC00114B4FF4FA721A6011E0114B1B68462B71
:100DBC0003D00F4B1B68502B04D10B4B4FF4167206
:100DCC001A6004E0084B4FF4C8721A6009E008E09E
:100DDC00FFF798FF054B07221A6003E0FFF77EFF31
:100DEC0000E000BF00BF80BD040000200800002010
:100DFC000C00002080B500AF384B1B68092B06D0C7
:100E0C00092B69DC072B0BD0082B31D064E0344B59
:100E1C0000221A60324B1A68324B1B685A635BE033
:100E2C00314B1B683C2B0BD1304B1A68304B1B6879
:100E3C009A4205DC294B08221A60294B0A221A60B7
:100E4C002C4BDB68012B44D1254B1B68002B01D1AB
:100E5C000A2300E00023224A1360214B1A68214B1D
:100E6C001B685A634FF47A71032000F057FD30E091
:100E7C001D4B1B683C2B06D01B4B1B68322B02D026
:100E8C00164B09221A601C4B1B680A331A4A136052
:100E9C00184BDB68012B1ED1114B1B68002B03D1A7
:100EAC00154B1B680A3300E000230D4A13600C4BF2
:100EBC001A680C4B1B685A630F4B1B686FF00902C6
:100ECC0002FB03F303F57A731946032000F026FDA9
:100EDC0001E000BF00E000BF00BF80BD08000020A3
:100EEC00B8000020FC000020000000206002002060
:100EFC001400002070020020BC00002080B500AF60
:100F0C00204B00221A60204B01221A6001224FF460
:100F1C0000511E4801F0A1FA01224FF400411B4878
:100F2C0001F09BFA01224FF48041184801F095FA28
:100F3C0001224FF40051164801F08FFA01224FF4B0
:100F4C000041134801F089FA01224FF48041104806
:100F5C0001F083FA012240210C4801F07EFA0122B3
:100F6C0080210A4801F079FA01224FF48071074878
:100F7C0001F073FA01224FF40071044801F06DFA8C
:100F8C0000BF80BDC00000200C000020000C014000
:100F9C000008014080B582B000AF78607B68DBB29E
:100FAC001A464FF40051094801F057FA01224FF448
:100FBC000041064801F051FA01224FF480410348E8
:100FCC0001F04BFA00BF0837BD4680BD000C014054
:100FDC0080B582B000AF786001224FF400510A480E
:100FEC0001F03BFA7B68DBB21A464FF4004106482D
:100FFC0001F033FA01224FF48041034801F02DFA3D
:10100C0000BF0837BD4680BD000C014080B582B0E2
:10101C0000AF786001224FF400510A4801F01DFA2C
:10102C0001224FF40041074801F017FA7B68DBB24C
:10103C001A464FF48041034801F00FFA00BF0837FD
:10104C00BD4680BD000C014080B582B000AF786019
:10105C007B68DBB21A464FF40051094801F0FDF9E8
:10106C0001224FF40041064801F0F7F901224FF438
:10107C008041034801F0F1F900BF0837BD4680BD3F
:10108C000008014080B582B000AF786001224FF4B7
:10109C0000510A4801F0E1F97B68DBB21A464FF4C3
:1010AC000041064801F0D9F901224FF48041034870
:1010BC0001F0D3F900BF0837BD4680BD00080140E0
:1010CC0080B582B000AF786001224FF400510A481D
:1010DC0001F0C3F901224FF40041074801F0BDF9BA
:1010EC007B68DBB21A464FF48041034801F0B5F936
:1010FC0000BF0837BD4680BD0008014090B5CDB09B
:10110C0000AF07F10C03186007F1080319603B1DD1
:10111C001A6007F114031E4A184611464FF48C73DB
:10112C001A4603F071FA0023C7F82C3125E0D7F8E2
:10113C002C319B0007F10802126813441868D7F889
:10114C002C315B003A1D126813441C8807F1140102
:10115C0007F10C031A681346DB009B1AD7F82C21F5
:10116C00134451F82330DBB21A46214601F075F9CD
:10117C00D7F82C310133C7F82C31D7F82C31062B8A
:10118C00D5DD00BF00BF07F59A77BD4690BD00BF07
:10119C00E84F000884B0B0B58CB000AF07F1400444
:1011AC0084E80F009A4B07F120040FCB07C423806F
:1011BC00984B3C1D1D460FCD0FC495E8070084E8E5
:1011CC000700954B1B68B3F5FA7F00F0CB80B3F5A5
:1011DC00FA7F00F30A81B3F5C87F00F09280B3F573
:1011EC00C87F00F30281B3F5967F53D0B3F5967F99
:1011FC0000F3FB80642B02D0C82B19D0F5E0874B91
:10120C001B68022B10D1864B1A68864B1B688649CB
:10121C00864803F00FFA03469AB24FF47A73834967
:10122C0007F1400002F0DBFC7B4BC8221A60E7E0C0
:10123C00002240217E4801F010F9012280217C48D7
:10124C0001F00BF901224FF48071794801F005F996
:10125C0001224FF40071764801F0FFF8704B1B68C7
:10126C00744A82FB03129210DB17D31A07F1200287
:10127C00391D1846FFF742FF6F4BDB68012B40F01E
:10128C00B880654B4FF496721A60FA21032000F077
:10129C0045FBAEE001224021654801F0DEF800225A
:1012AC008021634801F0D9F801224FF48071604825
:1012BC0001F0D3F801224FF400715D4801F0CDF834
:1012CC00574B1A685B4B83FB02139910D317C81A40
:1012DC0003469B0003445B00D01A07F120023B1D20
:1012EC001946FFF70BFF544BDB68012B40F0838052
:1012FC00494B4FF4C8721A60FA21032000F00EFB20
:10130C0079E0012240214A4801F0A7F8012280210E
:10131C00474801F0A2F800224FF48071444801F0D4
:10132C009CF801224FF40071414801F096F83D4BB6
:10133C001B68404A82FB03129210DB17D31A07F189
:10134C002002391D1846FFF7D9FE3B4BDB68012BF9
:10135C0053D1314B4FF4FA721A60FA21032000F08A
:10136C00DDFA4AE001224021314801F076F80122F1
:10137C0080212F4801F071F801224FF480712C4824
:10138C0001F06BF800224FF40071294801F065F868
:10139C00244B1A68274B83FB02139910D317C81AD6
:1013AC0003469B0003445B00D01A07F120023B1D4F
:1013BC001946FFF7A3FE204BDB68012B1FD1164B00
:1013CC0064221A60154B1B68022B09D1144B1B6845
:1013DC00013B134A1360134B1B68013B114A13600A
:1013EC00FA21032000F09AFA09E00B4B64221A60F0
:1013FC0006E000BF04E000BF02E000BF00E000BF59
:10140C0000BF3037BD46BDE8B04004B0704700BFE8
:10141C00205100083051000824000020000000205A
:10142C001C0000202000002000510008B401002006
:10143C00000C0140676666667002002080B582B0C1
:10144C0000AF78607B681B68134A93421FD1134B23
:10145C001B785A1CD1B2114A11701A46104B1978CC
:10146C00104B99540D4B1B781E2B02D10B4B0022A9
:10147C001A700D4B01221A703223012208490B48B5
:10148C0002F0ADFB01220649084802F03AFC00BF0D
:10149C000837BD4680BD00BF00440040C500002099
:1014AC00C400002094010020C60000201C02002073
:1014BC00F0B58FB00EAF00F01FFC00F07FF800F01D
:1014CC00BFF800F0A9F900F07DF900F005F93348F8
:1014DC0001F046FC01223249324802F012FC002194
:1014EC00314801F0E1FCFEF72BFE01224FF4806144
:1014FC002E4800F0B2FF01224FF480712C4800F00E
:10150C00ACFF2C4B1B78012B02D12A4B00221A70FA
:10151C00FFF720FCFFF76EFC274B1B68022B10D14A
:10152C00204E6D4606F110040FCC0FC50FCC0FC525
:10153C000FCC0FC523682B6096E80F00FEF71EFF3B
:10154C0013E01D4B1B68032B0FD1164E6D4606F195
:10155C0010040FCC0FC50FCC0FC50FCC0FC52368D3
:10156C002B6096E80F00FFF7B1F8124B1B78012B9C
:10157C0002D1104B00221A700A4E6D4606F110046F
:10158C000FCC0FC50FCC0FC50FCC0FC523682B602C
:10159C0096E80F00FFF7FEFDB3E700BFD401002073
:1015AC00C40000201C020020FC000020000C0140A4
:1015BC0000080140C60000200000002080B590B05B
:1015CC0000AF07F1180328220021184603F02AF86F
:1015DC003B1D00221A605A609A60DA601A6102237D
:1015EC00BB610123BB621023FB6202237B630023DC
:1015FC00BB634FF46013FB6307F11803184600F04C
:10160C0045FF0346002B01D000F082F90F237B60CD
:10161C000223BB600023FB604FF480633B6100231B
:10162C007B613B1D0221184601F0B0F90346002BEB
:10163C0001D000F06DF900BF4037BD4680BD000001
:10164C0080B586B000AF07F1080300221A605A601B
:10165C009A60DA603B4600221A605A601D4B4FF0CC
:10166C0080421A601B4B41F63F725A60194B0022A4
:10167C009A60184B4F22DA60164B00221A61154BF8
:10168C0000229A61134801F01BFB0346002B01D08A
:10169C0000F03EF94FF48053BB6007F10803194684
:1016AC000C4801F063FE0346002B01D000F030F92A
:1016BC0000233B6000237B603B461946054802F043
:1016CC00D7F90346002B01D000F022F900BF1837E0
:1016DC00BD4680BDD401002080B58EB000AF07F1AF
:1016EC00280300221A605A609A60DA6007F120031E
:1016FC0000221A605A603B1D00221A605A609A60E0
:10170C00DA601A615A619A612C4B2D4A1A602B4B84
:10171C004F225A60294B00229A60284B4F22DA60E4
:10172C00264B00221A61254B00229A61234801F0B6
:10173C00C7FA0346002B01D000F0EAF84FF48053AF
:10174C00BB6207F1280319461C4801F00FFE034643
:10175C00002B01D000F0DCF8184801F04DFB0346DB
:10176C00002B01D000F0D4F800233B6200237B62F5
:10177C0007F120031946114802F07AF90346002BB1
:10178C0001D000F0C5F860237B600023BB60002310
:10179C00FB6000237B613B1D00221946074801F0CA
:1017AC0027FD0346002B01D000F0B2F8034800F0EF
:1017BC0077F900BF3837BD4680BD00BFFC00002064
:1017CC000004004080B500AF114B124A1A60104B58
:1017DC004FF416525A600E4B00229A600C4B0022AA
:1017EC00DA600B4B00221A61094B0C225A61084B30
:1017FC0000229A61064B0022DA61054802F0A2F938
:10180C000346002B01D000F083F800BF80BD00BF61
:10181C001C0200200044004080B586B000AF07F1E8
:10182C00080300221A605A609A60DA602F4B9B6999
:10183C002E4A43F0040393612C4B9B6903F0040381
:10184C007B607B68294B9B69284A43F008039361B2
:10185C00264B9B6903F008033B603B6800224FF664
:10186C00A071234800F0F9FD00224EF2FE712148D0
:10187C0000F0F3FD1323BB600023FB6001233B61ED
:10188C0007F1080319461A4800F056FC4FF6A073EE
:10189C00BB600123FB6000233B6102237B6107F1EA
:1018AC0008031946124800F047FC40F60103BB60E0
:1018BC000023FB6001233B6107F1080319460D4827
:1018CC0000F03AFC4EF2FE73BB600123FB60002378
:1018DC003B6102237B6107F108031946054800F0C0
:1018EC002BFC00BF1837BD4680BD00BF0010024066
:1018FC0000080140000C014080B582B000AF786058
:10190C0000F02CF8FEF758FC00BF0837BD4680BD30
:10191C0080B400AF72B600BFFEE7000080B483B0A5
:10192C0000AF786039603B68094A82FB0312921061
:10193C00DB17D21A07497B6841F82320064A7B68DB
:10194C00002142F8231000BF0C37BD4680BC704705
:10195C0067666666600200207002002080B483B067
:10196C0000AF01237B601CE0124A7B6852F82330E5
:10197C00002B13DD0F4A7B6852F823305A1E0D4999
:10198C007B6841F823200B4A7B6852F82330002BEC
:10199C0004DC094A7B68012142F823107B6801337F
:1019AC007B607B68032BDFDD00BF00BF0C37BD46BF
:1019BC0080BC7047600200207002002080B485B0AB
:1019CC0000AF154B9B69144A43F001039361124B12
:1019DC009B6903F00103BB60BB680F4BDB690E4ACC
:1019EC0043F08053D3610C4BDB6903F080537B6075
:1019FC007B680A4B5B68FB60FB6823F0E063FB6071
:101A0C00FB6843F08063FB60044AFB68536000BFD3
:101A1C001437BD4680BC70470010024000000140E6
:101A2C0080B584B000AF78607B681B68B3F1804FE1
:101A3C0014D1194BDB69184A43F00103D361164BDF
:101A4C00DB6903F00103FB60FB68002200211C2012
:101A5C0000F08BFA1C2000F0A4FA18E07B681B68DD
:101A6C000E4A934213D10C4BDB690B4A43F0020331
:101A7C00D361094BDB6903F00203BB60BB68002236
:101A8C0000211D2000F071FA1D2000F08AFA00BF21
:101A9C001037BD4680BD00BF00100240000400405E
:101AAC0080B588B000AF786007F1100300221A608F
:101ABC005A609A60DA607B681B680F4A934217D1B0
:101ACC000E4B9B690D4A43F0040393610B4B9B69CE
:101ADC0003F00403FB60FB6840233B6102237B6142
:101AEC000223FB6107F110031946054800F024FBA3
:101AFC0000BF2037BD4680BD0004004000100240EE
:101B0C000008014080B588B000AF786007F1100381
:101B1C0000221A605A609A60DA607B681B681F4A60
:101B2C00934237D11E4BDB691D4A43F40033D3611A
:101B3C001B4BDB6903F40033FB60FB68184B9B69A0
:101B4C00174A43F004039361154B9B6903F004039C
:101B5C00BB60BB6804233B6102237B610323FB61F5
:101B6C0007F1100319460F4800F0E6FA08233B6111
:101B7C0000237B610023BB6107F110031946094860
:101B8C0000F0DAFA00220021262000F0EEF92620DF
:101B9C0000F007FA00BF2037BD4680BD004400406E
:101BAC00001002400008014080B400AFFEE780B492
:101BBC0000AFFEE780B400AFFEE780B400AFFEE7F5
:101BCC0080B400AFFEE780B400AF00BFBD4680BC60
:101BDC00704780B400AF00BFBD4680BC704780B476
:101BEC0000AF00BFBD4680BC704780B500AF00F0B1
:101BFC00C9F800BF80BD000080B500AF024801F0FD
:101C0C00EFF900BF80BD00BFD401002080B500AF4C
:101C1C00024801F0E5F900BF80BD00BFFC000020C8
:101C2C0080B500AF024802F09DF800BF80BD00BF38
:101C3C001C02002080B586B000AF7860144A154BAA
:101C4C00D31A7B617B693B61134B1B68002B02D160
:101C5C00114B124A1A60104B1A687B6813443A698C
:101C6C009A4207D202F0A6FC03460C221A604FF0EF
:101C7C00FF3309E0084B1B68FB60074B1A687B6855
:101C8C001344054A1360FB6818461837BD4680BDDF
:101C9C000028002000040000C8000020980200204A
:101CAC0080B400AF00BFBD4680BC70470C480D49E6
:101CBC000D4A002302E0D458C4500433C4188C429B
:101CCC00F9D30A4A0A4C002301E013600432A24201
:101CDC00FBD3FFF7E5FF02F073FCFFF7E9FB70475E
:101CEC000000002098000020B0510008980000204F
:101CFC0094020020FEE7000080B500AF084B1B6883
:101D0C00074A43F010031360032000F023F90F205F
:101D1C0000F008F8FFF752FE0023184680BD00BF04
:101D2C000020024080B582B000AF7860124B1A6878
:101D3C00124B1B7819464FF47A73B3FBF1F3B2FBD9
:101D4C00F3F3184600F03BF90346002B01D00123B6
:101D5C000EE07B680F2B0AD8002279684FF0FF3019
:101D6C0000F003F9064A7B681360002300E00123AE
:101D7C0018460837BD4680BD2800002030000020E2
:101D8C002C00002080B400AF054B1B781A46054B85
:101D9C001B681344034A136000BFBD4680BC7047E8
:101DAC00300000208002002080B400AF024B1B6882
:101DBC001846BD4680BC70478002002080B485B0B8
:101DCC0000AF78607B6803F00703FB600C4BDB68AB
:101DDC00BB60BA684FF6FF031340BB60FB681A0286
:101DEC00BB68134343F0BF6343F40033BB60044A46
:101DFC00BB68D36000BF1437BD4680BC704700BFC2
:101E0C0000ED00E080B400AF044BDB681B0A03F06C
:101E1C0007031846BD4680BC704700BF00ED00E0CC
:101E2C0080B483B000AF0346FB7197F90730002BE9
:101E3C000BDBFB7903F01F02064997F907305B09AE
:101E4C00012000FA02F241F8232000BF0C37BD46F6
:101E5C0080BC704700E100E080B483B000AF034663
:101E6C003960FB7197F90730002B0ADB3B68DAB25B
:101E7C000C4997F907301201D2B20B4483F80023B6
:101E8C000AE03B68DAB20849FB7903F00F03043B24
:101E9C001201D2B20B441A7600BF0C37BD4680BC7F
:101EAC00704700BF00E100E000ED00E080B489B0B5
:101EBC0000AFF860B9607A60FB6803F00703FB6160
:101ECC00FB69C3F10703042B28BF0423BB61FB6927
:101EDC000433062B02D9FB69033B00E000237B6132
:101EEC004FF0FF32BB6902FA03F3DA43BB681A40C6
:101EFC007B699A404FF0FF317B6901FA03F3D943B8
:101F0C007B680B40134318462437BD4680BC704792
:101F1C0080B582B000AF78607B68013BB3F1807F05
:101F2C0001D301230FE00A4A7B68013B53600F2168
:101F3C004FF0FF30FFF790FF054B00229A60044BE7
:101F4C0007221A60002318460837BD4680BD00BF23
:101F5C0010E000E080B582B000AF78607868FFF7E1
:101F6C002DFF00BF0837BD4680BD80B586B000AFE1
:101F7C000346B9607A60FB7300237B61FFF742FF75
:101F8C0078617A68B9687869FFF790FF024697F92B
:101F9C000F3011461846FFF75FFF00BF1837BD46DC
:101FAC0080BD80B582B000AF0346FB7197F9073056
:101FBC001846FFF735FF00BF0837BD4680BD80B51A
:101FCC0082B000AF78607868FFF7A2FF034618462E
:101FDC000837BD4680BD80B485B000AF7860002363
:101FEC00FB737B6893F82130022B08D07B680422AA
:101FFC009A637B68002283F82020012320E07B6811
:10200C001B681A687B681B6822F00E021A607B68DA
:10201C001B681A687B681B6822F001021A607B68D7
:10202C001A6C7B68DB6B012101FA02F25A607B6847
:10203C00012283F821207B68002283F82020FB7B7F
:10204C0018461437BD4680BC7047000080B584B07C
:10205C0000AF78600023FB737B6893F82130022B70
:10206C0005D07B6804229A630123FB7351E07B68E3
:10207C001B681A687B681B6822F00E021A607B686A
:10208C001B681A687B681B6822F001021A607B6867
:10209C001B68224A934229D07B681B68204A9342D2
:1020AC0022D07B681B681F4A93421AD07B681B683E
:1020BC001D4A934212D07B681B681C4A93420AD07B
:1020CC007B681B681A4A934202D14FF480130EE0CE
:1020DC004FF080730BE04FF4803308E04FF48053E3
:1020EC0005E04FF4807302E0102300E00123114A55
:1020FC0053607B68012283F821207B68002283F8DF
:10210C0020207B685B6B002B03D07B685B6B786853
:10211C009847FB7B18461037BD4680BD080002402F
:10212C001C000240300002404400024058000240B3
:10213C006C0002400000024080B48BB000AF7860AD
:10214C00396000237B6200233B6248E101227B6AF9
:10215C0002FA03F3FB613B681B68FA691340BB612D
:10216C00BA69FB699A4240F037813B685B68A34AC5
:10217C0093425ED0A14A934275D8A14A934258D05B
:10218C009F4A93426FD89F4A934252D09D4A9342A2
:10219C0069D89D4A93424CD09B4A934263D89B4A40
:1021AC00934246D0994A93425DD8122B2AD8122BCF
:1021BC0059D801A252F823F03F2200081922000836
:1021CC002B2200086D2200087322000873220008DD
:1021DC00732200087322000873220008732200087F
:1021EC00732200087322000873220008732200086F
:1021FC0073220008732200087322000821220008B1
:10220C0035220008824A934213D02CE03B68DB68ED
:10221C003B6229E03B68DB6804333B6224E03B68AB
:10222C00DB6808333B621FE03B68DB680C333B62C6
:10223C001AE03B689B68002B02D104233B6213E03D
:10224C003B689B68012B05D108233B627B68FA69CC
:10225C001A6109E008233B627B68FA695A6103E062
:10226C0000233B6200E000BFBB69FF2B01D87B68F9
:10227C0001E07B6804337B61BB69FF2B02D87B6A6E
:10228C009B0002E07B6A083B9B003B617B691A6800
:10229C000F213B6901FA03F3DB431A40396A3B69AE
:1022AC0001FA03F31A437B691A603B685B6803F01D
:1022BC008053002B00F09080564B9B69554A43F09D
:1022CC0001039361534B9B6903F00103BB60BB6833
:1022DC00514A7B6A9B08023352F82330FB607B6ABD
:1022EC0003F003039B000F2202FA03F3DB43FA68AB
:1022FC001340FB607B68494A93420DD07B68484A87
:10230C00934207D07B68474A934201D1022304E0F1
:10231C00032302E0012300E000237A6A02F00302A7
:10232C0092009340FA681343FB603B497B6A9B081D
:10233C000233FA6841F823203B685B6803F480336E
:10234C00002B06D0384B1A683749BB6913430B6016
:10235C0006E0354B1A68BB69DB43334913400B600D
:10236C003B685B6803F40033002B06D02E4B5A6895
:10237C002D49BB6913434B6006E02B4B5A68BB6974
:10238C00DB43294913404B603B685B6803F48013C3
:10239C00002B06D0244B9A682349BB6913438B60EE
:1023AC0006E0214B9A68BB69DB431F4913408B60E5
:1023BC003B685B6803F40013002B06D01A4BDA68F9
:1023CC001949BB691343CB6006E0174BDA68BB694C
:1023DC00DB4315491340CB607B6A01337B623B685E
:1023EC001A687B6A22FA03F3002B7FF4AFAE00BFAE
:1023FC0000BF2C37BD4680BC704700BF00003210B8
:10240C0000003110000022100000211000001210FA
:10241C0000001110001002400000014000080140B3
:10242C00000C0140001001400004014080B485B054
:10243C0000AF78600B467B807B689A687B88134082
:10244C00002B02D00123FB7301E00023FB73FB7B09
:10245C0018461437BD4680BC704780B483B000AFBB
:10246C0078600B467B8013467B707B78002B03D007
:10247C007A887B681A6103E07B881A047B681A618E
:10248C0000BF0C37BD4680BC7047000080B586B0DD
:10249C0000AF78607B68002B01D101236CE27B6874
:1024AC001B6803F00103002B00F08780924B5B68E4
:1024BC0003F00C03042B0CD08F4B5B6803F00C0364
:1024CC00082B12D18C4B5B6803F48033B3F5803F3F
:1024DC000BD1894B1B6803F40033002B6CD07B6849
:1024EC005B68002B68D1012346E27B685B68B3F51F
:1024FC00803F06D1804B1B687F4A43F480331360C6
:10250C002EE07B685B68002B0CD17B4B1B687A4AF6
:10251C0023F480331360784B1B68774A23F48023B1
:10252C0013601DE07B685B68B3F5A02F0CD1724B78
:10253C001B68714A43F4802313606F4B1B686E4A0F
:10254C0043F4803313600BE06B4B1B686A4A23F433
:10255C0080331360684B1B68674A23F48023136035
:10256C007B685B68002B13D0FFF71EFC386108E01A
:10257C00FFF71AFC02463B69D31A642B01D90323DB
:10258C00FAE15D4B1B6803F40033002BF0D014E030
:10259C00FFF70AFC386108E0FFF706FC02463B69CE
:1025AC00D31A642B01D90323E6E1534B1B6803F4C4
:1025BC000033002BF0D100E000BF7B681B6803F0F8
:1025CC000203002B63D04C4B5B6803F00C03002B15
:1025DC000BD0494B5B6803F00C03082B1CD1464B0A
:1025EC005B6803F48033002B16D1434B1B6803F05C
:1025FC000203002B05D07B681B69012B01D0012342
:10260C00BAE13D4B1B6823F0F8027B685B69DB0089
:10261C00394913430B603AE07B681B69002B20D0CF
:10262C00364B01221A60FFF7BFFB386108E0FFF759
:10263C00BBFB02463B69D31A022B01D903239BE156
:10264C002D4B1B6803F00203002BF0D02A4B1B68A8
:10265C0023F0F8027B685B69DB00274913430B60AE
:10266C0015E0264B00221A60FFF79EFB386108E04C
:10267C00FFF79AFB02463B69D31A022B01D90323BD
:10268C007AE11D4B1B6803F00203002BF0D17B6831
:10269C001B6803F00803002B3AD07B689B69002B66
:1026AC0019D0174B01221A60FFF77EFB386108E046
:1026BC00FFF77AFB02463B69D31A022B01D903239D
:1026CC005AE10D4B5B6A03F00203002BF0D00120A2
:1026DC0000F0D8FA1CE00A4B00221A60FFF764FBEA
:1026EC0038610FE0FFF760FB02463B69D31A022BFF
:1026FC0008D9032340E100BF001002400000424211
:10270C00800442429E4B5B6A03F00203002BE9D12A
:10271C007B681B6803F00403002B00F0A6800023E9
:10272C00FB75974BDB6903F08053002B0DD1944B59
:10273C00DB69934A43F08053D361914BDB6903F01F
:10274C008053BB60BB680123FB758E4B1B6803F485
:10275C008073002B18D18B4B1B688A4A43F480730F
:10276C001360FFF721FB386108E0FFF71DFB024601
:10277C003B69D31A642B01D90323FDE0814B1B6801
:10278C0003F48073002BF0D07B68DB68012B06D13F
:10279C007B4B1B6A7A4A43F0010313622DE07B6882
:1027AC00DB68002B0CD1764B1B6A754A23F00103B6
:1027BC001362734B1B6A724A23F0040313621CE00E
:1027CC007B68DB68052B0CD16D4B1B6A6C4A43F0A4
:1027DC00040313626A4B1B6A694A43F001031362D8
:1027EC000BE0674B1B6A664A23F001031362644BD0
:1027FC001B6A634A23F0040313627B68DB68002BBB
:10280C0015D0FFF7D1FA38610AE0FFF7CDFA02468E
:10281C003B69D31A41F28832934201D90323ABE0CE
:10282C00574B1B6A03F00203002BEED014E0FFF7AA
:10283C00BBFA38610AE0FFF7B7FA02463B69D31AD4
:10284C0041F28832934201D9032395E04C4B1B6A29
:10285C0003F00203002BEED1FB7D012B05D1484B7D
:10286C00DB69474A23F08053D3617B68DB69002B1B
:10287C0000F08180424B5B6803F00C03082B61D0A5
:10288C007B68DB69022B46D13F4B00221A60FFF7B5
:10289C008BFA386108E0FFF787FA02463B69D31AD6
:1028AC00022B01D9032367E0354B1B6803F000733F
:1028BC00002BF0D17B681B6AB3F5803F08D1304BFD
:1028CC005B6823F400327B689B682D4913434B6093
:1028DC002B4B5B6823F474127B68196A7B685B6A08
:1028EC000B43274913434B60274B01221A60FFF718
:1028FC005BFA386108E0FFF757FA02463B69D31AD6
:10290C00022B01D9032337E01D4B1B6803F0007326
:10291C00002BF0D02FE01C4B00221A60FFF744FA7A
:10292C00386108E0FFF740FA02463B69D31A022BE4
:10293C0001D9032320E0124B1B6803F00073002B1A
:10294C00F0D118E07B68DB69012B01D1012313E086
:10295C000B4B5B68FB60FB6803F480327B681B6A83
:10296C009A4206D1FB6803F470127B685B6A9A4248
:10297C0001D0012300E0002318461837BD4680BD66
:10298C0000100240007000406000424280B584B0EC
:10299C0000AF786039607B68002B01D10123D0E057
:1029AC006A4B1B6803F007033A689A4210D9674BCD
:1029BC001B6823F0070265493B6813430B60634BAC
:1029CC001B6803F007033A689A4201D00123B8E070
:1029DC007B681B6803F00203002B20D07B681B680C
:1029EC0003F00403002B05D0594B5B68584A43F4A1
:1029FC00E06353607B681B6803F00803002B05D071
:102A0C00534B5B68524A43F460535360504B5B68C2
:102A1C0023F0F0027B689B684D4913434B607B6845
:102A2C001B6803F00103002B40D07B685B68012B13
:102A3C0007D1474B1B6803F40033002B15D101233E
:102A4C007FE07B685B68022B07D1414B1B6803F06E
:102A5C000073002B09D1012373E03D4B1B6803F07D
:102A6C000203002B01D101236BE0394B5B6823F08F
:102A7C0003027B685B68364913434B60FFF794F99C
:102A8C00F8600AE0FFF790F90246FB68D31A41F2AE
:102A9C008832934201D9032353E02D4B5B6803F03A
:102AAC000C027B685B689B009A42EBD1274B1B683E
:102ABC0003F007033A689A4210D2244B1B6823F0A8
:102ACC00070222493B6813430B60204B1B6803F041
:102ADC0007033A689A4201D0012332E07B681B68F5
:102AEC0003F00403002B08D0194B5B6823F4E0625D
:102AFC007B68DB68164913434B607B681B6803F0EB
:102B0C000803002B09D0124B5B6823F460527B68DE
:102B1C001B69DB000E4913434B6000F021F80246A1
:102B2C000B4B5B681B0903F00F030A49CB5C22FAC1
:102B3C0003F3094A1360094B1B681846FFF7F2F8B8
:102B4C00002318461037BD4680BD00BF0020024050
:102B5C00001002405C510008280000202C000020CE
:102B6C0090B48AB000AF2A4B3C1D0FCB84E80F0009
:102B7C0040F201233B800023FB610023BB61002357
:102B8C007B6200237B6100233B62224B5B68FB6111
:102B9C00FB6903F00C03042B02D0082B03D02DE0AF
:102BAC001D4B3B622DE0FB699B0C03F00F0307F1FF
:102BBC002802134413F8243C7B61FB6903F4803333
:102BCC00002B13D0134B5B685B0C03F0010307F174
:102BDC002802134413F8283CBB617B690E4A02FBA4
:102BEC0003F2BB69B2FBF3F37B6204E07B690B4A33
:102BFC0002FB03F37B627B6A3B6202E0064B3B62A7
:102C0C0000BF3B6A18462837BD4690BC704700BFD2
:102C1C004C5100080010024000127A0000093D00DF
:102C2C0080B400AF024B1B681846BD4680BC704791
:102C3C002800002080B500AFFFF7F2FF0246054BDD
:102C4C005B681B0A03F007030349CB5C22FA03F30E
:102C5C00184680BD001002406C51000880B500AFD2
:102C6C00FFF7DEFF0246054B5B68DB0A03F0070348
:102C7C000349CB5C22FA03F3184680BD00100240D6
:102C8C006C51000880B485B000AF78600A4B1B68AB
:102C9C000A4AA2FB03235B0A7A6802FB03F3FB607C
:102CAC0000BFFB685A1EFA60002BF9D100BF00BFB1
:102CBC001437BD4680BC704728000020D34D6210ED
:102CCC0080B582B000AF78607B68002B01D1012306
:102CDC0041E07B6893F83D30DBB2002B06D17B687A
:102CEC00002283F83C207868FEF79AFE7B6802226B
:102CFC0083F83D207B681A687B68043319461046BC
:102D0C0000F01CFC7B68012283F846207B680122C2
:102D1C0083F83E207B68012283F83F207B680122E8
:102D2C0083F840207B68012283F841207B680122D4
:102D3C0083F842207B68012283F843207B680122C0
:102D4C0083F844207B68012283F845207B680122AC
:102D5C0083F83D20002318460837BD4680BD00008F
:102D6C0080B485B000AF78607B6893F83D30DBB2FF
:102D7C00012B01D0012335E07B68022283F83D2032
:102D8C007B681B68DA687B681B6842F00102DA60BA
:102D9C007B681B68164A934209D07B681B68B3F1A9
:102DAC00804F04D07B681B68124A934211D17B6818
:102DBC001B689B6803F00703FB60FB68062B10D0B5
:102DCC007B681B681A687B681B6842F001021A60FA
:102DDC0007E07B681B681A687B681B6842F001027D
:102DEC001A60002318461437BD4680BC704700BFDC
:102DFC00002C01400004004080B582B000AF786028
:102E0C007B68002B01D1012341E07B6893F83D30B6
:102E1C00DBB2002B06D17B68002283F83C2078685B
:102E2C0000F039F87B68022283F83D207B681A6831
:102E3C007B6804331946104600F080FB7B68012246
:102E4C0083F846207B68012283F83E207B680122B0
:102E5C0083F83F207B68012283F840207B680122A5
:102E6C0083F841207B68012283F842207B68012291
:102E7C0083F843207B68012283F844207B6801227D
:102E8C0083F845207B68012283F83D2000231846F7
:102E9C000837BD4680BD80B483B000AF786000BFFA
:102EAC000C37BD4680BC704780B584B000AF7860ED
:102EBC0039603B68002B09D17B6893F83E30DBB25C
:102ECC00012B14BF01230023DBB222E03B68042B4F
:102EDC0009D17B6893F83F30DBB2012B14BF01237F
:102EEC000023DBB215E03B68082B09D17B6893F813
:102EFC004030DBB2012B14BF01230023DBB208E00E
:102F0C007B6893F84130DBB2012B14BF0123002303
:102F1C00DBB2002B01D0012359E03B68002B04D11C
:102F2C007B68022283F83E2013E03B68042B04D11B
:102F3C007B68022283F83F200BE03B68082B04D10E
:102F4C007B68022283F8402003E07B68022283F82E
:102F5C0041207B681B6801223968184600F064FD2B
:102F6C007B681B681C4A934207D17B681B685A6CB0
:102F7C007B681B6842F400425A647B681B68164AE3
:102F8C00934209D07B681B68B3F1804F04D07B68F7
:102F9C001B68124A934211D17B681B689B6803F033
:102FAC000703FB60FB68062B10D07B681B681A6854
:102FBC007B681B6842F001021A6007E07B681B68A3
:102FCC001A687B681B6842F001021A6000231846DD
:102FDC001037BD4680BD00BF002C014000040040EE
:102FEC0080B582B000AF78607B681B681B6903F00A
:102FFC000203022B22D17B681B68DB6803F00203FF
:10300C00022B1BD17B681B686FF002021A617B6874
:10301C0001221A777B681B689B6903F00303002B62
:10302C0003D0786800F06FFA05E0786800F062FA77
:10303C00786800F071FA7B6800221A777B681B684D
:10304C001B6903F00403042B22D17B681B68DB682B
:10305C0003F00403042B1BD17B681B686FF0040284
:10306C001A617B6802221A777B681B689B6903F4E0
:10307C004073002B03D0786800F045FA05E07868BF
:10308C0000F038FA786800F047FA7B6800221A776B
:10309C007B681B681B6903F00803082B22D17B6833
:1030AC001B68DB6803F00803082B1BD17B681B68CB
:1030BC006FF008021A617B6804221A777B681B6820
:1030CC00DB6903F00303002B03D0786800F01BFAD4
:1030DC0005E0786800F00EFA786800F01DFA7B685D
:1030EC0000221A777B681B681B6903F01003102BF6
:1030FC0022D17B681B68DB6803F01003102B1BD1FB
:10310C007B681B686FF010021A617B6808221A77C3
:10311C007B681B68DB6903F44073002B03D0786871
:10312C0000F0F1F905E0786800F0E4F9786800F057
:10313C00F3F97B6800221A777B681B681B6903F024
:10314C000103012B0ED17B681B68DB6803F00103C4
:10315C00012B07D17B681B686FF001021A6178683C
:10316C00FEF7CAFB7B681B681B6903F08003802B8E
:10317C000ED17B681B68DB6803F08003802B07D1C2
:10318C007B681B686FF080021A61786800F0D1FCD4
:10319C007B681B681B6903F04003402B0ED17B68D6
:1031AC001B68DB6803F04003402B07D17B681B686E
:1031BC006FF040021A61786800F0B7F97B681B6801
:1031CC001B6903F02003202B0ED17B681B68DB6886
:1031DC0003F02003202B07D17B681B686FF02002C3
:1031EC001A61786800F09CFC00BF0837BD4680BDB2
:1031FC0080B584B000AFF860B9607A60FB6893F872
:10320C003C30012B01D10223ACE0FB68012283F896
:10321C003C207B680C2B00F29F8001A252F823F01B
:10322C006132000865330008653300086533000817
:10323C00A1320008653300086533000865330008C7
:10324C00E332000865330008653300086533000875
:10325C0023330008FB681B68B968184600F0C6F9F0
:10326C00FB681B689A69FB681B6842F008029A614C
:10327C00FB681B689A69FB681B6822F004029A6160
:10328C00FB681B689969BB681A69FB681B680A4371
:10329C009A6162E0FB681B68B968184600F00CFA8A
:1032AC00FB681B689A69FB681B6842F400629A61B0
:1032BC00FB681B689A69FB681B6822F480629A6140
:1032CC00FB681B689969BB681B691A02FB681B6861
:1032DC000A439A6141E0FB681B68B968184600F024
:1032EC0055FAFB681B68DA69FB681B6842F0080238
:1032FC00DA61FB681B68DA69FB681B6822F0040260
:10330C00DA61FB681B68D969BB681A69FB681B68C2
:10331C000A43DA6121E0FB681B68B968184600F0C3
:10332C009FFAFB681B68DA69FB681B6842F4006251
:10333C00DA61FB681B68DA69FB681B6822F480623F
:10334C00DA61FB681B68D969BB681B691A02FB68E8
:10335C001B680A43DA6100E000BFFB68002283F8B7
:10336C003C20002318461037BD4680BD80B584B084
:10337C0000AF786039607B6893F83C30012B01D149
:10338C000223B3E07B68012283F83C207B68022295
:10339C0083F83D207B681B689B68FB60FB6823F00F
:1033AC007703FB60FB6823F47F43FB607B681B683F
:1033BC00FA689A603B681B68B3F5005F3ED0B3F5C2
:1033CC00005F00F28780B3F5805F00F08580B3F575
:1033DC00805F7FD8702B1AD0702B7BD8602B50D08D
:1033EC00602B77D8502B3CD0502B73D8402B58D017
:1033FC00402B6FD8302B64D0302B6BD8202B60D067
:10340C00202B67D8002B5CD0102B5AD062E07B6845
:10341C0018683B6899683B685A683B68DB6800F041
:10342C00E4FA7B681B689B68FB60FB6843F07703DE
:10343C00FB607B681B68FA689A604EE07B681868D2
:10344C003B6899683B685A683B68DB6800F0CDFACA
:10345C007B681B689A687B681B6842F480429A60A0
:10346C003BE07B6818683B6859683B68DB681A4628
:10347C0000F044FA7B681B685021184600F09BFA58
:10348C002BE07B6818683B6859683B68DB681A4618
:10349C0000F062FA7B681B686021184600F08BFA1A
:1034AC001BE07B6818683B6859683B68DB681A4608
:1034BC0000F024FA7B681B684021184600F07BFA68
:1034CC000BE07B681A683B681B681946104600F0D5
:1034DC0072FA02E000BF00E000BF7B68012283F8B3
:1034EC003D207B68002283F83C20002318461037CF
:1034FC00BD4680BD80B483B000AF786000BF0C3790
:10350C00BD4680BC704780B483B000AF786000BF0C
:10351C000C37BD4680BC704780B483B000AF786078
:10352C0000BF0C37BD4680BC704780B483B000AF81
:10353C00786000BF0C37BD4680BC704780B485B046
:10354C0000AF786039607B681B68FB607B68254A3C
:10355C00934207D07B68B3F1804F03D07B68224A3B
:10356C00934208D1FB6823F07003FB603B685B68F7
:10357C00FA681343FB607B681A4A934207D07B6856
:10358C00B3F1804F03D07B68174A934208D1FB6894
:10359C0023F44073FB603B68DB68FA681343FB6001
:1035AC00FB6823F080023B685B691343FB607B681C
:1035BC00FA681A603B689A687B68DA623B681A683A
:1035CC007B689A627B68074A934203D13B681A690D
:1035DC007B681A637B6801225A6100BF1437BD46B1
:1035EC0080BC7047002C01400004004080B487B0C0
:1035FC0000AF786039607B681B6A23F001027B683E
:10360C001A627B681B6A7B617B685B683B617B68C9
:10361C009B69FB60FB6823F07003FB60FB6823F085
:10362C000303FB603B681B68FA681343FB607B6910
:10363C0023F002037B613B689B687A6913437B61CF
:10364C007B681C4A93420CD17B6923F008037B6195
:10365C003B68DB687A6913437B617B6923F0040365
:10366C007B617B68134A934211D13B6923F48073CD
:10367C003B613B6923F400733B613B685B693A69CE
:10368C0013433B613B689B693A6913433B617B681D
:10369C003A695A607B68FA689A613B685A687B6839
:1036AC005A637B687A691A6200BF1C37BD4680BCBE
:1036BC00704700BF002C014080B487B000AF786029
:1036CC0039607B681B6A23F010027B681A627B6886
:1036DC001B6A7B617B685B683B617B689B69FB60F9
:1036EC00FB6823F4E043FB60FB6823F44073FB604E
:1036FC003B681B681B02FA681343FB607B6923F071
:10370C0020037B613B689B681B017A6913437B61D7
:10371C007B681D4A93420DD17B6923F080037B614A
:10372C003B68DB681B017A6913437B617B6923F07F
:10373C0040037B617B68144A934213D13B6923F4A9
:10374C0080633B613B6923F400633B613B685B69CD
:10375C009B003A6913433B613B689B699B003A6948
:10376C0013433B617B683A695A607B68FA689A61DB
:10377C003B685A687B689A637B687A691A6200BFF7
:10378C001C37BD4680BC7047002C014080B487B00C
:10379C0000AF786039607B681B6A23F480727B68A9
:1037AC001A627B681B6A7B617B685B683B617B6828
:1037BC00DB69FB60FB6823F07003FB60FB6823F0A4
:1037CC000303FB603B681B68FA681343FB607B696F
:1037DC0023F400737B613B689B681B027A6913437B
:1037EC007B617B681D4A93420DD17B6923F4006396
:1037FC007B613B68DB681B027A6913437B617B69E5
:10380C0023F480637B617B68144A934213D13B6938
:10381C0023F480533B613B6923F400533B613B68C9
:10382C005B691B013A6913433B613B689B691B0154
:10383C003A6913433B617B683A695A607B68FA6862
:10384C00DA613B685A687B68DA637B687A691A626A
:10385C0000BF1C37BD4680BC704700BF002C014028
:10386C0080B487B000AF786039607B681B6A23F442
:10387C0080527B681A627B681B6A3B617B685B6861
:10388C007B617B68DB69FB60FB6823F4E043FB60D6
:10389C00FB6823F44073FB603B681B681B02FA68EF
:1038AC001343FB603B6923F400533B613B689B680B
:1038BC001B033A6913433B617B680F4A934209D15E
:1038CC007B6923F480437B613B685B699B017A696C
:1038DC0013437B617B687A695A607B68FA68DA61AA
:1038EC003B685A687B681A647B683A691A6200BF45
:1038FC001C37BD4680BC7047002C014080B487B09B
:10390C0000AFF860B9607A60FB681B6A7B61FB688A
:10391C001B6A23F00102FB681A62FB689B693B611E
:10392C003B6923F0F0033B617B681B013A6913434D
:10393C003B617B6923F00A037B617A69BB681343A3
:10394C007B61FB683A699A61FB687A691A6200BF0D
:10395C001C37BD4680BC704780B487B000AFF860A0
:10396C00B9607A60FB681B6A23F01002FB681A626C
:10397C00FB689B697B61FB681B6A3B617B6923F479
:10398C0070437B617B681B037A6913437B613B69E2
:10399C0023F0A0033B61BB681B013A6913433B61F5
:1039AC00FB687A699A61FB683A691A6200BF1C3736
:1039BC00BD4680BC704780B485B000AF786039607C
:1039CC007B689B68FB60FB6823F07003FB603A68C4
:1039DC00FB68134343F00703FB607B68FA689A604B
:1039EC0000BF1437BD4680BC704780B487B000AFB1
:1039FC00F860B9607A603B60FB689B687B617B69AF
:103A0C0023F47F437B613B681A027B681A43BB68D3
:103A1C0013437A6913437B61FB687A699A6000BF30
:103A2C001C37BD4680BC704780B487B000AFF860CF
:103A3C00B9607A60BB6803F01F03012202FA03F33A
:103A4C007B61FB681A6A7B69DB431A40FB681A626C
:103A5C00FB681A6ABB6803F01F03796801FA03F369
:103A6C001A43FB681A6200BF1C37BD4680BC704706
:103A7C0080B485B000AF786039607B6893F83C30D7
:103A8C00012B01D1022341E07B68012283F83C2009
:103A9C007B68022283F83D207B681B685B68FB60B7
:103AAC007B681B689B68BB60FB6823F07003FB6042
:103ABC003B681B68FA681343FB607B681B68FA68F9
:103ACC005A607B681B68144A934209D07B681B6858
:103ADC00B3F1804F04D07B681B68104A93420CD121
:103AEC00BB6823F08003BB603B685B68BA68134318
:103AFC00BB607B681B68BA689A607B68012283F89C
:103B0C003D207B68002283F83C20002318461437A4
:103B1C00BD4680BC704700BF002C01400004004033
:103B2C0080B483B000AF786000BF0C37BD4680BC5A
:103B3C00704780B483B000AF786000BF0C37BD46CF
:103B4C0080BC704780B582B000AF78607B68002B7A
:103B5C0001D101233FE07B6893F83D30DBB2002BB1
:103B6C0006D17B68002283F83C207868FDF7CAFFF9
:103B7C007B68242283F83D207B681B68DA687B68AD
:103B8C001B6822F40052DA60786800F085FC7B68D0
:103B9C001B681A697B681B6822F490421A617B6867
:103BAC001B685A697B681B6822F02A025A617B6881
:103BBC001B68DA687B681B6842F40052DA607B6829
:103BCC0000221A647B68202283F83D207B68202227
:103BDC0083F83E20002318460837BD4680BD80B5CB
:103BEC008AB002AFF860B9603B601346FB800023DB
:103BFC007B61FB6893F83D30DBB2202B7CD1BB683A
:103C0C00002B02D0FB88002B01D1012375E0FB684F
:103C1C0093F83C30012B01D102236EE0FB680122AA
:103C2C0083F83C20FB6800221A64FB68212283F88D
:103C3C003D20FEF7B9F87861FB68FA889A84FB6836
:103C4C00FA88DA84FB689B68B3F5805F08D1FB685F
:103C5C001B69002B04D10023FB61BB68BB6103E033
:103C6C00BB68FB610023BB61FB68002283F83C202E
:103C7C002AE03B6800937B6900228021F86800F001
:103C8C0038FA0346002B01D0032336E0FB69002BE6
:103C9C000BD1BB691B881A46FB681B68C2F3080270
:103CAC005A60BB690233BB6107E0FB691A78FB6899
:103CBC001B685A60FB690133FB61FB68DB8C9BB2B0
:103CCC00013B9AB2FB68DA84FB68DB8C9BB2002B5D
:103CDC00CFD13B6800937B6900224021F86800F04B
:103CEC0008FA0346002B01D0032306E0FB682022D0
:103CFC0083F83D20002300E0022318462037BD4600
:103D0C0080BD80B584B000AFF860B9601346FB800D
:103D1C00FB6893F83E30DBB2202B1DD1BB68002B27
:103D2C0002D0FB88002B01D1012316E0FB6893F82D
:103D3C003C30012B01D102230FE0FB68012283F8F8
:103D4C003C20FB6800221A63FB881A46B968F868A5
:103D5C0000F019FA034600E0022318461037BD465E
:103D6C0080BD000080B58AB000AF78607B681B68AE
:103D7C001B687B627B681B68DB683B627B681B682B
:103D8C005B69FB610023BB6100237B617B6A03F0F1
:103D9C000F03BB61BB69002B0DD17B6A03F02003C1
:103DAC00002B08D03B6A03F02003002B03D078686B
:103DBC0000F0C9FA7BE1BB69002B00F0B180FB6914
:103DCC0003F00103002B05D13B6A03F49073002B25
:103DDC0000F0A6807B6A03F00103002B0AD03B6A3B
:103DEC0003F48073002B05D07B681B6C43F001023D
:103DFC007B681A647B6A03F00403002B0AD0FB690E
:103E0C0003F00103002B05D07B681B6C43F002020E
:103E1C007B681A647B6A03F00203002B0AD0FB69EF
:103E2C0003F00103002B05D07B681B6C43F00402EC
:103E3C007B681A647B6A03F00803002B0FD03B6A83
:103E4C0003F02003002B04D1FB6903F00103002BCA
:103E5C0005D07B681B6C43F008027B681A647B6896
:103E6C001B6C002B00F01E817B6A03F02003002BDF
:103E7C0007D03B6A03F02003002B02D0786800F0D7
:103E8C0062FA7B681B685B6903F04003002B14BF6C
:103E9C0001230023DBB27B617B681B6C03F00803FE
:103EAC00002B02D17B69002B31D0786800F0A4F98B
:103EBC007B681B685B6903F04003002B23D07B6895
:103ECC001B685A697B681B6822F040025A617B6848
:103EDC009B6B002B13D07B689B6B764A5A637B6879
:103EEC009B6B1846FEF7B2F80346002B16D07B6886
:103EFC009B6B5B6B7A68926B104698470EE0786808
:103F0C0000F0E3F80AE0786800F0DFF806E0786883
:103F1C0000F0DBF87B6800221A64C3E000BFC1E04C
:103F2C007B681B6B012B40F0A1807B6A03F01003B4
:103F3C00002B00F09B803B6A03F01003002B00F079
:103F4C0095800023FB607B681B681B68FB607B68AB
:103F5C001B685B68FB60FB687B681B685B6903F034
:103F6C004003002B4ED07B689B6B1B685B683B82CD
:103F7C003B8A002B00F098807B689B8D3A8A9A4292
:103F8C0080F092807B683A8ADA857B689B6B9B69B0
:103F9C00202B2BD07B681B68DA687B681B6822F4AB
:103FAC008072DA607B681B685A697B681B6822F038
:103FBC0001025A617B681B685A697B681B6822F096
:103FCC0040025A617B68202283F83E207B680022E5
:103FDC001A637B681B68DA687B681B6822F0100226
:103FEC00DA607B689B6B1846FDF7F5FF7B689A8D52
:103FFC007B68DB8D9BB2D31A9BB21946786800F0B4
:10400C006DF851E07B689A8D7B68DB8D9BB2D31A7F
:10401C007B827B68DB8D9BB2002B47D07B8A002B8D
:10402C0044D07B681B68DA687B681B6822F490724A
:10403C00DA607B681B685A697B681B6822F0010296
:10404C005A617B68202283F83E207B6800221A6329
:10405C007B681B68DA687B681B6822F01002DA60E8
:10406C007B8A1946786800F039F81FE07B6A03F008
:10407C008003002B08D03B6A03F08003002B03D095
:10408C00786800F0F9F812E07B6A03F04003002B2B
:10409C000DD03B6A03F04003002B08D0786800F089
:1040AC003AF904E000BF02E000BF00E000BF28378F
:1040BC00BD4680BD5D42000880B483B000AF78601F
:1040CC0000BF0C37BD4680BC704780B483B000AFD6
:1040DC00786000BF0C37BD4680BC704780B483B09D
:1040EC0000AF78600B467B8000BF0C37BD4680BCB0
:1040FC00704780B584B000AFF860B9603B60134680
:10410C00FB712CE0BB69B3F1FF3F28D0BB69002BDE
:10411C0007D0FDF749FE02463B68D31ABA699A42AA
:10412C001DD2FB681B68DA68FB681B6822F4D0722E
:10413C00DA60FB681B685A69FB681B6822F0010295
:10414C005A61FB68202283F83D20FB68202283F80B
:10415C003E20FB68002283F83C2003230FE0FB6821
:10416C001B681A68BB681340BA689A420CBF0123DB
:10417C000023DBB21A46FB799A42C3D000231846BF
:10418C001037BD4680BD80B485B000AFF860B96013
:10419C001346FB80FB68BA689A62FB68FA889A85BA
:1041AC00FB68FA88DA85FB6800221A64FB68222215
:1041BC0083F83E20FB68002283F83C20FB681B68D8
:1041CC00DA68FB681B6842F48072DA60FB681B6873
:1041DC005A69FB681B6842F001025A61FB681B6854
:1041EC00DA68FB681B6842F02002DA60002318468C
:1041FC001437BD4680BC704780B483B000AF786084
:10420C007B681B68DA687B681B6822F49072DA6042
:10421C007B681B685A697B681B6822F001025A6133
:10422C007B681B6B012B07D17B681B68DA687B688A
:10423C001B6822F01002DA607B68202283F83E2093
:10424C007B6800221A6300BF0C37BD4680BC7047E8
:10425C0080B584B000AF78607B685B6AFB60FB68FC
:10426C000022DA85FB680022DA84F868FFF72DFF5C
:10427C0000BF1037BD4680BD80B485B000AF7860FC
:10428C007B6893F83D30DBB2212B3ED17B689B6879
:10429C00B3F5805F14D17B681B69002B10D17B6850
:1042AC001B6AFB60FB681B881A467B681B68C2F3A1
:1042BC0008025A607B681B6A9A1C7B681A6208E0C9
:1042CC007B681B6A591C7A6811621A787B681B68B8
:1042DC005A607B68DB8C9BB2013B9BB27A681946B7
:1042EC00D184002B0FD17B681B68DA687B681B6854
:1042FC0022F08002DA607B681B68DA687B681B68D6
:10430C0042F04002DA60002300E002231846143722
:10431C00BD4680BC704780B582B000AF78607B68CA
:10432C001B68DA687B681B6822F04002DA607B68E5
:10433C00202283F83D207868FFF7BEFE0023184644
:10434C000837BD4680BD80B586B000AF78607B680D
:10435C0093F83E30DBB2222B40F099807B689B684F
:10436C00B3F5805F17D17B681B69002B13D1002339
:10437C007B617B689B6A3B617B681B685B689BB25B
:10438C00C3F308039AB23B691A807B689B6A9A1C38
:10439C007B689A6226E07B689B6A7B6100233B61A9
:1043AC007B689B68B3F5805F07D07B689B68002BAC
:1043BC000AD17B681B69002B06D17B681B685B6884
:1043CC00DAB27B691A7008E07B681B685B68DBB249
:1043DC0003F07F03DAB27B691A707B689B6A5A1C04
:1043EC007B689A627B68DB8D9BB2013B9BB27A68DF
:1043FC001946D185002B48D17B681B68DA687B682D
:10440C001B6822F02002DA607B681B68DA687B6824
:10441C001B6822F48072DA607B681B685A697B68BF
:10442C001B6822F001025A617B68202283F83E202F
:10443C007B681B6B012B23D17B6800221A637B6882
:10444C001B68DA687B681B6822F01002DA607B68F4
:10445C001B681B6803F01003102B0AD10023FB60B0
:10446C007B681B681B68FB607B681B685B68FB6078
:10447C00FB687B689B8D19467868FFF72FFE02E07E
:10448C007868FCF7DBFF002302E0002300E0022346
:10449C0018461837BD4680BD80B584B000AF786033
:1044AC007B681B681B6923F440517B68DA687B6866
:1044BC001B680A431A617B689A687B681B691A43FC
:1044CC007B685B691343BB607B681B68DB6823F408
:1044DC00B05323F00C037A681268B9680B43D360AD
:1044EC007B681B685B6923F440717B689A697B6805
:1044FC001B680A435A617B681B682C4A934203D1A0
:10450C00FEF7ACFBF86002E0FEF794FBF860FA688B
:10451C0013469B0013449A001A447B685B689B000B
:10452C00B2FBF3F3224AA2FB03235B091901FA68DD
:10453C0013469B0013449A001A447B685B689B00EB
:10454C00B2FBF3F21A4BA3FB02035B09642000FBE2
:10455C0003F3D31A1B013233154AA2FB03235B0965
:10456C0003F0F0031944FA6813469B0013449A00B5
:10457C001A447B685B689B00B2FBF3F20C4BA3FB09
:10458C0002035B09642000FB03F3D31A1B013233D3
:10459C00074AA2FB03235B0903F00F027B681B682D
:1045AC000A449A6000BF1037BD4680BD00380140F8
:1045BC001F85EB51014B1868704700BF3400002079
:1045CC0070B500260C4D0D4C641BA410A64209D1ED
:1045DC0000F05CFC00260A4D0A4C641BA410A64299
:1045EC0005D170BD55F8043B98470136EEE755F8F8
:1045FC00043B98470136F2E7A8510008A85100087F
:10460C00A8510008AC5100080A44914200F1FF3354
:10461C0000D1704710B511F8014B914203F8014FCE
:10462C00F9D110BD03460244934200D1704703F800
:10463C00011BF9E70EB46FF0004100B59CB01DAB47
:10464C0002900690079104910848094953F8042BED
:10465C000591006802A9019300F068F80022029B02
:10466C001A701CB05DF804EB03B0704734000020E6
:10467C000802FFFF2DE9F0478E6882469E420C46E9
:10468C0090461F4638D88A8912F4906F32D025682C
:10469C0009690133A5EB010965694B4405EB450537
:1046AC0005EBD5756D109D4238BF1D46530531D5B0
:1046BC00294600F045FB064650B90C234FF0FF305D
:1046CC00CAF80030A38943F04003A381BDE8F0870A
:1046DC004A462169FFF798FFA38923F4906343F0BE
:1046EC008003A38126614E4426603E466561A5EB9E
:1046FC000905A560BE4200D93E46324641462068B7
:10470C0000F0B8FAA36822689B1B32440020A36017
:10471C002260DBE72A4600F06DFB06460028E1D15B
:10472C005046216900F0C0FAC7E700002DE9F04FB0
:10473C0098468B8907461B060D4614469DB00ED530
:10474C000B6963B9402100F0FBFA2860286120B99D
:10475C000C233B604FF0FF30D1E040236B61002312
:10476C00099320238DF8293030234FF00109CDF81F
:10477C000C80DFF8A4818DF82A3023469A4613F872
:10478C00012B0AB1252AF9D1BAEB040B0BD05B46ED
:10479C00224629463846FFF76DFF013000F0AA800B
:1047AC00099A5A4409929AF80030002B00F0A28022
:1047BC0000234FF0FF32CDE905230AF1010A0493DF
:1047CC0007938DF853301A935446052214F8011BA5
:1047DC00514800F041FA049AD8B9D00644BF2023BE
:1047EC008DF85330110744BF2B238DF853309AF8B2
:1047FC0000302A2B15D0544600204FF00A0C079A93
:10480C00214611F8013B303B092B4ED9B0B1079230
:10481C0014E0A0EB080309FA03F31343A246049334
:10482C00D2E7039B191D1B680391002BBBBF5B4296
:10483C0042F0020207930793B8BF049223782E2B01
:10484C000CD163782A2B35D1039B02341A1D1B68BB
:10485C000392002BB8BF4FF0FF330593DFF8C8A0CD
:10486C0003225046217800F0F7F940B14023A0EB29
:10487C000A0003FA00F0049B01340343049314F878
:10488C00011B062225488DF8281000F0E5F90028B8
:10489C0038D0234B1BBB039B073323F00703083390
:1048AC000393099B3344099367E70C4601200CFBE7
:1048BC000232A5E700234FF00A0C19460134059388
:1048CC00204610F8012B303A092A03D9002BC5D009
:1048DC000591C3E7044601230CFB0121F0E703AB70
:1048EC0000932A4638460F4B04A9AFF30080421CB4
:1048FC000646D6D1AB895B063FF52CAF09981DB0A7
:10490C00BDE8F08F03AB00932A463846054B04A94B
:10491C0000F07CF8EBE700BF745100087E510008F2
:10492C0000000000814600087A5100082DE9F0478C
:10493C00164699468A680B6907469342B8BF1346D8
:10494C00336091F843200C46DDF820800AB1013326
:10495C0033602368990642BF33680233336025689D
:10496C0015F0060506D104F1190AE36832689B1AA2
:10497C00AB4228DC94F84320131E226818BF012395
:10498C0092062DD44946384604F14302C047013003
:10499C0020D02368E56803F00603042B18BF00251C
:1049AC0032684FF00006A36808BFAD1A226908BF31
:1049BC0025EAE5759342C4BF9B1AED181A34B5422B
:1049CC001AD1002008E00123524649463846C04718
:1049DC00013003D14FF0FF30BDE8F0870135C4E75B
:1049EC003020E11881F843005A1C94F845102244F9
:1049FC00023382F84310C5E7012322464946384664
:104A0C00C0470130E6D00136D9E700002DE9FF4759
:104A1C000C46277E9146782F80469A460C9904F1D5
:104A2C00430207D8622F0AD8002F00F0D980582FE4
:104A3C0000F0A48004F1420684F842703AE0A7F139
:104A4C006303152BF6D801A050F823F0B14A0008E7
:104A5C00C54A0008414A0008414A0008414A00087A
:104A6C00414A0008C54A0008414A0008414A00086A
:104A7C00414A0008414A0008D34B0008F54A000897
:104A8C00B54B0008414A0008414A0008F54B0008A4
:104A9C00414A0008F54A0008414A0008414A00080A
:104AAC00BD4B00080B6804F142061A1D1B680A6016
:104ABC0084F842300123A4E0256808682E0600F132
:104ACC0004030AD505680B60002D03DA2D236D4213
:104ADC0084F843300A235E4819E015F0400F05684E
:104AEC000B6018BF2DB2EFE70B682568181D086026
:104AFC00280601D51D6802E06906FBD51D886F2FBD
:104B0C000CBF08230A235248002184F8431066681E
:104B1C00002EA8BF2168A660A4BF21F0040121606B
:104B2C000DB9002E4DD01646B5FBF3F103FB115712
:104B3C00C75D06F8017D2F46BB420D46F4D9082B04
:104B4C000BD12368DF0708D5236961689942DEBF62
:104B5C00302306F8013C06F1FF36921B22614B46CE
:104B6C0021464046CDF800A003AAFFF7DFFE013036
:104B7C004CD14FF0FF3004B0BDE8F087344884F8D6
:104B8C0045700E68236856F8045B1F060E6014D53A
:104B9C00D90744BF43F0200323601DB9236823F0D9
:104BAC00200323601023AFE7236843F02003236026
:104BBC007823284884F84530E3E75E0648BFADB259
:104BCC00E6E71646BBE70B6826681D1D60690D609D
:104BDC0035061B6801D5186002E07106FBD51880FC
:104BEC00002316462361BAE70B681A1D0A601E687B
:104BFC0000213046626800F02FF808B1801B60601D
:104C0C0063682361002384F84330A8E732464946A1
:104C1C0040462369D0470130ABD023689B0713D49F
:104C2C00E068039B9842B8BF1846A4E701233246BC
:104C3C0049464046D04701309BD00135E368039983
:104C4C005B1AAB42F2DCEBE7002504F11906F5E741
:104C5C008551000896510008034610B5C9B20244AC
:104C6C009342184601D1002003E0047801338C42B2
:104C7C00F6D110BD884210B501EB020402D9844272
:104C8C00234607D8431EA14208D011F8012B03F884
:104C9C00012FF8E7014602448A4200D110BD13F8F7
:104CAC00014D02F8014DF7E738B50546002943D010
:104CBC0051F8043C0C1F002BB8BFE41800F0D0F8DE
:104CCC001E4A1368104633B9636014602846BDE869
:104CDC00384000F0CBB8A3420AD92168621893423D
:104CEC0001BF1A685B685218226063600460EDE7CC
:104CFC001A465B680BB1A342FAD911685018A0424E
:104D0C000BD120680144501883421160DED1186821
:104D1C005B68014411605360D8E702D90C232B6007
:104D2C00D4E7206821188B4201BF19685B68091809
:104D3C00216063605460C9E738BD00BFCC0000201F
:104D4C00F8B5CD1C25F0030508350C2D38BF0C2506
:104D5C00002D064601DBA94203D90C233360002049
:104D6C00F8BD00F07DF821490A6814469CB9204F23
:104D7C003B6823B92146304600F062F8386029467A
:104D8C00304600F05DF8431C23D10C2330463360D1
:104D9C0000F06CF8E3E723685B1B17D40B2B03D9EB
:104DAC0023601C44256004E06368A2420CBF0B60C6
:104DBC005360304600F05AF804F10B00231D20F02C
:104DCC000700C21ACCD01B1AA350C9E7224664684C
:104DDC00CCE7C41C24F00304A042E3D0211A3046D3
:104DEC0000F02EF80130DDD1CFE700BFCC00002061
:104DFC00D0000020F8B5074614460E4621B91146DE
:104E0C00BDE8F840FFF79CBF22B9FFF74DFF2546E0
:104E1C002846F8BD00F030F8A0420FD221463846A3
:104E2C00FFF78EFF05460028F2D031462246FFF7E9
:104E3C00EBFB31463846FFF737FFE9E73546E7E746
:104E4C0038B50023054D044608462B60FCF7F2FEEE
:104E5C00431C02D12B6803B1236038BD84020020AF
:104E6C00014800F011B800BF8C020020014800F08E
:104E7C000CB800BF8C02002051F8043C181F002B0A
:104E8C00BCBF0B58C018704770477047F8B500BFCF
:104E9C00F8BC08BC9E467047F8B500BFF8BC08BC0F
:044EAC009E46704767
:104EB0004D6F64653A204175746F6D61746963204C
:104EC0006D6F64650D0A0000524544202020475252
:104ED00045454E0D0A000000524544202020414D1A
:104EE0004245520D0A000000475245454E20202001
:104EF0005245440D0A000000414D424552202020F9
:104F00005245440D0A0000004D6F64653A204D6122
:104F10006E75616C206D6F64650D0A004D6F646580
:104F200020323A204D6F64696679696E6720524578
:104F3000440D0A0043757272656E742074696D6564
:104F4000203D2025640D0A004D6F646520333A2012
:104F50004D6F64696679696E6720414D4245520D17
:104F60000A000000557064617465642074696D65A1
:104F7000203D2025640D0A0055706F6E2075706409
:104F80006174653A0D0A000052454420636F756EE6
:104F9000746572203D2025640D0A00004D6F646524
:104FA00020343A204D6F64696679696E67204752F4
:104FB00045454E0D0A000000414D42455220636FA9
:104FC000756E746572203D2025640D0A0000000096
:104FD000475245454E20636F756E746572203D20C3
:104FE00025640D0A00000000000000000000000021
:104FF00000000000000000000000000000000000B1
:10500000010000000100000000000000000000009E
:10501000010000000100000001000000010000008C
:10502000000000000000000001000000000000007F
:10503000000000000100000000000000000000006F
:10504000000000000000000000000000010000005F
:10505000010000000000000001000000000000004E
:10506000000000000100000001000000000000003E
:10507000000000000000000001000000000000002F
:10508000000000000100000000000000000000001F
:10509000000000000100000000000000000000000F
:1050A0000000000000000000000000000000000000
:1050B00000000000000000000100000001000000EE
:1050C00001000000010000000000000000000000DE
:1050D00000000000000000000000000000000000D0
:1050E00000000000000000000000000000000000C0
:1050F00000000000010000000000000000000000AF
:105100004C696768742031203D2025642020204CA4
:10511000696768742032203D2025640D0A00000074
:1051200002000400200080000002000800100000BF
:10513000000C0140000C0140000801400008014043
:105140000008014000080140000801400203040576
:10515000060708090A0B0C0D0E0F101000000000C6
:105160000000000001020304060708090000000017
:1051700001020304232D302B2000686C4C0065666F
:105180006745464700303132333435363738394198
:1051900042434445460030313233343536373839AE
:0851A0006162636465660000B2
:0451A80031010008C9
:0451AC000D010008E9
:1051B0000200000090010000090000000100000052
:1051C00088130000D0070000B80B000001000000A9
:1051D00001000000010000000024F40010000000A5
:1051E0000100000038000020000000000000000066
:1051F00000000000000000000000000000000000AF
:10520000000000000000000000000000000000009E
:10521000000000000000000000000000000000008E
:10522000000000000000000000000000000000007E
:10523000000000000000000000000000000000006E
:08524000000000000000000066
:0400000508001CB91A
:00000001FF
