:020000040800F2
:1000000000280020E51B0008791500087F1500086E
:10001000851500088B1500089115000800000000E8
:10002000000000000000000000000000971500081C
:10003000A315000800000000AF150008BB1500085C
:100040002D1C00082D1C00082D1C00082D1C00086C
:100050002D1C00082D1C00082D1C00082D1C00085C
:100060002D1C00082D1C00082D1C00082D1C00084C
:100070002D1C00082D1C00082D1C00082D1C00083C
:100080002D1C00082D1C00082D1C00082D1C00082C
:100090002D1C00082D1C00082D1C00082D1C00081C
:1000A0002D1C00082D1C00082D1C00082D1C00080C
:1000B000C91500082D1C0008000000002D1C0008B8
:1000C0002D1C000800000000000000002D1C00088E
:1000D000000000002D1C0008DD15000800000000D5
:1000E0002D1C00082D1C00082D1C0008000000001D
:1000F0000000000000000000000000000000000000
:0C01000000000000000000005FF808F1A3
:10010C0010B5054C237833B9044B13B10448AFF345
:10011C0000800123237010BD980000200000000017
:10012C000847000808B5034B1BB103490348AFF35C
:10013C00008008BD000000009C000020084700085B
:10014C0080B483B000AF01237B6020E0144A7B684D
:10015C00012142F82310134A7B68012142F8231035
:10016C00114A7B68012142F82310104A7B68012157
:10017C0042F823100E4A7B68002142F823100D4AE6
:10018C007B68C82142F823107B6801337B607B6855
:10019C00042BDBDD00BF00BF0C37BD4680BC7047B5
:1001AC00E8000020FC00002038010020D4000020D2
:1001BC00240100201001002080B582B000AF012383
:1001CC007B6099E0514A7B6852F8232050497B6848
:1001DC0041F823204F4A7B6852F823204B497B6817
:1001EC0041F823207B68012B09D102214A4802F0F7
:1001FC00B3F803461946474A7B6842F823107B68DC
:10020C00022B0AD14FF40061444802F0A5F80346D2
:10021C001946404A7B6842F823107B68032B09D1AE
:10022C0001213E4802F098F803461946394A7B688A
:10023C0042F823107B68042B09D10121364802F0C7
:10024C008BF803461946334A7B6842F82310304A30
:10025C007B6852F823202D497B6851F823309A4251
:10026C0047D12A4A7B6852F823202A497B6851F8E7
:10027C0023309A423DD12A4A7B6852F823202549E3
:10028C007B6851F823309A4216D0224A7B6852F888
:10029C00232023497B6841F823201E4A7B6852F8AF
:1002AC002330002B25D1786800F058F81D4A7B6864
:1002BC00C82142F823101CE01A4A7B6852F82330FC
:1002CC005A1E18497B6841F82320164A7B6852F85D
:1002DC002330002B0DD10F4A7B6852F82330002BB2
:1002EC0002D1786800F03AF80E4A7B68C82142F8CF
:1002FC0023107B6801337B607B68042B7FF762AF34
:10030C0000BF00BF0837BD4680BD00BFFC00002009
:10031C00E80000203801002000080140000C0140DA
:10032C00D40000201001002080B483B000AF7860AE
:10033C00094A7B6852F82330002B06D0064A7B68AA
:10034C00002142F82310012300E0002318460C374B
:10035C00BD4680BC704700BF2401002080B483B030
:10036C0000AF7860044A7B68012142F8231000BF7B
:10037C000C37BD4680BC70472401002080B500AF0F
:10038C000120FFF7D1FF0346002B06D0994B032227
:10039C001A60994B01221A602AE1974B1B68012BBA
:1003AC004ED0002B40F32481502B00F32181322BB3
:1003BC00C0F21E81323B1E2B00F21A8101A252F8B0
:1003CC0023F000BFA3040008FD050008FD0500088C
:1003DC00FD050008FD050008FD050008FD050008E9
:1003EC00FD050008FD050008FD050008E7040008F0
:1003FC00FD050008FD050008FD050008FD050008C9
:10040C00FD050008FD050008FD050008FD050008B8
:10041C00FD05000845050008FD050008FD05000860
:10042C00FD050008FD050008FD050008FD05000898
:10043C00FD050008FD050008FD05000887050008FE
:10044C0000F05CFB6D4B4FF4C8721A606A4B3222A1
:10045C001A606B4B1B681946012000F08FFFFA21C4
:10046C00032000F08BFF674B1B68674A82FB03126B
:10047C009211DB17D31A654A1360614B1B68624AF1
:10048C0082FB03129211DB17D31A614A1360614B82
:10049C0001221A60ACE0002000F07CFB002000F090
:1004AC00F1FB5D4B5B68012B40F09B80524B3C2277
:1004BC001A605A4B1B681946012000F05FFF584B1D
:1004CC0000221A60554B1B684F4A82FB0312921193
:1004DC00DB17D31A4E4A136083E0002000F05AFB5E
:1004EC00002000F0EDFB4C4B5B68012B7BD1424BA9
:1004FC0046221A60424B1B681946012000F03EFF51
:10050C00474B00221A603E4B1B683F4A82FB03128A
:10051C009211DB17D31A3D4A13603A4B1B683A4AC7
:10052C0082FB03129211DB17D31A394A1360334B37
:10053C004FF4C8721A6056E0002000F049FB00200E
:10054C0000F082FB344B5B68012B4ED12A4B5022BE
:10055C001A60324B1B681946012000F00FFF304B1C
:10056C0000221A602D4B1B68274A82FB0312921142
:10057C00DB17D31A254A136037E0002000F046FB46
:10058C00002000F061FB244B5B68012B2FD11A4B30
:10059C0032221A601A4B1B681946012000F0EEFE3D
:1005AC001F4B00221A60174B1B68174A82FB031261
:1005BC009211DB17D31A154A1360114B1B68124AA0
:1005CC0082FB03129211DB17D31A114A13600B4BE7
:1005DC001B68B3F5167F0AD1084B4FF4FA721A60F8
:1005EC0005E000BF04E000BF02E000BF00E000BF78
:1005FC0080BD00BF000000200C0000200400002083
:10060C001800002010000020D34D62101C000020A8
:10061C0020000020240000202802002014000020CC
:10062C00C000002080B500AFA44B5B68012B05D146
:10063C00A34B02221A60A34B01221A609F4B9B68AA
:10064C00012B0AD1A04B1B68C3F101039E4A136016
:10065C004FF4FA71022000F091FE9A4B1B68013B9B
:10066C00032B00F29E8101A252F823F089060008A8
:10067C00DD060008CD07000801090008914B022295
:10068C001A60924B1B68924A1360904B1B68914AFC
:10069C0082FB03129211DB17D31A8F4A1360894B1A
:1006AC001B688E4A13608E4B00221A6041F288310F
:1006BC00012000F063FE4FF4FA71022000F05EFEA0
:1006CC00FA21032000F05AFE864B01221A606FE1DA
:1006DC007D4B1B68184600F05DFA7B4B1B68184677
:1006EC0000F0B2FA0120FFF71FFE0346002B28D0C2
:1006FC00744B03221A607C4B1B68754A13607A4B4F
:10070C001B68744A82FB03129211DB17D31A724ACC
:10071C0013606C4B1B68714A1360714B00221A609A
:10072C0041F28831012000F029FE4FF4FA710220C9
:10073C0000F024FEFA21032000F020FE694B012278
:10074C001A600220FFF7F0FD0346012B13D1604B1A
:10075C001B6803F57A735E4A13605D4B1B68634A32
:10076C00934203DD5A4B4FF47A721A6041F288318E
:10077C00012000F003FE0320FFF7D6FD0346012BFA
:10078C0040F01181524B1B68504A13604F4B1A6852
:10079C00554B1B68D31A564A136041F2883101201D
:1007AC0000F0ECFD494B1B684A4A82FB0312921184
:1007BC00DB17D31A484A13604A4B01221A60F2E045
:1007CC00414B1B68184600F021FA3F4B1B6818463A
:1007DC0000F076FA0120FFF7A7FD0346002B2ED080
:1007EC00384B04221A60424B1B683A4A82FB0312B4
:1007FC009211DB17D31A364A13603D4B1B68354AEE
:10080C0082FB03129211DB17D31A334A13602D4B60
:10081C001B68324A1360324B00221A6041F2883155
:10082C00012000F0ABFD4FF4FA71022000F0A6FDA0
:10083C00FA21032000F0A2FD2A4B01221A600220AB
:10084C00FFF772FD0346012B13D1214B1B6803F5F7
:10085C007A731F4A13601E4B1B68244A934203DDB4
:10086C001B4B4FF47A721A6041F28831012000F070
:10087C0085FD0320FFF758FD0346012B40F09580C2
:10088C00134B1B68184A1360174B1A68184B1B68DC
:10089C0013440E4A136041F28831012000F06EFDC2
:1008AC00114B1B680B4A82FB03129211DB17D31AF4
:1008BC00094A13600B4B01221A6076E028020020D3
:1008CC00000000200C000020B400002010000020CC
:1008DC00B8000020D34D62101C0000202000002026
:1008EC00C00000202400002014000020B882010069
:1008FC00180000202F4B1B68184600F069F92D4B8F
:10090C001B68184600F0BEF90120FFF70DFD0346E9
:10091C00002B08D0284B02221A60284B01221A60A7
:10092C00274B00221A600220FFF7FEFC0346012B26
:10093C0013D1244B1B6803F57A73224A1360214BA5
:10094C001B68214A934203DD1E4B4FF47A721A60E6
:10095C0041F28831012000F011FD0320FFF7E4FC87
:10096C000346012B23D1174B1B68184A1360184BF5
:10097C001A68164B1B681344164A136041F28831EF
:10098C00012000F0FBFC114B1B68134A82FB031285
:10099C009211DB17D31A114A1360114B01221A6002
:1009AC0005E000BF04E000BF02E000BF00E000BFB4
:1009BC0000BF80BDB4000020000000200C0000200F
:1009CC00C0000020B8000020B882010018000020F0
:1009DC001400002010000020D34D62101C000020D9
:1009EC002400002080B500AF01224FF4806105483F
:1009FC0001F0C9FC00224FF48071034801F0C3FCE4
:100A0C0000BF80BD000C01400008014080B500AF64
:100A1C0000224FF48061054801F0B5FC01224FF42F
:100A2C008071034801F0AFFC00BF80BD000C014099
:100A3C000008014080B500AF01224FF480610548E9
:100A4C0001F0A1FC01224FF48071034801F09BFCE2
:100A5C0000BF80BD000C01400008014080B500AF14
:100A6C00234B1B68B3F5167F3CD0B3F5167F3DDCEA
:100A7C00B3F5C87F03D0B3F5FA7F2DD036E0FFF77E
:100A8C00D9FF1C4B09221A600420FFF74DFC0346CA
:100A9C00002B2AD0FFF7BAFF174B1B683C2B03D057
:100AAC00154B1B68322B04D1114B4FF4FA721A60A0
:100ABC0011E0114B1B68462B03D00F4B1B68502BBE
:100ACC0004D10B4B4FF416721A6004E0084B4FF430
:100ADC00C8721A6009E008E0FFF798FF054B07227F
:100AEC001A6003E0FFF77EFF00E000BF00BF80BD8F
:100AFC0004000020080000200C00002080B500AF8E
:100B0C00204B00221A60204B01221A6001224FF464
:100B1C0000511E4801F037FC01224FF400411B48E4
:100B2C0001F031FC01224FF48041184801F02BFCFC
:100B3C0001224FF40051164801F025FC01224FF41C
:100B4C000041134801F01FFC01224FF48041104872
:100B5C0001F019FC012240210C4801F014FC012287
:100B6C0080210A4801F00FFC01224FF480710748E4
:100B7C0001F009FC01224FF40071044801F003FC60
:100B8C0000BF80BDB80000200C000020000C01400C
:100B9C000008014080B582B000AF78607B68DBB2A2
:100BAC001A464FF40051094801F0EDFB01224FF4B5
:100BBC000041064801F0E7FB01224FF48041034855
:100BCC0001F0E1FB00BF0837BD4680BD000C0140C1
:100BDC0080B582B000AF786001224FF400510A4812
:100BEC0001F0D1FB7B68DBB21A464FF4004106489A
:100BFC0001F0C9FB01224FF48041034801F0C3FB13
:100C0C0000BF0837BD4680BD000C014080B582B0E6
:100C1C0000AF786001224FF400510A4801F0B3FB99
:100C2C0001224FF40041074801F0ADFB7B68DBB2B9
:100C3C001A464FF48041034801F0A5FB00BF08376A
:100C4C00BD4680BD000C014080B582B000AF78601D
:100C5C007B68DBB21A464FF40051094801F093FB54
:100C6C0001224FF40041064801F08DFB01224FF4A4
:100C7C008041034801F087FB00BF0837BD4680BDAB
:100C8C000008014080B582B000AF786001224FF4BB
:100C9C0000510A4801F077FB7B68DBB21A464FF42F
:100CAC000041064801F06FFB01224FF480410348DC
:100CBC0001F069FB00BF0837BD4680BD000801404C
:100CCC0080B582B000AF786001224FF400510A4821
:100CDC0001F059FB01224FF40041074801F053FB8E
:100CEC007B68DBB21A464FF48041034801F04BFBA2
:100CFC0000BF0837BD4680BD0008014090B5CDB09F
:100D0C0000AF07F10C03186007F1080319603B1DD5
:100D1C001A6007F114031E4A184611464FF48C73DF
:100D2C001A4603F0A9F80023C7F82C3125E0D7F8B0
:100D3C002C319B0007F10802126813441868D7F88D
:100D4C002C315B003A1D126813441C8807F1140106
:100D5C0007F10C031A681346DB009B1AD7F82C21F9
:100D6C00134451F82330DBB21A46214601F00BFB39
:100D7C00D7F82C310133C7F82C31D7F82C31062B8E
:100D8C00D5DD00BF00BF07F59A77BD4690BD00BF0B
:100D9C0020470008B0B58CB000AF864B07F120049B
:100DAC000FCB07C42380844B3C1D1D460FCD0FC4B5
:100DBC0095E8070084E80700804B1B68013B032B78
:100DCC0000F2E98001A252F823F000BFE90D0008FF
:100DDC004B0E0008B70E0008170F00080022402128
:100DEC00774801F0D0FA01228021754801F0CBFA46
:100DFC0001224FF48071724801F0C5FA01224FF4C0
:100E0C0000716F4801F0BFFA6E4B1B686E4A82FB93
:100E1C0003129210DB17D31A07F12002391D184662
:100E2C00FFF76CFF694BDB68012B40F0B880634B1C
:100E3C0002221A60FA21032000F0A0FAAFE001228E
:100E4C0040215F4801F09FFA002280215C4801F0AC
:100E5C009AFA01224FF48071594801F094FA012258
:100E6C004FF40071564801F08EFA564B1A68564BE7
:100E7C0083FB02139910D317C81A03469B00034433
:100E8C005B00D01A07F120023B1D1946FFF736FF15
:100E9C004E4BDB68012B40F08480484B03221A60D8
:100EAC00FA21032000F06AFA7BE001224021444839
:100EBC0001F069FA01228021414801F064FA002214
:100ECC004FF480713E4801F05EFA01224FF400713C
:100EDC003B4801F058FA3E4B1B683B4A82FB03121D
:100EEC009210DB17D31A07F12002391D1846FFF7B1
:100EFC0005FF364BDB68012B55D1304B04221A60B1
:100F0C00FA21032000F03AFA4DE0012240212C484E
:100F1C0001F039FA01228021294801F034FA01222A
:100F2C004FF48071264801F02EFA00224FF4007124
:100F3C00234801F028FA264B1A68234B83FB021333
:100F4C009910D317C81A03469B0003445B00D01AB0
:100F5C0007F120023B1D1946FFF7D0FE1B4BDB6847
:100F6C00012B22D1154B01221A601A4B1B68022B44
:100F7C000CD1194B00221A60124B1B68013B114A11
:100F8C001360134B1B68013B114A1360FA210320B9
:100F9C0000F0F4F909E0094B01221A6006E000BFE9
:100FAC0004E000BF02E000BF00E000BF00BF30372C
:100FBC00BD46B0BD38480008484800082400002051
:100FCC00000C01401C0000206766666628020020A9
:100FDC002000002000000020C400002080B582B05A
:100FEC0000AF78607B681B68134A93421FD1134B88
:100FFC001B785A1CD1B2114A11701A46104B197831
:10100C00104B99540D4B1B781E2B02D10B4B00220D
:10101C001A700D4B01221A703223012208490B4819
:10102C0002F015FA01220649084802F0A2FA00BFA4
:10103C000837BD4680BD00BF00440040BD00002005
:10104C00BC0000204C010020BE000020D401002078
:10105C00F0B58FB00EAF00F0E5FD00F05BF800F0DE
:10106C0095F800F009F900F0DDF8234801F00EFEC8
:10107C0001222249224802F07CFAFFF761F8012292
:10108C004FF480611F4801F07EF901224FF480710A
:10109C001D4801F078F91D4B1B78012B02D11B4B1D
:1010AC0000221A70164E6D4606F110040FCC0FC5B7
:1010BC000FCC0FC50FCC0FC523682B6096E80F0023
:1010CC0000F0CCFAFFF7CAFC114B1B68022B02D1C3
:1010DC00FFF754F905E00E4B1B68032B01D1FFF70A
:1010EC00A1FA0A4B1B78012B02D1084B00221A7073
:1010FC00FFF750FECFE700BF8C010020BC000020A2
:10110C00D4010020000C014000080140BE0000206A
:10111C000000002080B590B000AF07F11803282222
:10112C000021184602F0B6FE3B1D00221A605A60E0
:10113C009A60DA601A610223BB610123BB6210233F
:10114C00FB6200237B6307F11803184601F034F9A6
:10115C000346002B01D000F00BF90F237B6000231A
:10116C00BB600023FB6000233B6100237B613B1DC4
:10117C000021184601F0A0FB0346002B01D000F023
:10118C00F7F800BF4037BD4680BD000080B586B083
:10119C0000AF07F1080300221A605A609A60DA6007
:1011AC003B4600221A605A601D4B4FF080421A6079
:1011BC001B4B41F63F725A60194B00229A60184B38
:1011CC000922DA60164B00221A61154B00229A6133
:1011DC00134801F00BFD0346002B01D000F0C8F8BA
:1011EC004FF48053BB6007F1080319460C4801F01B
:1011FC00A1FE0346002B01D000F0BAF800233B609F
:10120C0000237B603B461946054802F069F803460B
:10121C00002B01D000F0ACF800BF1837BD4680BDE4
:10122C008C01002080B500AF114B124A1A60104B94
:10123C004FF416525A600E4B00229A600C4B00224F
:10124C00DA600B4B00221A61094B0C225A61084BD5
:10125C0000229A61064B0022DA61054802F0AAF8D6
:10126C000346002B01D000F083F800BF80BD00BF07
:10127C00D40100200044004080B586B000AF07F1D7
:10128C00080300221A605A609A60DA602F4B9B693F
:10129C002E4A43F0040393612C4B9B6903F0040327
:1012AC007B607B68294B9B69284A43F00803936158
:1012BC00264B9B6903F008033B603B6800224FF60A
:1012CC00E071234801F05FF800224EF2FE712148D4
:1012DC0001F059F81323BB600023FB6001233B6131
:1012EC0007F1080319461A4800F0BCFE4FF6E073EC
:1012FC00BB600123FB6000233B6102237B6107F190
:10130C0008031946124800F0ADFE40F60103BB601D
:10131C000023FB6001233B6107F1080319460D48CC
:10132C0000F0A0FE4EF2FE73BB600123FB600023B5
:10133C003B6102237B6107F108031946054800F065
:10134C0091FE00BF1837BD4680BD00BF00100240A3
:10135C0000080140000C014080B582B000AF7860FD
:10136C0000F02CF8FEF728FF00BF0837BD4680BD03
:10137C0080B400AF72B600BFFEE7000080B483B04B
:10138C0000AF786039603B68094A82FB0312921007
:10139C00DB17D21A07497B6841F82320064A7B6881
:1013AC00002142F8231000BF0C37BD4680BC7047AB
:1013BC0067666666180200202802002080B483B09D
:1013CC0000AF01237B601CE0124A7B6852F823308B
:1013DC00002B13DD0F4A7B6852F823305A1E0D493F
:1013EC007B6841F823200B4A7B6852F82330002B92
:1013FC0004DC094A7B68012142F823107B68013325
:10140C007B607B68032BDFDD00BF00BF0C37BD4664
:10141C0080BC7047180200202802002080B485B0E0
:10142C0000AF154B9B69144A43F001039361124BB7
:10143C009B6903F00103BB60BB680F4BDB690E4A71
:10144C0043F08053D3610C4BDB6903F080537B601A
:10145C007B680A4B5B68FB60FB6823F0E063FB6016
:10146C00FB6843F08063FB60044AFB68536000BF79
:10147C001437BD4680BC704700100240000001408C
:10148C0080B584B000AF78607B681B68B3F1804F87
:10149C0013D10C4BDB690B4A43F00103D361094BAD
:1014AC00DB6903F00103FB60FB68002200211C20B8
:1014BC0000F0F1FC1C2000F00AFD00BF1037BD4607
:1014CC0080BD00BF0010024080B588B000AF7860CE
:1014DC0007F1100300221A605A609A60DA607B6888
:1014EC001B681F4A934237D11E4BDB691D4A43F4DC
:1014FC000033D3611B4BDB6903F40033FB60FB68E7
:10150C00184B9B69174A43F004039361154B9B6975
:10151C0003F00403BB60BB6804233B6102237B61C3
:10152C000323FB6107F1100319460F4800F09AFDE5
:10153C0008233B6100237B610023BB6107F110038F
:10154C001946094800F08EFD00220021262000F0EB
:10155C00A2FC262000F0BBFC00BF2037BD4680BD9E
:10156C0000440040001002400008014080B400AF6D
:10157C00FEE780B400AFFEE780B400AFFEE780B4B6
:10158C0000AFFEE780B400AFFEE780B400AF00BF51
:10159C00BD4680BC704780B400AF00BFBD4680BC68
:1015AC00704780B400AF00BFBD4680BC704780B5AB
:1015BC0000AF00F07DFB00BF80BD000080B500AF28
:1015CC00024801F0AFFB00BF80BD00BF8C010020C2
:1015DC0080B500AF024801F0FDFF00BF80BD00BF29
:1015EC00D401002080B586B000AF7860144A154B4A
:1015FC00D31A7B617B693B61134B1B68002B02D1B7
:10160C00114B124A1A60104B1A687B6813443A69E2
:10161C009A4207D202F006FC03460C221A604FF0E5
:10162C00FF3309E0084B1B68FB60074B1A687B68AB
:10163C001344054A1360FB6818461837BD4680BD35
:10164C000028002000040000C800002050020020E8
:10165C0080B400AF00BFBD4680BC704784B080B57D
:10166C0000AF07F1080C8CE80F009D4B1B68042B96
:10167C0058DC002B46DC7DE2323B1E2B00F27A82DA
:10168C0001A252F823F000BF7D170008811B00084F
:10169C00811B0008811B0008811B0008811B0008AE
:1016AC00811B0008811B0008811B0008811B00089E
:1016BC00D9170008811B0008811B0008811B00083A
:1016CC00811B0008811B0008811B0008811B00087E
:1016DC00811B0008811B000835180008811B0008BD
:1016EC00811B0008811B0008811B0008811B00085E
:1016FC00811B0008811B0008811B0008811B00084E
:10170C0091180008013B032B00F2348201A252F81D
:10171C0023F000BF3D17000825190008EF19000839
:10172C00B91A0008502B00F32582322BA4DA21E2DF
:10173C006C4B1B68022B0DD16B496C4802F0B2FB51
:10174C0003469AB24FF47A73684907F1080001F026
:10175C007EFE1EE26649654802F0A4FB03469AB27F
:10176C004FF47A73614907F1080001F070FE10E242
:10177C00604B1B68002B0FD15E4B01221A605E4937
:10178C005A4802F08FFB03469AB24FF47A735749CA
:10179C0007F1080001F05BFE584B1B68002B40F072
:1017AC00EB81564B01221A60554B1A68554B1B683E
:1017BC0055494E4802F076FB03469AB24FF47A73C1
:1017CC004A4907F1080001F042FED5E1494B1B687C
:1017DC00002B0FD1474B01221A604C49434802F0B1
:1017EC0061FB03469AB24FF47A73404907F1080043
:1017FC0001F02DFE414B1B68002B40F0BF813F4B8D
:10180C0001221A603E4B1A683E4B1B683E49374812
:10181C0002F048FB03469AB24FF47A73334907F14E
:10182C00080001F014FEA9E1324B1B68002B0FD10C
:10183C00304B01221A6036492C4802F033FB034628
:10184C009AB24FF47A73294907F1080001F0FFFDB1
:10185C002A4B1B68002B40F09381284B01221A6005
:10186C00274B1A68274B1B682749204802F01AFBA4
:10187C0003469AB24FF47A731C4907F1080001F041
:10188C00E6FD7DE11B4B1B68002B0FD1194B012290
:10189C001A602049154802F005FB03469AB24FF432
:1018AC007A73124907F1080001F0D1FD134B1B6844
:1018BC00002B40F06781114B01221A60104B1A6803
:1018CC00104B1B681049094802F0ECFA03469AB217
:1018DC004FF47A73054907F1080001F0B8FD51E1A6
:1018EC000C00002000000020644800086C0100205F
:1018FC007C480008C000002090480008C40000206C
:10190C001C00002020000020A0480008C04800084F
:10191C00D0480008E0480008A14B1B68002B1FD1E1
:10192C009F4B01221A609F499F4802F0BBFA034665
:10193C009AB24FF47A739C4907F1080001F087FDC5
:10194C009A4B1B681A469A49974802F0ABFA034621
:10195C009AB24FF47A73944907F1080001F077FDBD
:10196C000220FEF7E1FC0346012B15D1914B1B68BD
:10197C00914A82FB03129211DB17D31A1A468F4934
:10198C00894802F08FFA03469AB24FF47A7386496B
:10199C0007F1080001F05BFD0320FEF7C5FC0346D0
:1019AC00012B40F0F18086497F4802F07BFA034618
:1019BC009AB24FF47A737C4907F1080001F047FDA5
:1019CC007A4B1B681A467F49774802F06BFA03463C
:1019DC009AB24FF47A73744907F1080001F037FD9D
:1019EC00D2E06F4B1B68002B1FD16D4B01221A608C
:1019FC0075496D4802F056FA03469AB24FF47A7361
:101A0C00694907F1080001F022FD684B1B681A4672
:101A1C006749654802F046FA03469AB24FF47A7366
:101A2C00614907F1080001F012FD0220FEF77CFC71
:101A3C000346012B15D15F4B1B685F4A82FB0312D7
:101A4C009211DB17D31A1A465C49574802F02AFA4E
:101A5C0003469AB24FF47A73534907F1080001F028
:101A6C00F6FC0320FEF760FC0346012B40F08E8051
:101A7C0053494D4802F016FA03469AB24FF47A7362
:101A8C00494907F1080001F0E2FC484B1B681A4673
:101A9C004E49454802F006FA03469AB24FF47A735F
:101AAC00414907F1080001F0D2FC6FE03C4B1B6888
:101ABC00002B1FD13A4B01221A6045493A4802F0DB
:101ACC00F1F903469AB24FF47A73374907F10800DB
:101ADC0001F0BDFC354B1B681A463549324802F003
:101AEC00E1F903469AB24FF47A732F4907F10800D3
:101AFC0001F0ADFC0220FEF717FC0346012B15D1BB
:101B0C002C4B1B682C4A82FB03129211DB17D31A45
:101B1C001A462A49244802F0C5F903469AB24FF4F2
:101B2C007A73214907F1080001F091FC0320FEF7BC
:101B3C00FBFB0346012B2BD121491B4802F0B2F9C8
:101B4C0003469AB24FF47A73174907F1080001F073
:101B5C007EFC164B1B681A461E49134802F0A2F96C
:101B6C0003469AB24FF47A730F4907F1080001F05B
:101B7C006EFC0DE000BF0CE000BF0AE000BF08E007
:101B8C0000BF06E000BF04E000BF02E000BF00E0C1
:101B9C0000BF00BFBD46BDE8804004B0704700BF29
:101BAC00C0000020F04800086C0100201C00002040
:101BBC0008490008B8000020D34D62101C490008E9
:101BCC003049000840490008544900087049000891
:101BDC0088490008A44900080C480D490D4A002307
:101BEC0002E0D458C4500433C4188C42F9D30A4AC6
:101BFC000A4C002301E013600432A242FBD3FFF72E
:101C0C0027FD02F015F9FFF723FA704700000020BA
:101C1C0098000020204A0008980000204C02002068
:101C2C00FEE7000080B500AF084B1B68074A43F085
:101C3C0010031360032000F023F90F2000F008F8C4
:101C4C00FFF7ECFB0023184680BD00BF00200240CC
:101C5C0080B582B000AF7860124B1A68124B1B78BB
:101C6C0019464FF47A73B3FBF1F3B2FBF3F3184656
:101C7C0000F03BF90346002B01D001230EE07B68FA
:101C8C000F2B0AD8002279684FF0FF3000F003F9CF
:101C9C00064A7B681360002300E0012318460837CE
:101CAC00BD4680BD28000020300000202C00002004
:101CBC0080B400AF054B1B781A46054B1B681344C8
:101CCC00034A136000BFBD4680BC70473000002043
:101CDC003802002080B400AF024B1B681846BD468A
:101CEC0080BC70473802002080B485B000AF7860AB
:101CFC007B6803F00703FB600C4BDB68BB60BA68C6
:101D0C004FF6FF031340BB60FB681A02BB6813431A
:101D1C0043F0BF6343F40033BB60044ABB68D36039
:101D2C0000BF1437BD4680BC704700BF00ED00E01B
:101D3C0080B400AF044BDB681B0A03F007031846A2
:101D4C00BD4680BC704700BF00ED00E080B483B09E
:101D5C0000AF0346FB7197F90730002B0BDBFB79C7
:101D6C0003F01F02064997F907305B09012000FABE
:101D7C0002F241F8232000BF0C37BD4680BC7047EF
:101D8C0000E100E080B483B000AF03463960FB7122
:101D9C0097F90730002B0ADB3B68DAB20C4997F94C
:101DAC0007301201D2B20B4483F800230AE03B68DF
:101DBC00DAB20849FB7903F00F03043B1201D2B2EB
:101DCC000B441A7600BF0C37BD4680BC704700BF71
:101DDC0000E100E000ED00E080B489B000AFF860F5
:101DEC00B9607A60FB6803F00703FB61FB69C3F120
:101DFC000703042B28BF0423BB61FB690433062BA8
:101E0C0002D9FB69033B00E000237B614FF0FF32FA
:101E1C00BB6902FA03F3DA43BB681A407B699A4048
:101E2C004FF0FF317B6901FA03F3D9437B680B4018
:101E3C00134318462437BD4680BC704780B582B02A
:101E4C0000AF78607B68013BB3F1807F01D3012345
:101E5C000FE00A4A7B68013B53600F214FF0FF30C3
:101E6C00FFF790FF054B00229A60044B07221A6083
:101E7C00002318460837BD4680BD00BF10E000E0C7
:101E8C0080B582B000AF78607868FFF72DFF00BF97
:101E9C000837BD4680BD80B586B000AF0346B9603B
:101EAC007A60FB7300237B61FFF742FF78617A68ED
:101EBC00B9687869FFF790FF024697F90F30114621
:101ECC001846FFF75FFF00BF1837BD4680BD80B5D1
:101EDC0082B000AF0346FB7197F907301846FFF745
:101EEC0035FF00BF0837BD4680BD80B582B000AF5E
:101EFC0078607868FFF7A2FF034618460837BD469E
:101F0C0080BD80B485B000AF78600023FB737B6824
:101F1C0093F82130022B08D07B6804229A637B68EB
:101F2C00002283F82020012320E07B681B681A68BC
:101F3C007B681B6822F00E021A607B681B681A68AB
:101F4C007B681B6822F001021A607B681A6C7B6844
:101F5C00DB6B012101FA02F25A607B68012283F8E3
:101F6C0021207B68002283F82020FB7B1846143745
:101F7C00BD4680BC7047000080B584B000AF78606F
:101F8C000023FB737B6893F82130022B05D07B6810
:101F9C0004229A630123FB7351E07B681B681A6867
:101FAC007B681B6822F00E021A607B681B681A683B
:101FBC007B681B6822F001021A607B681B68224A4E
:101FCC00934229D07B681B68204A934222D07B68BD
:101FDC001B681F4A93421AD07B681B681D4A9342A8
:101FEC0012D07B681B681C4A93420AD07B681B6822
:101FFC001A4A934202D14FF480130EE04FF08073D3
:10200C000BE04FF4803308E04FF4805305E04FF4BD
:10201C00807302E0102300E00123114A53607B68B7
:10202C00012283F821207B68002283F820207B6822
:10203C005B6B002B03D07B685B6B78689847FB7BF2
:10204C0018461037BD4680BD080002401C000240F7
:10205C003000024044000240580002406C00024034
:10206C000000024080B48BB000AF78603960002370
:10207C007B6200233B6248E101227B6A02FA03F394
:10208C00FB613B681B68FA691340BB61BA69FB6969
:10209C009A4240F037813B685B68A34A93425ED01A
:1020AC00A14A934275D8A14A934258D09F4A934271
:1020BC006FD89F4A934252D09D4A934269D89D4A09
:1020CC0093424CD09B4A934263D89B4A934246D04E
:1020DC00994A93425DD8122B2AD8122B59D801A2B7
:1020EC0052F823F06B210008452100085721000805
:1020FC00992100089F2100089F2100089F210008BA
:10210C009F2100089F2100089F2100089F210008A3
:10211C009F2100089F2100089F2100089F21000893
:10212C009F2100089F2100084D2100086121000813
:10213C00824A934213D02CE03B68DB683B6229E077
:10214C003B68DB6804333B6224E03B68DB680833A4
:10215C003B621FE03B68DB680C333B621AE03B6878
:10216C009B68002B02D104233B6213E03B689B6805
:10217C00012B05D108233B627B68FA691A6109E0DF
:10218C0008233B627B68FA695A6103E000233B62D7
:10219C0000E000BFBB69FF2B01D87B6801E07B68C6
:1021AC0004337B61BB69FF2B02D87B6A9B0002E086
:1021BC007B6A083B9B003B617B691A680F213B697A
:1021CC0001FA03F3DB431A40396A3B6901FA03F362
:1021DC001A437B691A603B685B6803F08053002BE1
:1021EC0000F09080564B9B69554A43F00103936174
:1021FC00534B9B6903F00103BB60BB68514A7B6A7C
:10220C009B08023352F82330FB607B6A03F0030314
:10221C009B000F2202FA03F3DB43FA681340FB60C6
:10222C007B68494A93420DD07B68484A934207D059
:10223C007B68474A934201D1022304E0032302E066
:10224C00012300E000237A6A02F00302920093401B
:10225C00FA681343FB603B497B6A9B080233FA68BC
:10226C0041F823203B685B6803F48033002B06D0D5
:10227C00384B1A683749BB6913430B6006E0354B82
:10228C001A68BB69DB43334913400B603B685B68DE
:10229C0003F40033002B06D02E4B5A682D49BB6932
:1022AC0013434B6006E02B4B5A68BB69DB4329494F
:1022BC0013404B603B685B6803F48013002B06D023
:1022CC00244B9A682349BB6913438B6006E0214B6E
:1022DC009A68BB69DB431F4913408B603B685B68A2
:1022EC0003F40013002B06D01A4BDA681949BB69AA
:1022FC001343CB6006E0174BDA68BB69DB43154927
:10230C001340CB607B6A01337B623B681A687B6A43
:10231C0022FA03F3002B7FF4AFAE00BF00BF2C37C3
:10232C00BD4680BC704700BF000032100000311069
:10233C0000002210000021100000121000001110EB
:10234C00001002400000014000080140000C014058
:10235C00001001400004014080B485B000AF7860EB
:10236C000B467B807B689A687B881340002B02D0DD
:10237C000123FB7301E00023FB73FB7B184614372E
:10238C00BD4680BC704780B483B000AF78600B460C
:10239C007B8013467B707B78002B03D07A887B681C
:1023AC001A6103E07B881A047B681A6100BF0C3742
:1023BC00BD4680BC7047000080B586B000AF786029
:1023CC007B68002B01D101236CE27B681B6803F056
:1023DC000103002B00F08780924B5B6803F00C0329
:1023EC00042B0CD08F4B5B6803F00C03082B12D121
:1023FC008C4B5B6803F48033B3F5803F0BD1894B76
:10240C001B6803F40033002B6CD07B685B68002BDB
:10241C0068D1012346E27B685B68B3F5803F06D147
:10242C00804B1B687F4A43F4803313602EE07B683B
:10243C005B68002B0CD17B4B1B687A4A23F48033EE
:10244C001360784B1B68774A23F4802313601DE0DC
:10245C007B685B68B3F5A02F0CD1724B1B68714A7B
:10246C0043F4802313606F4B1B686E4A43F4803334
:10247C0013600BE06B4B1B686A4A23F480331360C8
:10248C00684B1B68674A23F4802313607B685B6886
:10249C00002B13D0FFF71EFC386108E0FFF71AFC85
:1024AC0002463B69D31A642B01D90323FAE15D4B35
:1024BC001B6803F40033002BF0D014E0FFF70AFC88
:1024CC00386108E0FFF706FC02463B69D31A642B1F
:1024DC0001D90323E6E1534B1B6803F40033002BB3
:1024EC00F0D100E000BF7B681B6803F00203002BF7
:1024FC0063D04C4B5B6803F00C03002B0BD0494BA7
:10250C005B6803F00C03082B1CD1464B5B6803F48F
:10251C008033002B16D1434B1B6803F00203002BB6
:10252C0005D07B681B69012B01D00123BAE13D4B1F
:10253C001B6823F0F8027B685B69DB0039491343A5
:10254C000B603AE07B681B69002B20D0364B0122D4
:10255C001A60FFF7BFFB386108E0FFF7BBFB0246D0
:10256C003B69D31A022B01D903239BE12D4B1B682A
:10257C0003F00203002BF0D02A4B1B6823F0F80267
:10258C007B685B69DB00274913430B6015E0264B26
:10259C0000221A60FFF79EFB386108E0FFF79AFBF8
:1025AC0002463B69D31A022B01D903237AE11D4B56
:1025BC001B6803F00203002BF0D17B681B6803F04F
:1025CC000803002B3AD07B689B69002B19D0174B62
:1025DC0001221A60FFF77EFB386108E0FFF77AFBF7
:1025EC0002463B69D31A022B01D903235AE10D4B46
:1025FC005B6A03F00203002BF0D0012000F0D8FA44
:10260C001CE00A4B00221A60FFF764FB38610FE0F4
:10261C00FFF760FB02463B69D31A022B08D9032350
:10262C0040E100BF001002400000424280044242E0
:10263C009E4B5B6A03F00203002BE9D17B681B689D
:10264C0003F00403002B00F0A6800023FB75974BCE
:10265C00DB6903F08053002B0DD1944BDB69934A5B
:10266C0043F08053D361914BDB6903F08053BB6023
:10267C00BB680123FB758E4B1B6803F48073002B26
:10268C0018D18B4B1B688A4A43F480731360FFF795
:10269C0021FB386108E0FFF71DFB02463B69D31AAA
:1026AC00642B01D90323FDE0814B1B6803F4807379
:1026BC00002BF0D07B68DB68012B06D17B4B1B6AAF
:1026CC007A4A43F0010313622DE07B68DB68002B30
:1026DC000CD1764B1B6A754A23F001031362734BC2
:1026EC001B6A724A23F0040313621CE07B68DB68EC
:1026FC00052B0CD16D4B1B6A6C4A43F0040313621F
:10270C006A4B1B6A694A43F0010313620BE0674B87
:10271C001B6A664A23F001031362644B1B6A634A0B
:10272C0023F0040313627B68DB68002B15D0FFF7E2
:10273C00D1FA38610AE0FFF7CDFA02463B69D31AA9
:10274C0041F28832934201D90323ABE0574B1B6A09
:10275C0003F00203002BEED014E0FFF7BBFA386154
:10276C000AE0FFF7B7FA02463B69D31A41F2883206
:10277C00934201D9032395E04C4B1B6A03F00203EF
:10278C00002BEED1FB7D012B05D1484BDB69474A71
:10279C0023F08053D3617B68DB69002B00F08180D0
:1027AC00424B5B6803F00C03082B61D07B68DB6940
:1027BC00022B46D13F4B00221A60FFF78BFA38618F
:1027CC0008E0FFF787FA02463B69D31A022B01D9BE
:1027DC00032367E0354B1B6803F00073002BF0D12B
:1027EC007B681B6AB3F5803F08D1304B5B6823F4E0
:1027FC0000327B689B682D4913434B602B4B5B6805
:10280C0023F474127B68196A7B685B6A0B43274953
:10281C0013434B60274B01221A60FFF75BFA3861B8
:10282C0008E0FFF757FA02463B69D31A022B01D98D
:10283C00032337E01D4B1B6803F00073002BF0D013
:10284C002FE01C4B00221A60FFF744FA386108E0B5
:10285C00FFF740FA02463B69D31A022B01D9032336
:10286C0020E0124B1B6803F00073002BF0D118E032
:10287C007B68DB69012B01D1012313E00B4B5B68F7
:10288C00FB60FB6803F480327B681B6A9A4206D1BA
:10289C00FB6803F470127B685B6A9A4201D00123D7
:1028AC0000E0002318461837BD4680BD00100240DA
:1028BC00007000406000424280B584B000AF786088
:1028CC0039607B68002B01D10123D0E06A4B1B6877
:1028DC0003F007033A689A4210D9674B1B6823F040
:1028EC00070265493B6813430B60634B1B6803F09D
:1028FC0007033A689A4201D00123B8E07B681B6851
:10290C0003F00203002B20D07B681B6803F0040348
:10291C00002B05D0594B5B68584A43F4E063536075
:10292C007B681B6803F00803002B05D0534B5B68D6
:10293C00524A43F460535360504B5B6823F0F002EF
:10294C007B689B684D4913434B607B681B6803F0A5
:10295C000103002B40D07B685B68012B07D1474BF0
:10296C001B6803F40033002B15D101237FE07B6837
:10297C005B68022B07D1414B1B6803F00073002BE3
:10298C0009D1012373E03D4B1B6803F00203002BBC
:10299C0001D101236BE0394B5B6823F003027B68A8
:1029AC005B68364913434B60FFF794F9F8600AE013
:1029BC00FFF790F90246FB68D31A41F28832934232
:1029CC0001D9032353E02D4B5B6803F00C027B68A9
:1029DC005B689B009A42EBD1274B1B6803F0070303
:1029EC003A689A4210D2244B1B6823F00702224902
:1029FC003B6813430B60204B1B6803F007033A68DA
:102A0C009A4201D0012332E07B681B6803F0040377
:102A1C00002B08D0194B5B6823F4E0627B68DB6801
:102A2C00164913434B607B681B6803F00803002BAB
:102A3C0009D0124B5B6823F460527B681B69DB0086
:102A4C000E4913434B6000F021F802460B4B5B68B8
:102A5C001B0903F00F030A49CB5C22FA03F3094A62
:102A6C001360094B1B681846FFF7F2F80023184651
:102A7C001037BD4680BD00BF002002400010024050
:102A8C00CC490008280000202C00002090B48AB00B
:102A9C0000AF2A4B3C1D0FCB84E80F0040F2012302
:102AAC003B800023FB610023BB6100237B6200237E
:102ABC007B6100233B62224B5B68FB61FB6903F08B
:102ACC000C03042B02D0082B03D02DE01D4B3B62D2
:102ADC002DE0FB699B0C03F00F0307F12802134454
:102AEC0013F8243C7B61FB6903F48033002B13D077
:102AFC00134B5B685B0C03F0010307F128021344D2
:102B0C0013F8283CBB617B690E4A02FB03F2BB69DC
:102B1C00B2FBF3F37B6204E07B690B4A02FB03F329
:102B2C007B627B6A3B6202E0064B3B6200BF3B6A06
:102B3C0018462837BD4690BC704700BFBC490008FA
:102B4C000010024000127A0000093D0080B400AF72
:102B5C00024B1B681846BD4680BC704728000020FD
:102B6C0080B500AFFFF7F2FF0246054B5B681B0A0E
:102B7C0003F007030349CB5C22FA03F3184680BD2C
:102B8C0000100240DC49000880B500AFFFF7DEFF03
:102B9C000246054B5B68DB0A03F007030349CB5C79
:102BAC0022FA03F3184680BD00100240DC490008ED
:102BBC0080B485B000AF78600A4B1B680A4AA2FB50
:102BCC0003235B0A7A6802FB03F3FB6000BFFB681C
:102BDC005A1EFA60002BF9D100BF00BF1437BD4656
:102BEC0080BC704728000020D34D621080B582B0A5
:102BFC0000AF78607B68002B01D1012341E07B683A
:102C0C0093F83D30DBB2002B06D17B68002283F8B1
:102C1C003C207868FEF734FC7B68022283F83D2068
:102C2C007B681A687B6804331946104600F06AFA10
:102C3C007B68012283F846207B68012283F83E20C2
:102C4C007B68012283F83F207B68012283F84020B7
:102C5C007B68012283F841207B68012283F84220A3
:102C6C007B68012283F843207B68012283F844208F
:102C7C007B68012283F845207B68012283F83D2084
:102C8C00002318460837BD4680BD000080B485B0CF
:102C9C0000AF78607B6893F83D30DBB2012B01D03C
:102CAC00012335E07B68022283F83D207B681B689A
:102CBC00DA687B681B6842F00102DA607B681B688B
:102CCC00164A934209D07B681B68B3F1804F04D03D
:102CDC007B681B68124A934211D17B681B689B6806
:102CEC0003F00703FB60FB68062B10D07B681B68A6
:102CFC001A687B681B6842F001021A6007E07B6867
:102D0C001B681A687B681B6842F001021A6000237A
:102D1C0018461437BD4680BC704700BF002C0140DC
:102D2C000004004080B582B000AF78607B681B68FF
:102D3C001B6903F00203022B22D17B681B68DB6842
:102D4C0003F00203022B1BD17B681B686FF002029D
:102D5C001A617B6801221A777B681B689B6903F0F8
:102D6C000303002B03D0786800F0B1F905E0786814
:102D7C0000F0A4F9786800F0B3F97B6800221A77A8
:102D8C007B681B681B6903F00403042B22D17B684E
:102D9C001B68DB6803F00403042B1BD17B681B68E6
:102DAC006FF004021A617B6802221A777B681B6839
:102DBC009B6903F44073002B03D0786800F087F90B
:102DCC0005E0786800F07AF9786800F089F97B689A
:102DDC0000221A777B681B681B6903F00803082B19
:102DEC0022D17B681B68DB6803F00803082B1BD11E
:102DFC007B681B686FF008021A617B6804221A77E3
:102E0C007B681B68DB6903F00303002B03D0786835
:102E1C0000F05DF905E0786800F050F9786800F092
:102E2C005FF97B6800221A777B681B681B6903F0CB
:102E3C001003102B22D17B681B68DB6803F0100396
:102E4C00102B1BD17B681B686FF010021A617B681A
:102E5C0008221A777B681B68DB6903F44073002B2C
:102E6C0003D0786800F033F905E0786800F026F9B3
:102E7C00786800F035F97B6800221A777B681B684C
:102E8C001B6903F00103012B0ED17B681B68DB6807
:102E9C0003F00103012B07D17B681B686FF0010263
:102EAC001A617868FEF758FA7B681B681B6903F097
:102EBC008003802B0ED17B681B68DB6803F08003DA
:102ECC00802B07D17B681B686FF080021A617868D1
:102EDC0000F067FA7B681B681B6903F04003402B0A
:102EEC000ED17B681B68DB6803F04003402B07D1D5
:102EFC007B681B686FF040021A61786800F0F9F883
:102F0C007B681B681B6903F02003202B0ED17B68A8
:102F1C001B68DB6803F02003202B07D17B681B6840
:102F2C006FF020021A61786800F032FA00BF08379F
:102F3C00BD4680BD80B584B000AF786039607B68D9
:102F4C0093F83C30012B01D10223B3E07B680122C2
:102F5C0083F83C207B68022283F83D207B681B6849
:102F6C009B68FB60FB6823F07703FB60FB6823F432
:102F7C007F43FB607B681B68FA689A603B681B6840
:102F8C00B3F5005F3ED0B3F5005F00F28780B3F578
:102F9C00805F00F08580B3F5805F7FD8702B1AD0EE
:102FAC00702B7BD8602B50D0602B77D8502B3CD01B
:102FBC00502B73D8402B58D0402B6FD8302B64D06B
:102FCC00302B6BD8202B60D0202B67D8002B5CD0FB
:102FDC00102B5AD062E07B6818683B6899683B6894
:102FEC005A683B68DB6800F05CF97B681B689B687F
:102FFC00FB60FB6843F07703FB607B681B68FA6837
:10300C009A604EE07B6818683B6899683B685A6820
:10301C003B68DB6800F045F97B681B689A687B6845
:10302C001B6842F480429A603BE07B6818683B68FE
:10303C0059683B68DB681A4600F0BCF87B681B6873
:10304C005021184600F013F92BE07B6818683B6898
:10305C0059683B68DB681A4600F0DAF87B681B6835
:10306C006021184600F003F91BE07B6818683B6888
:10307C0059683B68DB681A4600F09CF87B681B6853
:10308C004021184600F0F3F80BE07B681A683B68A7
:10309C001B681946104600F0EAF802E000BF00E099
:1030AC0000BF7B68012283F83D207B68002283F8F7
:1030BC003C20002318461037BD4680BD80B483B039
:1030CC0000AF786000BF0C37BD4680BC704780B441
:1030DC0083B000AF786000BF0C37BD4680BC704732
:1030EC0080B483B000AF786000BF0C37BD4680BCA5
:1030FC00704780B483B000AF786000BF0C37BD461A
:10310C0080BC704780B485B000AF786039607B6854
:10311C001B68FB607B68254A934207D07B68B3F140
:10312C00804F03D07B68224A934208D1FB6823F07E
:10313C007003FB603B685B68FA681343FB607B6859
:10314C001A4A934207D07B68B3F1804F03D07B6857
:10315C00174A934208D1FB6823F44073FB603B6829
:10316C00DB68FA681343FB60FB6823F080023B6862
:10317C005B691343FB607B68FA681A603B689A686A
:10318C007B68DA623B681A687B689A627B68074ADC
:10319C00934203D13B681A697B681A637B680122EE
:1031AC005A6100BF1437BD4680BC7047002C0140EB
:1031BC000004004080B487B000AFF860B9607A605A
:1031CC00FB681B6A7B61FB681B6A23F00102FB68CE
:1031DC001A62FB689B693B613B6923F0F0033B611E
:1031EC007B681B013A6913433B617B6923F00A033B
:1031FC007B617A69BB6813437B61FB683A699A61AE
:10320C00FB687A691A6200BF1C37BD4680BC7047E8
:10321C0080B487B000AFF860B9607A60FB681B6A55
:10322C0023F01002FB681A62FB689B697B61FB68E8
:10323C001B6A3B617B6923F470437B617B681B03D6
:10324C007A6913437B613B6923F0A0033B61BB6844
:10325C001B013A6913433B61FB687A699A61FB680D
:10326C003A691A6200BF1C37BD4680BC704780B4F7
:10327C0085B000AF786039607B689B68FB60FB6849
:10328C0023F07003FB603A68FB68134343F00703B9
:10329C00FB607B68FA689A6000BF1437BD4680BC3F
:1032AC00704780B487B000AFF860B9607A603B605B
:1032BC00FB689B687B617B6923F47F437B613B6884
:1032CC001A027B681A43BB6813437A6913437B6108
:1032DC00FB687A699A6000BF1C37BD4680BC70479A
:1032EC0080B485B000AF786039607B6893F83C306F
:1032FC00012B01D1022341E07B68012283F83C20A1
:10330C007B68022283F83D207B681B685B68FB604E
:10331C007B681B689B68BB60FB6823F07003FB60D9
:10332C003B681B68FA681343FB607B681B68FA6890
:10333C005A607B681B68144A934209D07B681B68EF
:10334C00B3F1804F04D07B681B68104A93420CD1B8
:10335C00BB6823F08003BB603B685B68BA681343AF
:10336C00BB607B681B68BA689A607B68012283F833
:10337C003D207B68002283F83C200023184614373C
:10338C00BD4680BC704700BF002C014000040040CB
:10339C0080B483B000AF786000BF0C37BD4680BCF2
:1033AC00704780B483B000AF786000BF0C37BD4667
:1033BC0080BC704780B582B000AF78607B68002B12
:1033CC0001D101233FE07B6893F83D30DBB2002B49
:1033DC0006D17B68002283F83C207868FEF774F8ED
:1033EC007B68242283F83D207B681B68DA687B6845
:1033FC001B6822F40052DA60786800F085FC7B6868
:10340C001B681A697B681B6822F490421A617B68FE
:10341C001B685A697B681B6822F02A025A617B6818
:10342C001B68DA687B681B6842F40052DA607B68C0
:10343C0000221A647B68202283F83D207B682022BE
:10344C0083F83E20002318460837BD4680BD80B562
:10345C008AB002AFF860B9603B601346FB80002372
:10346C007B61FB6893F83D30DBB2202B7CD1BB68D1
:10347C00002B02D0FB88002B01D1012375E0FB68E7
:10348C0093F83C30012B01D102236EE0FB68012242
:10349C0083F83C20FB6800221A64FB68212283F825
:1034AC003D20FEF717FC7861FB68FA889A84FB686C
:1034BC00FA88DA84FB689B68B3F5805F08D1FB68F7
:1034CC001B69002B04D10023FB61BB68BB6103E0CB
:1034DC00BB68FB610023BB61FB68002283F83C20C6
:1034EC002AE03B6800937B6900228021F86800F099
:1034FC0038FA0346002B01D0032336E0FB69002B7E
:10350C000BD1BB691B881A46FB681B68C2F3080207
:10351C005A60BB690233BB6107E0FB691A78FB6830
:10352C001B685A60FB690133FB61FB68DB8C9BB247
:10353C00013B9AB2FB68DA84FB68DB8C9BB2002BF4
:10354C00CFD13B6800937B6900224021F86800F0E2
:10355C0008FA0346002B01D0032306E0FB68202267
:10356C0083F83D20002300E0022318462037BD4697
:10357C0080BD80B584B000AFF860B9601346FB80A5
:10358C00FB6893F83E30DBB2202B1DD1BB68002BBF
:10359C0002D0FB88002B01D1012316E0FB6893F8C5
:1035AC003C30012B01D102230FE0FB68012283F890
:1035BC003C20FB6800221A63FB881A46B968F8683D
:1035CC0000F019FA034600E0022318461037BD46F6
:1035DC0080BD000080B58AB000AF78607B681B6846
:1035EC001B687B627B681B68DB683B627B681B68C3
:1035FC005B69FB610023BB6100237B617B6A03F089
:10360C000F03BB61BB69002B0DD17B6A03F0200358
:10361C00002B08D03B6A03F02003002B03D0786802
:10362C0000F0C9FA7BE1BB69002B00F0B180FB69AB
:10363C0003F00103002B05D13B6A03F49073002BBC
:10364C0000F0A6807B6A03F00103002B0AD03B6AD2
:10365C0003F48073002B05D07B681B6C43F00102D4
:10366C007B681A647B6A03F00403002B0AD0FB69A5
:10367C0003F00103002B05D07B681B6C43F00202A6
:10368C007B681A647B6A03F00203002B0AD0FB6987
:10369C0003F00103002B05D07B681B6C43F0040284
:1036AC007B681A647B6A03F00803002B0FD03B6A1B
:1036BC0003F02003002B04D1FB6903F00103002B62
:1036CC0005D07B681B6C43F008027B681A647B682E
:1036DC001B6C002B00F01E817B6A03F02003002B77
:1036EC0007D03B6A03F02003002B02D0786800F06F
:1036FC0062FA7B681B685B6903F04003002B14BF04
:10370C0001230023DBB27B617B681B6C03F0080395
:10371C00002B02D17B69002B31D0786800F0A4F922
:10372C007B681B685B6903F04003002B23D07B682C
:10373C001B685A697B681B6822F040025A617B68DF
:10374C009B6B002B13D07B689B6B764A5A637B6810
:10375C009B6B1846FEF710FC0346002B16D07B68BB
:10376C009B6B5B6B7A68926B104698470EE078689F
:10377C0000F0E3F80AE0786800F0DFF806E078681B
:10378C0000F0DBF87B6800221A64C3E000BFC1E0E4
:10379C007B681B6B012B40F0A1807B6A03F010034C
:1037AC00002B00F09B803B6A03F01003002B00F011
:1037BC0095800023FB607B681B681B68FB607B6843
:1037CC001B685B68FB60FB687B681B685B6903F0CC
:1037DC004003002B4ED07B689B6B1B685B683B8265
:1037EC003B8A002B00F098807B689B8D3A8A9A422A
:1037FC0080F092807B683A8ADA857B689B6B9B6948
:10380C00202B2BD07B681B68DA687B681B6822F442
:10381C008072DA607B681B685A697B681B6822F0CF
:10382C0001025A617B681B685A697B681B6822F02D
:10383C0040025A617B68202283F83E207B6800227C
:10384C001A637B681B68DA687B681B6822F01002BD
:10385C00DA607B689B6B1846FEF753FB7B689A8D8E
:10386C007B68DB8D9BB2D31A9BB21946786800F04B
:10387C006DF851E07B689A8D7B68DB8D9BB2D31A17
:10388C007B827B68DB8D9BB2002B47D07B8A002B25
:10389C0044D07B681B68DA687B681B6822F49072E2
:1038AC00DA607B681B685A697B681B6822F001022E
:1038BC005A617B68202283F83E207B6800221A63C1
:1038CC007B681B68DA687B681B6822F01002DA6080
:1038DC007B8A1946786800F039F81FE07B6A03F0A0
:1038EC008003002B08D03B6A03F08003002B03D02D
:1038FC00786800F0F9F812E07B6A03F04003002BC3
:10390C000DD03B6A03F04003002B08D0786800F020
:10391C003AF904E000BF02E000BF00E000BF283726
:10392C00BD4680BDCD3A000880B483B000AF78604E
:10393C0000BF0C37BD4680BC704780B483B000AF6D
:10394C00786000BF0C37BD4680BC704780B483B034
:10395C0000AF78600B467B8000BF0C37BD4680BC47
:10396C00704780B584B000AFF860B9603B60134617
:10397C00FB712CE0BB69B3F1FF3F28D0BB69002B76
:10398C0007D0FEF7A7F902463B68D31ABA699A42E8
:10399C001DD2FB681B68DA68FB681B6822F4D072C6
:1039AC00DA60FB681B685A69FB681B6822F001022D
:1039BC005A61FB68202283F83D20FB68202283F8A3
:1039CC003E20FB68002283F83C2003230FE0FB68B9
:1039DC001B681A68BB681340BA689A420CBF012373
:1039EC000023DBB21A46FB799A42C3D00023184657
:1039FC001037BD4680BD80B485B000AFF860B960AB
:103A0C001346FB80FB68BA689A62FB68FA889A8551
:103A1C00FB68FA88DA85FB6800221A64FB682222AC
:103A2C0083F83E20FB68002283F83C20FB681B686F
:103A3C00DA68FB681B6842F48072DA60FB681B680A
:103A4C005A69FB681B6842F001025A61FB681B68EB
:103A5C00DA68FB681B6842F02002DA600023184623
:103A6C001437BD4680BC704780B483B000AF78601B
:103A7C007B681B68DA687B681B6822F49072DA60DA
:103A8C007B681B685A697B681B6822F001025A61CB
:103A9C007B681B6B012B07D17B681B68DA687B6822
:103AAC001B6822F01002DA607B68202283F83E202B
:103ABC007B6800221A6300BF0C37BD4680BC704780
:103ACC0080B584B000AF78607B685B6AFB60FB6894
:103ADC000022DA85FB680022DA84F868FFF72DFFF4
:103AEC0000BF1037BD4680BD80B485B000AF786094
:103AFC007B6893F83D30DBB2212B3ED17B689B6811
:103B0C00B3F5805F14D17B681B69002B10D17B68E7
:103B1C001B6AFB60FB681B881A467B681B68C2F338
:103B2C0008025A607B681B6A9A1C7B681A6208E060
:103B3C007B681B6A591C7A6811621A787B681B684F
:103B4C005A607B68DB8C9BB2013B9BB27A6819464E
:103B5C00D184002B0FD17B681B68DA687B681B68EB
:103B6C0022F08002DA607B681B68DA687B681B686D
:103B7C0042F04002DA60002300E0022318461437BA
:103B8C00BD4680BC704780B582B000AF78607B6862
:103B9C001B68DA687B681B6822F04002DA607B687D
:103BAC00202283F83D207868FFF7BEFE00231846DC
:103BBC000837BD4680BD80B586B000AF78607B68A5
:103BCC0093F83E30DBB2222B40F099807B689B68E7
:103BDC00B3F5805F17D17B681B69002B13D10023D1
:103BEC007B617B689B6A3B617B681B685B689BB2F3
:103BFC00C3F308039AB23B691A807B689B6A9A1CD0
:103C0C007B689A6226E07B689B6A7B6100233B6140
:103C1C007B689B68B3F5805F07D07B689B68002B43
:103C2C000AD17B681B69002B06D17B681B685B681B
:103C3C00DAB27B691A7008E07B681B685B68DBB2E0
:103C4C0003F07F03DAB27B691A707B689B6A5A1C9B
:103C5C007B689A627B68DB8D9BB2013B9BB27A6876
:103C6C001946D185002B48D17B681B68DA687B68C4
:103C7C001B6822F02002DA607B681B68DA687B68BC
:103C8C001B6822F48072DA607B681B685A697B6857
:103C9C001B6822F001025A617B68202283F83E20C7
:103CAC007B681B6B012B23D17B6800221A637B681A
:103CBC001B68DA687B681B6822F01002DA607B688C
:103CCC001B681B6803F01003102B0AD10023FB6048
:103CDC007B681B681B68FB607B681B685B68FB6010
:103CEC00FB687B689B8D19467868FFF72FFE02E016
:103CFC007868FDF773F9002302E0002300E002234B
:103D0C0018461837BD4680BD80B584B000AF7860CA
:103D1C007B681B681B6923F440517B68DA687B68FD
:103D2C001B680A431A617B689A687B681B691A4393
:103D3C007B685B691343BB607B681B68DB6823F49F
:103D4C00B05323F00C037A681268B9680B43D36044
:103D5C007B681B685B6923F440717B689A697B689C
:103D6C001B680A435A617B681B682C4A934203D137
:103D7C00FEF70AFFF86002E0FEF7F2FEF860FA6860
:103D8C0013469B0013449A001A447B685B689B00A3
:103D9C00B2FBF3F3224AA2FB03235B091901FA6875
:103DAC0013469B0013449A001A447B685B689B0083
:103DBC00B2FBF3F21A4BA3FB02035B09642000FB7A
:103DCC0003F3D31A1B013233154AA2FB03235B09FD
:103DDC0003F0F0031944FA6813469B0013449A004D
:103DEC001A447B685B689B00B2FBF3F20C4BA3FBA1
:103DFC0002035B09642000FB03F3D31A1B0132336B
:103E0C00074AA2FB03235B0903F00F027B681B68C4
:103E1C000A449A6000BF1037BD4680BD003801408F
:103E2C001F85EB51014B1868704700BF3400002010
:103E3C0070B500260C4D0D4C641BA410A64209D184
:103E4C0000F05CFC00260A4D0A4C641BA410A64230
:103E5C0005D170BD55F8043B98470136EEE755F88F
:103E6C00043B98470136F2E7184A0008184A000844
:103E7C00184A00081C4A00080A44914200F1FF331A
:103E8C0000D1704710B511F8014B914203F8014F66
:103E9C00F9D110BD03460244934200D1704703F898
:103EAC00011BF9E70EB46FF0004100B59CB01DABDF
:103EBC0002900690079104910848094953F8042B85
:103ECC000591006802A9019300F068F80022029B9A
:103EDC001A701CB05DF804EB03B07047340000207E
:103EEC000802FFFF2DE9F0478E6882469E420C4681
:103EFC0090461F4638D88A8912F4906F32D02568C4
:103F0C0009690133A5EB010965694B4405EB4505CE
:103F1C0005EBD5756D109D4238BF1D46530531D547
:103F2C00294600F045FB064650B90C234FF0FF30F4
:103F3C00CAF80030A38943F04003A381BDE8F087A1
:103F4C004A462169FFF798FFA38923F4906343F055
:103F5C008003A38126614E4426603E466561A5EB35
:103F6C000905A560BE4200D93E463246414620684E
:103F7C0000F0B8FAA36822689B1B32440020A360AF
:103F8C002260DBE72A4600F06DFB06460028E1D1F3
:103F9C005046216900F0C0FAC7E700002DE9F04F48
:103FAC0098468B8907461B060D4614469DB00ED5C8
:103FBC000B6963B9402100F0FBFA2860286120B935
:103FCC000C233B604FF0FF30D1E040236B610023AA
:103FDC00099320238DF8293030234FF00109CDF8B7
:103FEC000C80DFF8A4818DF82A3023469A4613F80A
:103FFC00012B0AB1252AF9D1BAEB040B0BD05B4685
:10400C00224629463846FFF76DFF013000F0AA80A2
:10401C00099A5A4409929AF80030002B00F0A280B9
:10402C0000234FF0FF32CDE905230AF1010A049376
:10403C0007938DF853301A935446052214F8011B3C
:10404C00514800F041FA049AD8B9D00644BF202355
:10405C008DF85330110744BF2B238DF853309AF849
:10406C0000302A2B15D0544600204FF00A0C079A2A
:10407C00214611F8013B303B092B4ED9B0B10792C8
:10408C0014E0A0EB080309FA03F31343A2460493CC
:10409C00D2E7039B191D1B680391002BBBBF5B422E
:1040AC0042F0020207930793B8BF049223782E2B99
:1040BC000CD163782A2B35D1039B02341A1D1B6853
:1040CC000392002BB8BF4FF0FF330593DFF8C8A065
:1040DC0003225046217800F0F7F940B14023A0EBC1
:1040EC000A0003FA00F0049B01340343049314F810
:1040FC00011B062225488DF8281000F0E5F9002850
:10410C0038D0234B1BBB039B073323F00703083327
:10411C000393099B3344099367E70C4601200CFB7E
:10412C000232A5E700234FF00A0C1946013405931F
:10413C00204610F8012B303A092A03D9002BC5D0A0
:10414C000591C3E7044601230CFB0121F0E703AB07
:10415C0000932A4638460F4B04A9AFF30080421C4B
:10416C000646D6D1AB895B063FF52CAF09981DB03E
:10417C00BDE8F08F03AB00932A463846054B04A9E3
:10418C0000F07CF8EBE700BFE4490008EE490008BA
:10419C0000000000F13E0008EA4900082DE9F04754
:1041AC00164699468A680B6907469342B8BF134670
:1041BC00336091F843200C46DDF820800AB10133BE
:1041CC0033602368990642BF336802333360256835
:1041DC0015F0060506D104F1190AE36832689B1A3A
:1041EC00AB4228DC94F84320131E226818BF01232D
:1041FC0092062DD44946384604F14302C04701309B
:10420C0020D02368E56803F00603042B18BF0025B3
:10421C0032684FF00006A36808BFAD1A226908BFC8
:10422C0025EAE5759342C4BF9B1AED181A34B542C2
:10423C001AD1002008E00123524649463846C047AF
:10424C00013003D14FF0FF30BDE8F0870135C4E7F2
:10425C003020E11881F843005A1C94F84510224490
:10426C00023382F84310C5E70123224649463846FB
:10427C00C0470130E6D00136D9E700002DE9FF47F1
:10428C000C46277E9146782F80469A460C9904F16D
:10429C00430207D8622F0AD8002F00F0D980582F7C
:1042AC0000F0A48004F1420684F842703AE0A7F1D1
:1042BC006303152BF6D801A050F823F02143000816
:1042CC0035430008B1420008B1420008B142000871
:1042DC00B142000835430008B1420008B142000861
:1042EC00B1420008B142000843440008654300088D
:1042FC0025440008B1420008B1420008654400089A
:10430C00B142000865430008B1420008B142000800
:10431C002D4400080B6804F142061A1D1B680A6044
:10432C0084F842300123A4E0256808682E0600F1C9
:10433C0004030AD505680B60002D03DA2D236D42AA
:10434C0084F843300A235E4819E015F0400F0568E5
:10435C000B6018BF2DB2EFE70B682568181D0860BD
:10436C00280601D51D6802E06906FBD51D886F2F54
:10437C000CBF08230A235248002184F843106668B6
:10438C00002EA8BF2168A660A4BF21F00401216003
:10439C000DB9002E4DD01646B5FBF3F103FB1157AA
:1043AC00C75D06F8017D2F46BB420D46F4D9082B9C
:1043BC000BD12368DF0708D5236961689942DEBFFA
:1043CC00302306F8013C06F1FF36921B22614B4666
:1043DC0021464046CDF800A003AAFFF7DFFE0130CE
:1043EC004CD14FF0FF3004B0BDE8F087344884F86E
:1043FC0045700E68236856F8045B1F060E6014D5D2
:10440C00D90744BF43F0200323601DB9236823F070
:10441C00200323601023AFE7236843F020032360BD
:10442C007823284884F84530E3E75E0648BFADB2F0
:10443C00E6E71646BBE70B6826681D1D60690D6034
:10444C0035061B6801D5186002E07106FBD5188093
:10445C00002316462361BAE70B681A1D0A601E6812
:10446C0000213046626800F02FF808B1801B6060B4
:10447C0063682361002384F84330A8E73246494639
:10448C0040462369D0470130ABD023689B0713D437
:10449C00E068039B9842B8BF1846A4E70123324654
:1044AC0049464046D04701309BD00135E36803991B
:1044BC005B1AAB42F2DCEBE7002504F11906F5E7D9
:1044CC00F5490008064A0008034610B5C9B2024473
:1044DC009342184601D1002003E0047801338C424A
:1044EC00F6D110BD884210B501EB020402D984420A
:1044FC00234607D8431EA14208D011F8012B03F81C
:10450C00012FF8E7014602448A4200D110BD13F88E
:10451C00014D02F8014DF7E738B50546002943D0A7
:10452C0051F8043C0C1F002BB8BFE41800F0D0F875
:10453C001E4A1368104633B9636014602846BDE800
:10454C00384000F0CBB8A3420AD9216862189342D4
:10455C0001BF1A685B685218226063600460EDE763
:10456C001A465B680BB1A342FAD911685018A042E5
:10457C000BD120680144501883421160DED11868B9
:10458C005B68014411605360D8E702D90C232B609F
:10459C00D4E7206821188B4201BF19685B680918A1
:1045AC00216063605460C9E738BD00BFCC000020B7
:1045BC00F8B5CD1C25F0030508350C2D38BF0C259E
:1045CC00002D064601DBA94203D90C2333600020E1
:1045DC00F8BD00F07DF821490A6814469CB9204FBB
:1045EC003B6823B92146304600F062F83860294612
:1045FC00304600F05DF8431C23D10C233046336069
:10460C0000F06CF8E3E723685B1B17D40B2B03D982
:10461C0023601C44256004E06368A2420CBF0B605D
:10462C005360304600F05AF804F10B00231D20F0C3
:10463C000700C21ACCD01B1AA350C9E722466468E3
:10464C00CCE7C41C24F00304A042E3D0211A30466A
:10465C0000F02EF80130DDD1CFE700BFCC000020F8
:10466C00D0000020F8B5074614460E4621B9114675
:10467C00BDE8F840FFF79CBF22B9FFF74DFF254678
:10468C002846F8BD00F030F8A0420FD2214638463B
:10469C00FFF78EFF05460028F2D031462246FFF781
:1046AC00EBFB31463846FFF737FFE9E73546E7E7DE
:1046BC0038B50023054D044608462B60FCF792FFE5
:1046CC00431C02D12B6803B1236038BD3C0200208F
:1046DC00014800F011B800BF44020020014800F06E
:1046EC000CB800BF4402002051F8043C181F002BEA
:1046FC00BCBF0B58C018704770477047F8B500BF67
:10470C00F8BC08BC9E467047F8B500BFF8BC08BCA6
:04471C009E467047FE
:104720000000000000000000000000000000000089
:104730000000000000000000010000000100000077
:104740000000000000000000010000000100000067
:104750000100000001000000000000000000000057
:104760000100000000000000000000000100000047
:104770000000000000000000000000000000000039
:104780000000000001000000010000000000000027
:104790000100000000000000000000000100000017
:1047A0000100000000000000000000000000000008
:1047B00001000000000000000000000001000000F7
:1047C00000000000000000000000000001000000E8
:1047D00000000000000000000000000000000000D9
:1047E00000000000000000000000000000000000C9
:1047F00001000000010000000100000001000000B5
:1048000000000000000000000000000000000000A8
:104810000000000000000000000000000000000098
:104820000000000000000000000000000100000087
:1048300000000000000000000200040020008000D2
:104840000002000800100000000C0140000C0140B4
:104850000008014000080140000801400008014034
:10486000000801404D6F64653A204175746F6D61B9
:10487000746963206D6F64650D0A00004D6F646597
:104880003A204D616E75616C206D6F64650D0A0094
:10489000524544202020475245454E0D0A00000055
:1048A0004C696768742031203D2025642020204C0D
:1048B000696768742032203D2025640D0A000000DD
:1048C000524544202020414D4245520D0A0000002F
:1048D000475245454E2020205245440D0A00000015
:1048E000414D4245522020205245440D0A0000000F
:1048F0004D6F646520323A204D6F64696679696E48
:1049000067205245440D0A0043757272656E74202B
:1049100074696D65203D2025640D0A005570646141
:104920007465642074696D65203D2025640D0A005E
:1049300055706F6E207570646174653A0D0A0000E1
:1049400052454420636F756E746572203D20256466
:104950000D0A00004D6F646520333A204D6F646985
:104960006679696E6720414D4245520D0A0000008C
:10497000414D42455220636F756E746572203D2033
:1049800025640D0A000000004D6F646520343A2054
:104990004D6F64696679696E6720475245454E0DD3
:1049A0000A000000475245454E20636F756E7465DE
:1049B00072203D2025640D0A00000000020304055A
:1049C000060708090A0B0C0D0E0F1010000000005E
:1049D00000000000010203040607080900000000AF
:1049E00001020304232D302B2000686C4C00656607
:1049F0006745464700303132333435363738394130
:104A00004243444546003031323334353637383945
:084A1000616263646566000049
:044A18003101000860
:044A1C000D01000880
:104A200002000000900100000900000001000000E9
:104A300088130000D0070000B80B00000100000040
:104A400001000000010000000024F400100000003C
:104A500001000000380000200000000000000000FD
:104A60000000000000000000000000000000000046
:104A70000000000000000000000000000000000036
:104A80000000000000000000000000000000000026
:104A90000000000000000000000000000000000016
:104AA0000000000000000000000000000000000006
:084AB0000000000000000000FE
:0400000508001BE5EF
:00000001FF
