:020000040800F2
:1000000000280020B9130008351300083B1300082E
:1000100041130008471300084D13000800000000BA
:100020000000000000000000000000005313000862
:100030005F130008000000006B130008771300082E
:10004000011400080114000801140008011400083C
:10005000011400080114000801140008011400082C
:10006000011400080114000801140008011400081C
:10007000011400080114000801140008011400080C
:1000800001140008011400080114000801140008FC
:1000900001140008011400080114000801140008EC
:1000A00001140008011400080114000801140008DC
:1000B0008513000801140008000000000114000866
:1000C00001140008000000000000000001140008F6
:1000D000000000000114000899130008000000004F
:1000E00001140008011400080114000800000000B9
:1000F0000000000000000000000000000000000000
:0C01000000000000000000005FF808F1A3
:10010C0010B5054C237833B9044B13B10448AFF345
:10011C0000800123237010BD30000020000000007F
:10012C000034000808B5034B1BB103490348AFF377
:10013C00008008BD000000003400002000340008DE
:10014C0080B483B000AF01237B6020E0144A7B684D
:10015C00012142F82310134A7B68012142F8231035
:10016C00114A7B68012142F82310104A7B68012157
:10017C0042F823100E4A7B68002142F823100D4AE6
:10018C007B68C82142F823107B6801337B607B6855
:10019C00042BDBDD00BF00BF0C37BD4680BC7047B5
:1001AC00680000207C000020B800002054000020D3
:1001BC00A40000209000002080B582B000AF012385
:1001CC007B6098E0504A7B6852F823204F497B684B
:1001DC0041F823204E4A7B6852F823204A497B6819
:1001EC0041F823207B68012B09D10221494801F0F9
:1001FC009DFC03461946464A7B6842F823107B68EF
:10020C00022B09D11021434801F090FC03461946FA
:10021C003F4A7B6842F823107B68032B09D10121EC
:10022C003D4801F083FC03461946394A7B6842F885
:10023C0023107B68042B09D10121364801F076FC90
:10024C0003461946324A7B6842F823102F4A7B68D2
:10025C0052F823202C497B6851F823309A4247D11D
:10026C00294A7B6852F8232029497B6851F82330AE
:10027C009A423DD1294A7B6852F8232024497B6855
:10028C0051F823309A4216D0214A7B6852F8232029
:10029C0022497B6841F823201D4A7B6852F82330A1
:1002AC00002B25D1786800F05BF81D4A7B68C821CB
:1002BC0042F823101CE01A4A7B6852F823305A1E6D
:1002CC0017497B6841F82320154A7B6852F8233084
:1002DC00002B0DD10E4A7B6852F82330002B02D133
:1002EC00786800F03DF80E4A7B68C82142F823106C
:1002FC007B6801337B607B68032B7FF763AF00BFA8
:10030C0000BF0837BD4680BD7C000020680000207F
:10031C00B800002000080140000C014054000020EF
:10032C009000002080B483B000AF78607B68042B11
:10033C0001DD00230DE0094A7B6852F82330002BC5
:10034C0006D0064A7B68002142F82310012300E006
:10035C00002318460C37BD4680BC7047A400002013
:10036C0080B483B000AF7860044A7B68012142F806
:10037C00231000BF0C37BD4680BC7047A400002082
:10038C0080B500AF0120FFF7CDFF0346002B06D050
:10039C00934B03221A60934B01221A601EE1914B7E
:1003AC001B68012B4ED0002B40F31881502B00F30F
:1003BC001581322BC0F21281323B1E2B00F20E81C2
:1003CC0001A252F823F000BFA7040008E9050008B9
:1003DC00E9050008E9050008E9050008E905000839
:1003EC00E9050008E9050008E9050008E905000829
:1003FC00E5040008E9050008E9050008E90500081E
:10040C00E9050008E9050008E9050008E905000808
:10041C00E9050008E90500083D050008E9050008A4
:10042C00E9050008E9050008E9050008E9050008E8
:10043C00E9050008E9050008E9050008E9050008D8
:10044C007905000800F0B4FA674B4FF4C8721A60D3
:10045C00644B32221A60654B1B681946012000F070
:10046C006BFEFA21032000F067FE614B1B68614AAA
:10047C0082FB03129211DB17D31A5F4A13605B4B9A
:10048C001B685C4A82FB03129211DB17D31A5B4A7E
:10049C0013605B4B01221A60A0E0002000F0D4FA3C
:1004AC00002000F049FB574B5B68012B40F08F801C
:1004BC004C4B3C221A60544B1B681946012000F02F
:1004CC003BFE514B1B684B4A82FB03129211DB170C
:1004DC00D31A4A4A13607AE0002000F0B5FA0020E3
:1004EC0000F048FB474B5B68012B72D13D4B462219
:1004FC001A603E4B1B681946012000F01DFE3B4B59
:10050C001B683C4A82FB03129211DB17D31A3A4A3E
:10051C001360374B1B68374A82FB03129211DB17AF
:10052C00D31A364A1360304B4FF4C8721A6050E03D
:10053C00002000F0A7FA002000F0E0FA314B5B68D5
:10054C00012B48D1274B50221A602F4B1B681946A0
:10055C00012000F0F1FD2C4B1B68264A82FB031294
:10056C009211DB17D31A244A136034E0002000F0F8
:10057C00A7FA002000F0C2FA224B5B68012B2CD1A9
:10058C00184B32221A60194B1B681946012000F0D7
:10059C00D3FD174B1B68174A82FB03129211DB1712
:1005AC00D31A154A1360114B1B68124A82FB0312B3
:1005BC009211DB17D31A114A13600B4B1B68B3F55E
:1005CC00167F0AD1084B4FF4FA721A6005E000BF8F
:1005DC0004E000BF02E000BF00E000BF80BD00BF30
:1005EC00000000200800002004000020140000205F
:1005FC000C000020D34D6210180000201C000020BD
:10060C0020000020680100201000002080B500AF01
:10061C00A04B5B68012B05D19F4B02221A609F4BAC
:10062C0001221A609B4B9B68012B0AD19C4B1B68C7
:10063C00C3F101039A4A13604FF4FA71022000F0DF
:10064C007BFD964B1B68013B032B00F2918101A2B1
:10065C0052F823F071060008BF060008A90700082D
:10066C00D50800088D4B02221A608E4B1B688E4AEF
:10067C0013608C4B1B688D4A82FB03129211DB17A3
:10068C00D31A8B4A1360854B1B688A4A136041F25C
:10069C008831012000F050FD4FF4FA71022000F077
:1006AC004BFDFA21032000F047FD834B01221A6019
:1006BC0065E17B4B1B68184600F0C6F9784B1B684C
:1006CC00184600F01BFA0120FFF72CFE0346002B06
:1006DC0025D0724B03221A60784B1B68724A136048
:1006EC00764B1B68714A82FB03129211DB17D31AEB
:1006FC006F4A1360694B1B686E4A136041F2883174
:10070C00012000F019FD4FF4FA71022000F014FDE5
:10071C00FA21032000F010FD674B01221A60022021
:10072C00FFF700FE0346012B13D15F4B1B6803F54B
:10073C007A735D4A13605C4B1B68614A934203DD1C
:10074C00594B4FF47A721A6041F28831012000F053
:10075C00F3FC0320FFF7E6FD0346012B40F00A8172
:10076C00514B1B684F4A13604E4B1A68534B1B6816
:10077C00D31A544A136041F28831012000F0DCFC9A
:10078C00484B1B68494A82FB03129211DB17D31AA0
:10079C00474A1360484B01221A60EBE0404B1B6840
:1007AC00184600F08DF93E4B1B68184600F0E2F934
:1007BC000120FFF7B7FD0346002B2BD0374B04224B
:1007CC001A60404B1B68394A82FB03129211DB17EB
:1007DC00D31A354A13603B4B1B68344A82FB031215
:1007EC009211DB17D31A324A13602C4B1B68314A17
:1007FC00136041F28831012000F09EFC4FF4FA7135
:10080C00022000F099FCFA21032000F095FC2A4B01
:10081C0001221A600220FFF785FD0346012B13D13C
:10082C00214B1B6803F57A731F4A13601E4B1B6820
:10083C00234A934203DD1C4B4FF47A721A6041F247
:10084C008831012000F078FC0320FFF76BFD034694
:10085C00012B40F09180144B1B68184A1360174B06
:10086C001A68184B1B6813440E4A136041F2883106
:10087C00012000F061FC114B1B680C4A82FB031237
:10088C009211DB17D31A0A4A13600B4B01221A6020
:10089C0072E000BF6801002000000020080000206A
:1008AC004C0000200C00002050000020D34D6210A2
:1008BC00180000201C000020200000201000002048
:1008CC00B8820100140000202E4B1B68184600F063
:1008DC00D9F82C4B1B68184600F02EF90120FFF7B5
:1008EC0021FD0346002B05D0274B02221A60274B13
:1008FC0001221A600220FFF715FD0346012B13D1CC
:10090C00234B1B6803F57A73214A1360204B1B6839
:10091C00204A934203DD1E4B4FF47A721A6041F267
:10092C008831012000F008FC0320FFF7FBFC034694
:10093C00012B23D1164B1B68174A1360174B1A68EF
:10094C00154B1B681344164A136041F28831012081
:10095C0000F0F2FB104B1B68124A82FB031292113F
:10096C00DB17D31A104A1360104B01221A6005E0F2
:10097C0000BF04E000BF02E000BF00E000BF00BF0A
:10098C0080BD00BF4C0000200000002008000020AB
:10099C0050000020B882010014000020100000203C
:1009AC000C000020D34D6210180000202000002005
:1009BC0080B500AF204B00221A60204B01221A6038
:1009CC0001224FF400511E4801F0C7F801224FF4E8
:1009DC0000411B4801F0C1F801224FF48041184836
:1009EC0001F0BBF801224FF40051164801F0B5F8A4
:1009FC0001224FF40041134801F0AFF801224FF4EB
:100A0C008041104801F0A9F8012240210C4801F066
:100A1C00A4F8012280210A4801F09FF801224FF42A
:100A2C008071074801F099F801224FF400710448D5
:100A3C0001F093F800BF80BD50000020080000209A
:100A4C00000C01400008014080B582B000AF786016
:100A5C007B68DBB21A464FF40051094801F07DF86F
:100A6C0001224FF40041064801F077F801224FF4BF
:100A7C008041034801F071F800BF0837BD4680BDC6
:100A8C00000C014080B582B000AF786001224FF4B9
:100A9C0000510A4801F061F87B68DBB21A464FF44A
:100AAC000041064801F059F801224FF480410348F7
:100ABC0001F053F800BF0837BD4680BD000C014063
:100ACC0080B582B000AF786001224FF400510A4823
:100ADC0001F043F801224FF40041074801F03DF8C2
:100AEC007B68DBB21A464FF48041034801F035F8BD
:100AFC0000BF0837BD4680BD000C014080B582B0F8
:100B0C0000AF78607B68DBB21A464FF4005109489D
:100B1C0001F023F801224FF40041064801F01DF8C2
:100B2C0001224FF48041034801F017F800BF083749
:100B3C00BD4680BD0008014080B582B000AF786032
:100B4C0001224FF400510A4801F007F87B68DBB230
:100B5C001A464FF40041064800F0FFFF01224FF403
:100B6C008041034800F0F9FF00BF0837BD4680BD47
:100B7C000008014080B582B000AF786001224FF4CC
:100B8C0000510A4800F0E9FF01224FF400410748E8
:100B9C0000F0E3FF7B68DBB21A464FF48041034858
:100BAC0000F0DBFF00BF0837BD4680BD00080140E8
:100BBC0090B5CDB000AF07F10C03186007F1080336
:100BCC0019603B1D1A6007F114031E4A18461146A2
:100BDC004FF48C731A4602F0F7FB0023C7F82C3144
:100BEC0025E0D7F82C319B0007F10802126813445A
:100BFC001868D7F82C315B003A1D126813441C8816
:100C0C0007F1140107F10C031A681346DB009B1A59
:100C1C00D7F82C21134451F82330DBB21A46214665
:100C2C0000F09BFFD7F82C310133C7F82C31D7F8E3
:100C3C002C31062BD5DD00BF00BF07F59A77BD46DA
:100C4C0090BD00BF18340008B0B58CB000AF854B18
:100C5C0007F120040FCB07C42380834B3C1D1D469A
:100C6C000FCD0FC495E8070084E807007F4B1B6885
:100C7C00013B032B00F2E68001A252F823F000BFE7
:100C8C009D0C0008FF0C00086B0D0008CB0D000834
:100C9C0000224021764800F060FF01228021744838
:100CAC0000F05BFF01224FF48071714800F055FF9A
:100CBC0001224FF400716E4800F04FFF6D4B1B6822
:100CCC006D4A82FB03129210DB17D31A07F1200234
:100CDC00391D1846FFF76CFF684BDB68012B40F0A1
:100CEC00B580624B02221A60FA21032000F024FA2C
:100CFC00ACE0012240215E4800F02FFF0022802151
:100D0C005B4800F02AFF01224FF48071584800F034
:100D1C0024FF01224FF40071554800F01EFF554B83
:100D2C001A68554B83FB02139910D317C81A034644
:100D3C009B0003445B00D01A07F120023B1D1946AF
:100D4C00FFF736FF4D4BDB68012B40F08180474BA2
:100D5C0003221A60FA21032000F0EEF978E0012258
:100D6C004021434800F0F9FE01228021404800F068
:100D7C00F4FE00224FF480713D4800F0EEFE01229B
:100D8C004FF400713A4800F0E8FE3D4B1B683A4ABC
:100D9C0082FB03129210DB17D31A07F12002391DC4
:100DAC001846FFF705FF354BDB68012B52D12F4B53
:100DBC0004221A60FA21032000F0BEF94AE0012255
:100DCC0040212B4800F0C9FE01228021284800F068
:100DDC00C4FE01224FF48071254800F0BEFE0022B3
:100DEC004FF40071224800F0B8FE254B1A68224BD4
:100DFC0083FB02139910D317C81A03469B000344B4
:100E0C005B00D01A07F120023B1D1946FFF7D0FEFC
:100E1C001A4BDB68012B1FD1144B01221A60194BA2
:100E2C001B68022B09D1134B1B68013B114A136041
:100E3C00134B1B68013B124A1360FA21032000F08C
:100E4C007BF909E0094B01221A6006E000BF04E0BF
:100E5C0000BF02E000BF00E000BF00BF3037BD465E
:100E6C00B0BD00BF30350008403500082000002020
:100E7C00000C0140180000206766666668010020BF
:100E8C001C0000200000002080B500AF00F0B4FA78
:100E9C0000F020F800F05AF800F0CEF800F0A2F8BC
:100EAC000A4801F0DDFAFFF74BF9094B1B68022BDE
:100EBC0002D1FFF765FA05E0054B1B68032B01D146
:100ECC00FFF7A4FBFFF7C0FEEFE700BFCC0000204C
:100EDC000000002080B590B000AF07F11803282265
:100EEC000021184602F07EFA3B1D00221A605A605F
:100EFC009A60DA601A610223BB610123BB62102382
:100F0C00FB6200237B6307F11803184600F03EFEDA
:100F1C000346002B01D000F009F90F237B6000235E
:100F2C00BB600023FB6000233B6100237B613B1D06
:100F3C000021184601F0AAF80346002B01D000F05E
:100F4C00F5F800BF4037BD4680BD000080B586B0C7
:100F5C0000AF07F1080300221A605A609A60DA6049
:100F6C003B4600221A605A601D4B4FF080421A60BB
:100F7C001B4B41F63F725A60194B00229A60184B7A
:100F8C000922DA60164B00221A61154B00229A6175
:100F9C00134801F015FA0346002B01D000F0C6F8F7
:100FAC004FF48053BB6007F1080319460C4801F05D
:100FBC00ABFB0346002B01D000F0B8F800233B60DC
:100FCC0000237B603B461946054801F073FD034640
:100FDC00002B01D000F0AAF800BF1837BD4680BD29
:100FEC00CC00002080B500AF114B124A1A60104B98
:100FFC004FF416525A600E4B00229A600C4B002292
:10100C00DA600B4B00221A61094B0C225A61084B17
:10101C0000229A61064B0022DA61054801F0B4FD0A
:10102C000346002B01D000F081F800BF80BD00BF4B
:10103C00140100200044004080B586B000AF07F1D9
:10104C00080300221A605A609A60DA602E4B9B6982
:10105C002D4A43F0040393612B4B9B6903F004036B
:10106C007B607B68284B9B69274A43F0080393619C
:10107C00254B9B6903F008033B603B6800224FF64D
:10108C00E071224800F069FD00224EF2FE7120480A
:10109C0000F063FD1323BB600023FB6001233B6165
:1010AC0007F108031946194800F0C6FB4FF6E07328
:1010BC00BB600123FB6000233B6102237B6107F1D2
:1010CC0008031946114800F0B7FB0123BB6000234D
:1010DC00FB6001233B6107F1080319460C4800F043
:1010EC00ABFB4EF2FE73BB600123FB6000233B6144
:1010FC0002237B6107F108031946054800F09CFBAD
:10110C0000BF1837BD4680BD0010024000080140EA
:10111C00000C014080B582B000AF786000F02CF874
:10112C00FFF74AF800BF0837BD4680BD80B400AF5A
:10113C0072B600BFFEE7000080B483B000AF7860E9
:10114C0039603B68094A82FB03129210DB17D21AF2
:10115C0007497B6841F82320064A7B68002142F846
:10116C00231000BF0C37BD4680BC704767666666AF
:10117C00580100206801002080B483B000AF012327
:10118C007B601CE0124A7B6852F82330002B13DD85
:10119C000F4A7B6852F823305A1E0D497B6841F880
:1011AC0023200B4A7B6852F82330002B04DC094ABD
:1011BC007B68012142F823107B6801337B607B68DC
:1011CC00032BDFDD00BF00BF0C37BD4680BC704772
:1011DC00580100206801002080B485B000AF154B89
:1011EC009B69144A43F001039361124B9B6903F012
:1011FC000103BB60BB680F4BDB690E4A43F08053A5
:10120C00D3610C4BDB6903F080537B607B680A4B2A
:10121C005B68FB60FB6823F0E063FB60FB6843F0FA
:10122C008063FB60044AFB68536000BF1437BD4603
:10123C0080BC7047001002400000014080B584B0B3
:10124C0000AF78607B681B68B3F1804F13D10C4BF7
:10125C00DB690B4A43F00103D361094BDB6903F0F3
:10126C000103FB60FB68002200211C2000F0FDF94B
:10127C001C2000F016FA00BF1037BD4680BD00BF21
:10128C000010024080B588B000AF786007F1100301
:10129C0000221A605A609A60DA607B681B681F4AE9
:1012AC00934237D11E4BDB691D4A43F40033D361A3
:1012BC001B4BDB6903F40033FB60FB68184B9B6929
:1012CC00174A43F004039361154B9B6903F0040325
:1012DC00BB60BB6804233B6102237B610323FB617E
:1012EC0007F1100319460F4800F0A6FA08233B61DA
:1012FC0000237B610023BB6107F1100319460948E9
:10130C0000F09AFA00220021262000F0AEF92620E7
:10131C0000F0C7F900BF2037BD4680BD0044004037
:10132C00001002400008014080B400AFFEE780B41A
:10133C0000AFFEE780B400AFFEE780B400AFFEE77D
:10134C0080B400AFFEE780B400AF00BFBD4680BCE8
:10135C00704780B400AF00BFBD4680BC704780B4FE
:10136C0000AF00BFBD4680BC704780B500AF00F039
:10137C0089F800BF80BD000080B500AF024801F0C5
:10138C00BBF800BF80BD00BFCC00002080B500AF13
:10139C00024801F047FC00BF80BD00BF14010020D3
:1013AC0080B400AF00BFBD4680BC70470C480D49EF
:1013BC000D4A002302E0D458C4500433C4188C42A4
:1013CC00F9D30A4A0A4C002301E013600432A2420A
:1013DC00FBD3FFF7E5FF01F0D3FFFFF755FD704797
:1013EC0000000020300000208C3500083000002068
:1013FC007C010020FEE7000080B500AF084B1B68A5
:10140C00074A43F010031360032000F023F90F2068
:10141C0000F008F8FFF7E0FE0023184680BD00BF7F
:10142C000020024080B582B000AF7860124B1A6881
:10143C00124B1B7819464FF47A73B3FBF1F3B2FBE2
:10144C00F3F3184600F03BF90346002B01D00123BF
:10145C000EE07B680F2B0AD8002279684FF0FF3022
:10146C0000F003F9064A7B681360002300E00123B7
:10147C0018460837BD4680BD240000202C000020F3
:10148C002800002080B400AF054B1B781A46054B92
:10149C001B681344034A136000BFBD4680BC7047F1
:1014AC002C0000207801002080B400AF024B1B6898
:1014BC001846BD4680BC70477801002080B485B0CA
:1014CC0000AF78607B6803F00703FB600C4BDB68B4
:1014DC00BB60BA684FF6FF031340BB60FB681A028F
:1014EC00BB68134343F0BF6343F40033BB60044A4F
:1014FC00BB68D36000BF1437BD4680BC704700BFCB
:10150C0000ED00E080B400AF044BDB681B0A03F075
:10151C0007031846BD4680BC704700BF00ED00E0D5
:10152C0080B483B000AF0346FB7197F90730002BF2
:10153C000BDBFB7903F01F02064997F907305B09B7
:10154C00012000FA02F241F8232000BF0C37BD46FF
:10155C0080BC704700E100E080B483B000AF03466C
:10156C003960FB7197F90730002B0ADB3B68DAB264
:10157C000C4997F907301201D2B20B4483F80023BF
:10158C000AE03B68DAB20849FB7903F00F03043B2D
:10159C001201D2B20B441A7600BF0C37BD4680BC88
:1015AC00704700BF00E100E000ED00E080B489B0BE
:1015BC0000AFF860B9607A60FB6803F00703FB6169
:1015CC00FB69C3F10703042B28BF0423BB61FB6930
:1015DC000433062B02D9FB69033B00E000237B613B
:1015EC004FF0FF32BB6902FA03F3DA43BB681A40CF
:1015FC007B699A404FF0FF317B6901FA03F3D943C1
:10160C007B680B40134318462437BD4680BC70479B
:10161C0080B582B000AF78607B68013BB3F1807F0E
:10162C0001D301230FE00A4A7B68013B53600F2171
:10163C004FF0FF30FFF790FF054B00229A60044BF0
:10164C0007221A60002318460837BD4680BD00BF2C
:10165C0010E000E080B582B000AF78607868FFF7EA
:10166C002DFF00BF0837BD4680BD80B586B000AFEA
:10167C000346B9607A60FB7300237B61FFF742FF7E
:10168C0078617A68B9687869FFF790FF024697F934
:10169C000F3011461846FFF75FFF00BF1837BD46E5
:1016AC0080BD80B582B000AF0346FB7197F907305F
:1016BC001846FFF735FF00BF0837BD4680BD80B523
:1016CC0082B000AF78607868FFF7A2FF0346184637
:1016DC000837BD4680BD80B485B000AF786000236C
:1016EC00FB737B6893F82130022B08D07B680422B3
:1016FC009A637B68002283F82020012320E07B681A
:10170C001B681A687B681B6822F00E021A607B68E3
:10171C001B681A687B681B6822F001021A607B68E0
:10172C001A6C7B68DB6B012101FA02F25A607B6850
:10173C00012283F821207B68002283F82020FB7B88
:10174C0018461437BD4680BC7047000080B584B085
:10175C0000AF78600023FB737B6893F82130022B79
:10176C0005D07B6804229A630123FB7351E07B68EC
:10177C001B681A687B681B6822F00E021A607B6873
:10178C001B681A687B681B6822F001021A607B6870
:10179C001B68224A934229D07B681B68204A9342DB
:1017AC0022D07B681B681F4A93421AD07B681B6847
:1017BC001D4A934212D07B681B681C4A93420AD084
:1017CC007B681B681A4A934202D14FF480130EE0D7
:1017DC004FF080730BE04FF4803308E04FF48053EC
:1017EC0005E04FF4807302E0102300E00123114A5E
:1017FC0053607B68012283F821207B68002283F8E8
:10180C0020207B685B6B002B03D07B685B6B78685C
:10181C009847FB7B18461037BD4680BD0800024038
:10182C001C000240300002404400024058000240BC
:10183C006C0002400000024080B48BB000AF7860B6
:10184C00396000237B6200233B6248E101227B6A02
:10185C0002FA03F3FB613B681B68FA691340BB6136
:10186C00BA69FB699A4240F037813B685B68A34ACE
:10187C0093425ED0A14A934275D8A14A934258D064
:10188C009F4A93426FD89F4A934252D09D4A9342AB
:10189C0069D89D4A93424CD09B4A934263D89B4A49
:1018AC00934246D0994A93425DD8122B2AD8122BD8
:1018BC0059D801A252F823F03F1900081919000851
:1018CC002B1900086D19000873190008731900080A
:1018DC0073190008731900087319000873190008AC
:1018EC00731900087319000873190008731900089C
:1018FC0073190008731900087319000821190008DE
:10190C0035190008824A934213D02CE03B68DB68FF
:10191C003B6229E03B68DB6804333B6224E03B68B4
:10192C00DB6808333B621FE03B68DB680C333B62CF
:10193C001AE03B689B68002B02D104233B6213E046
:10194C003B689B68012B05D108233B627B68FA69D5
:10195C001A6109E008233B627B68FA695A6103E06B
:10196C0000233B6200E000BFBB69FF2B01D87B6802
:10197C0001E07B6804337B61BB69FF2B02D87B6A77
:10198C009B0002E07B6A083B9B003B617B691A6809
:10199C000F213B6901FA03F3DB431A40396A3B69B7
:1019AC0001FA03F31A437B691A603B685B6803F026
:1019BC008053002B00F09080564B9B69554A43F0A6
:1019CC0001039361534B9B6903F00103BB60BB683C
:1019DC00514A7B6A9B08023352F82330FB607B6AC6
:1019EC0003F003039B000F2202FA03F3DB43FA68B4
:1019FC001340FB607B68494A93420DD07B68484A90
:101A0C00934207D07B68474A934201D1022304E0FA
:101A1C00032302E0012300E000237A6A02F00302B0
:101A2C0092009340FA681343FB603B497B6A9B0826
:101A3C000233FA6841F823203B685B6803F4803377
:101A4C00002B06D0384B1A683749BB6913430B601F
:101A5C0006E0354B1A68BB69DB43334913400B6016
:101A6C003B685B6803F40033002B06D02E4B5A689E
:101A7C002D49BB6913434B6006E02B4B5A68BB697D
:101A8C00DB43294913404B603B685B6803F48013CC
:101A9C00002B06D0244B9A682349BB6913438B60F7
:101AAC0006E0214B9A68BB69DB431F4913408B60EE
:101ABC003B685B6803F40013002B06D01A4BDA6802
:101ACC001949BB691343CB6006E0174BDA68BB6955
:101ADC00DB4315491340CB607B6A01337B623B6867
:101AEC001A687B6A22FA03F3002B7FF4AFAE00BFB7
:101AFC0000BF2C37BD4680BC704700BF00003210C1
:101B0C000000311000002210000021100000121003
:101B1C0000001110001002400000014000080140BC
:101B2C00000C0140001001400004014080B485B05D
:101B3C0000AF78600B467B807B689A687B8813408B
:101B4C00002B02D00123FB7301E00023FB73FB7B12
:101B5C0018461437BD4680BC704780B483B000AFC4
:101B6C0078600B467B8013467B707B78002B03D010
:101B7C007A887B681A6103E07B881A047B681A6197
:101B8C0000BF0C37BD4680BC7047000080B586B0E6
:101B9C0000AF78607B68002B01D101236CE27B687D
:101BAC001B6803F00103002B00F08780924B5B68ED
:101BBC0003F00C03042B0CD08F4B5B6803F00C036D
:101BCC00082B12D18C4B5B6803F48033B3F5803F48
:101BDC000BD1894B1B6803F40033002B6CD07B6852
:101BEC005B68002B68D1012346E27B685B68B3F528
:101BFC00803F06D1804B1B687F4A43F480331360CF
:101C0C002EE07B685B68002B0CD17B4B1B687A4AFF
:101C1C0023F480331360784B1B68774A23F48023BA
:101C2C0013601DE07B685B68B3F5A02F0CD1724B81
:101C3C001B68714A43F4802313606F4B1B686E4A18
:101C4C0043F4803313600BE06B4B1B686A4A23F43C
:101C5C0080331360684B1B68674A23F4802313603E
:101C6C007B685B68002B13D0FFF71EFC386108E023
:101C7C00FFF71AFC02463B69D31A642B01D90323E4
:101C8C00FAE15D4B1B6803F40033002BF0D014E039
:101C9C00FFF70AFC386108E0FFF706FC02463B69D7
:101CAC00D31A642B01D90323E6E1534B1B6803F4CD
:101CBC000033002BF0D100E000BF7B681B6803F001
:101CCC000203002B63D04C4B5B6803F00C03002B1E
:101CDC000BD0494B5B6803F00C03082B1CD1464B13
:101CEC005B6803F48033002B16D1434B1B6803F065
:101CFC000203002B05D07B681B69012B01D001234B
:101D0C00BAE13D4B1B6823F0F8027B685B69DB0092
:101D1C00394913430B603AE07B681B69002B20D0D8
:101D2C00364B01221A60FFF7BFFB386108E0FFF762
:101D3C00BBFB02463B69D31A022B01D903239BE15F
:101D4C002D4B1B6803F00203002BF0D02A4B1B68B1
:101D5C0023F0F8027B685B69DB00274913430B60B7
:101D6C0015E0264B00221A60FFF79EFB386108E055
:101D7C00FFF79AFB02463B69D31A022B01D90323C6
:101D8C007AE11D4B1B6803F00203002BF0D17B683A
:101D9C001B6803F00803002B3AD07B689B69002B6F
:101DAC0019D0174B01221A60FFF77EFB386108E04F
:101DBC00FFF77AFB02463B69D31A022B01D90323A6
:101DCC005AE10D4B5B6A03F00203002BF0D00120AB
:101DDC0000F0D8FA1CE00A4B00221A60FFF764FBF3
:101DEC0038610FE0FFF760FB02463B69D31A022B08
:101DFC0008D9032340E100BF00100240000042421A
:101E0C00800442429E4B5B6A03F00203002BE9D133
:101E1C007B681B6803F00403002B00F0A6800023F2
:101E2C00FB75974BDB6903F08053002B0DD1944B62
:101E3C00DB69934A43F08053D361914BDB6903F028
:101E4C008053BB60BB680123FB758E4B1B6803F48E
:101E5C008073002B18D18B4B1B688A4A43F4807318
:101E6C001360FFF721FB386108E0FFF71DFB02460A
:101E7C003B69D31A642B01D90323FDE0814B1B680A
:101E8C0003F48073002BF0D07B68DB68012B06D148
:101E9C007B4B1B6A7A4A43F0010313622DE07B688B
:101EAC00DB68002B0CD1764B1B6A754A23F00103BF
:101EBC001362734B1B6A724A23F0040313621CE017
:101ECC007B68DB68052B0CD16D4B1B6A6C4A43F0AD
:101EDC00040313626A4B1B6A694A43F001031362E1
:101EEC000BE0674B1B6A664A23F001031362644BD9
:101EFC001B6A634A23F0040313627B68DB68002BC4
:101F0C0015D0FFF7D1FA38610AE0FFF7CDFA024697
:101F1C003B69D31A41F28832934201D90323ABE0D7
:101F2C00574B1B6A03F00203002BEED014E0FFF7B3
:101F3C00BBFA38610AE0FFF7B7FA02463B69D31ADD
:101F4C0041F28832934201D9032395E04C4B1B6A32
:101F5C0003F00203002BEED1FB7D012B05D1484B86
:101F6C00DB69474A23F08053D3617B68DB69002B24
:101F7C0000F08180424B5B6803F00C03082B61D0AE
:101F8C007B68DB69022B46D13F4B00221A60FFF7BE
:101F9C008BFA386108E0FFF787FA02463B69D31ADF
:101FAC00022B01D9032367E0354B1B6803F0007348
:101FBC00002BF0D17B681B6AB3F5803F08D1304B06
:101FCC005B6823F400327B689B682D4913434B609C
:101FDC002B4B5B6823F474127B68196A7B685B6A11
:101FEC000B43274913434B60274B01221A60FFF721
:101FFC005BFA386108E0FFF757FA02463B69D31ADF
:10200C00022B01D9032337E01D4B1B6803F000732F
:10201C00002BF0D02FE01C4B00221A60FFF744FA83
:10202C00386108E0FFF740FA02463B69D31A022BED
:10203C0001D9032320E0124B1B6803F00073002B23
:10204C00F0D118E07B68DB69012B01D1012313E08F
:10205C000B4B5B68FB60FB6803F480327B681B6A8C
:10206C009A4206D1FB6803F470127B685B6A9A4251
:10207C0001D0012300E0002318461837BD4680BD6F
:10208C0000100240007000406000424280B584B0F5
:10209C0000AF786039607B68002B01D10123D0E060
:1020AC006A4B1B6803F007033A689A4210D9674BD6
:1020BC001B6823F0070265493B6813430B60634BB5
:1020CC001B6803F007033A689A4201D00123B8E079
:1020DC007B681B6803F00203002B20D07B681B6815
:1020EC0003F00403002B05D0594B5B68584A43F4AA
:1020FC00E06353607B681B6803F00803002B05D07A
:10210C00534B5B68524A43F460535360504B5B68CB
:10211C0023F0F0027B689B684D4913434B607B684E
:10212C001B6803F00103002B40D07B685B68012B1C
:10213C0007D1474B1B6803F40033002B15D1012347
:10214C007FE07B685B68022B07D1414B1B6803F077
:10215C000073002B09D1012373E03D4B1B6803F086
:10216C000203002B01D101236BE0394B5B6823F098
:10217C0003027B685B68364913434B60FFF794F9A5
:10218C00F8600AE0FFF790F90246FB68D31A41F2B7
:10219C008832934201D9032353E02D4B5B6803F043
:1021AC000C027B685B689B009A42EBD1274B1B6847
:1021BC0003F007033A689A4210D2244B1B6823F0B1
:1021CC00070222493B6813430B60204B1B6803F04A
:1021DC0007033A689A4201D0012332E07B681B68FE
:1021EC0003F00403002B08D0194B5B6823F4E06266
:1021FC007B68DB68164913434B607B681B6803F0F4
:10220C000803002B09D0124B5B6823F460527B68E7
:10221C001B69DB000E4913434B6000F021F80246AA
:10222C000B4B5B681B0903F00F030A49CB5C22FACA
:10223C0003F3094A1360094B1B681846FFF7F2F8C1
:10224C00002318461037BD4680BD00BF0020024059
:10225C00001002406C3500082400002028000020EB
:10226C0090B48AB000AF2A4B3C1D0FCB84E80F0012
:10227C0040F201233B800023FB610023BB61002360
:10228C007B6200237B6100233B62224B5B68FB611A
:10229C00FB6903F00C03042B02D0082B03D02DE0B8
:1022AC001D4B3B622DE0FB699B0C03F00F0307F108
:1022BC002802134413F8243C7B61FB6903F480333C
:1022CC00002B13D0134B5B685B0C03F0010307F17D
:1022DC002802134413F8283CBB617B690E4A02FBAD
:1022EC0003F2BB69B2FBF3F37B6204E07B690B4A3C
:1022FC0002FB03F37B627B6A3B6202E0064B3B62B0
:10230C0000BF3B6A18462837BD4690BC704700BFDB
:10231C005C3500080010024000127A0000093D00F4
:10232C0080B400AF024B1B681846BD4680BC70479A
:10233C002400002080B500AFFFF7F2FF0246054BEA
:10234C005B681B0A03F007030349CB5C22FA03F317
:10235C00184680BD001002407C35000880B500AFE7
:10236C00FFF7DEFF0246054B5B68DB0A03F0070351
:10237C000349CB5C22FA03F3184680BD00100240DF
:10238C007C35000880B485B000AF78600A4B1B68C0
:10239C000A4AA2FB03235B0A7A6802FB03F3FB6085
:1023AC0000BFFB685A1EFA60002BF9D100BF00BFBA
:1023BC001437BD4680BC704724000020D34D6210FA
:1023CC0080B582B000AF78607B68002B01D101230F
:1023DC0041E07B6893F83D30DBB2002B06D17B6883
:1023EC00002283F83C207868FEF728FF7B680222E5
:1023FC0083F83D207B681A687B68043319461046C5
:10240C0000F06AFA7B68012283F846207B6801227F
:10241C0083F83E207B68012283F83F207B680122F1
:10242C0083F840207B68012283F841207B680122DD
:10243C0083F842207B68012283F843207B680122C9
:10244C0083F844207B68012283F845207B680122B5
:10245C0083F83D20002318460837BD4680BD000098
:10246C0080B485B000AF78607B6893F83D30DBB208
:10247C00012B01D0012335E07B68022283F83D203B
:10248C007B681B68DA687B681B6842F00102DA60C3
:10249C007B681B68164A934209D07B681B68B3F1B2
:1024AC00804F04D07B681B68124A934211D17B6821
:1024BC001B689B6803F00703FB60FB68062B10D0BE
:1024CC007B681B681A687B681B6842F001021A6003
:1024DC0007E07B681B681A687B681B6842F0010286
:1024EC001A60002318461437BD4680BC704700BFE5
:1024FC00002C01400004004080B582B000AF786031
:10250C007B681B681B6903F00203022B22D17B68DA
:10251C001B68DB6803F00203022B1BD17B681B6872
:10252C006FF002021A617B6801221A777B681B68C4
:10253C009B6903F00303002B03D0786800F0B1F91A
:10254C0005E0786800F0A4F9786800F0B3F97B68CE
:10255C0000221A777B681B681B6903F00403042BA9
:10256C0022D17B681B68DB6803F00403042B1BD1AE
:10257C007B681B686FF004021A617B6802221A7771
:10258C007B681B689B6903F44073002B03D078684D
:10259C0000F087F905E0786800F07AF9786800F0C7
:1025AC0089F97B6800221A777B681B681B6903F02A
:1025BC000803082B22D17B681B68DB6803F0080337
:1025CC00082B1BD17B681B686FF008021A617B68B3
:1025DC0004221A777B681B68DB6903F00303002B6A
:1025EC0003D0786800F05DF905E0786800F050F9E8
:1025FC00786800F05FF97B6800221A777B681B68AB
:10260C001B6903F01003102B22D17B681B68DB685D
:10261C0003F01003102B1BD17B681B686FF01002AA
:10262C001A617B6808221A777B681B68DB6903F4E4
:10263C004073002B03D0786800F033F905E078681C
:10264C0000F026F9786800F035F97B6800221A77DB
:10265C007B681B681B6903F00103012B0ED17B689F
:10266C001B68DB6803F00103012B07D17B681B6837
:10267C006FF001021A617868FEF74CFD7B681B68ED
:10268C001B6903F08003802B0ED17B681B68DB6811
:10269C0003F08003802B07D17B681B686FF08002EE
:1026AC001A61786800F067FA7B681B681B6903F095
:1026BC004003402B0ED17B681B68DB6803F04003A2
:1026CC00402B07D17B681B686FF040021A61786859
:1026DC0000F0F9F87B681B681B6903F02003202BC2
:1026EC000ED17B681B68DB6803F02003202B07D11D
:1026FC007B681B686FF020021A61786800F032FA70
:10270C0000BF0837BD4680BD80B584B000AF78608F
:10271C0039607B6893F83C30012B01D10223B3E084
:10272C007B68012283F83C207B68022283F83D20E1
:10273C007B681B689B68FB60FB6823F07703FB607E
:10274C00FB6823F47F43FB607B681B68FA689A6024
:10275C003B681B68B3F5005F3ED0B3F5005F00F239
:10276C008780B3F5805F00F08580B3F5805F7FD8FC
:10277C00702B1AD0702B7BD8602B50D0602B77D855
:10278C00502B3CD0502B73D8402B58D0402B6FD8AB
:10279C00302B64D0302B6BD8202B60D0202B67D8FB
:1027AC00002B5CD0102B5AD062E07B6818683B6819
:1027BC0099683B685A683B68DB6800F05CF97B6899
:1027CC001B689B68FB60FB6843F07703FB607B68CE
:1027DC001B68FA689A604EE07B6818683B689968D9
:1027EC003B685A683B68DB6800F045F97B681B68FE
:1027FC009A687B681B6842F480429A603BE07B6875
:10280C0018683B6859683B68DB681A4600F0BCF8EE
:10281C007B681B685021184600F013F92BE07B688D
:10282C0018683B6859683B68DB681A4600F0DAF8B0
:10283C007B681B686021184600F003F91BE07B687D
:10284C0018683B6859683B68DB681A4600F09CF8CE
:10285C007B681B684021184600F0F3F80BE07B689E
:10286C001A683B681B681946104600F0EAF802E04B
:10287C0000BF00E000BF7B68012283F83D207B682D
:10288C00002283F83C20002318461037BD4680BD3B
:10289C0080B483B000AF786000BF0C37BD4680BCFD
:1028AC00704780B483B000AF786000BF0C37BD4672
:1028BC0080BC704780B483B000AF786000BF0C3729
:1028CC00BD4680BC704780B483B000AF786000BF59
:1028DC000C37BD4680BC704780B485B000AF7860C3
:1028EC0039607B681B68FB607B68254A934207D084
:1028FC007B68B3F1804F03D07B68224A934208D1A6
:10290C00FB6823F07003FB603B685B68FA68134359
:10291C00FB607B681A4A934207D07B68B3F1804F07
:10292C0003D07B68174A934208D1FB6823F44073A9
:10293C00FB603B68DB68FA681343FB60FB6823F0C1
:10294C0080023B685B691343FB607B68FA681A6022
:10295C003B689A687B68DA623B681A687B689A62A3
:10296C007B68074A934203D13B681A697B681A63F8
:10297C007B6801225A6100BF1437BD4680BC70478A
:10298C00002C01400004004080B487B000AFF86018
:10299C00B9607A60FB681B6A7B61FB681B6A23F079
:1029AC000102FB681A62FB689B693B613B6923F07F
:1029BC00F0033B617B681B013A6913433B617B6904
:1029CC0023F00A037B617A69BB6813437B61FB6864
:1029DC003A699A61FB687A691A6200BF1C37BD4676
:1029EC0080BC704780B487B000AFF860B9607A6083
:1029FC00FB681B6A23F01002FB681A62FB689B6978
:102A0C007B61FB681B6A3B617B6923F470437B61D0
:102A1C007B681B037A6913437B613B6923F0A0033A
:102A2C003B61BB681B013A6913433B61FB687A69E4
:102A3C009A61FB683A691A6200BF1C37BD4680BCBC
:102A4C00704780B485B000AF786039607B689B6854
:102A5C00FB60FB6823F07003FB603A68FB68134370
:102A6C0043F00703FB607B68FA689A6000BF143779
:102A7C00BD4680BC704780B487B000AFF860B960C9
:102A8C007A603B60FB689B687B617B6923F47F43C6
:102A9C007B613B681A027B681A43BB6813437A69F3
:102AAC0013437B61FB687A699A6000BF1C37BD4693
:102ABC0080BC704780B485B000AF786039607B68AB
:102ACC0093F83C30012B01D1022341E07B680122B9
:102ADC0083F83C207B68022283F83D207B681B68CE
:102AEC005B68FB607B681B689B68BB60FB6823F0C2
:102AFC007003FB603B681B68FA681343FB607B68E0
:102B0C001B68FA685A607B681B68144A934209D0A8
:102B1C007B681B68B3F1804F04D07B681B68104A3C
:102B2C0093420CD1BB6823F08003BB603B685B68AD
:102B3C00BA681343BB607B681B68BA689A607B6891
:102B4C00012283F83D207B68002283F83C2000237F
:102B5C0018461437BD4680BC704700BF002C01409E
:102B6C000004004080B483B000AF786000BF0C3725
:102B7C00BD4680BC704780B483B000AF786000BFA6
:102B8C000C37BD4680BC704780B582B000AF786012
:102B9C007B68002B01D101233FE07B6893F83D302B
:102BAC00DBB2002B06D17B68002283F83C207868CE
:102BBC00FEF768FB7B68242283F83D207B681B684A
:102BCC00DA687B681B6822F40052DA60786800F0DF
:102BDC0049FB7B681B681A697B681B6822F490426E
:102BEC001A617B681B685A697B681B6822F02A0291
:102BFC005A617B681B68DA687B681B6842F4005278
:102C0C00DA607B6800221A647B68202283F83D20FE
:102C1C007B68202283F83E20002318460837BD46E7
:102C2C0080BD000080B58AB000AF78607B681B68FF
:102C3C001B687B627B681B68DB683B627B681B687C
:102C4C005B69FB610023BB6100237B617B6A03F042
:102C5C000F03BB61BB69002B0DD17B6A03F0200312
:102C6C00002B08D03B6A03F02003002B03D07868BC
:102C7C0000F04FFA7BE1BB69002B00F0B180FB69DF
:102C8C0003F00103002B05D13B6A03F49073002B76
:102C9C0000F0A6807B6A03F00103002B0AD03B6A8C
:102CAC0003F48073002B05D07B681B6C43F001028E
:102CBC007B681A647B6A03F00403002B0AD0FB695F
:102CCC0003F00103002B05D07B681B6C43F0020260
:102CDC007B681A647B6A03F00203002B0AD0FB6941
:102CEC0003F00103002B05D07B681B6C43F004023E
:102CFC007B681A647B6A03F00803002B0FD03B6AD5
:102D0C0003F02003002B04D1FB6903F00103002B1B
:102D1C0005D07B681B6C43F008027B681A647B68E7
:102D2C001B6C002B00F01E817B6A03F02003002B30
:102D3C0007D03B6A03F02003002B02D0786800F028
:102D4C00E8F97B681B685B6903F04003002B14BF38
:102D5C0001230023DBB27B617B681B6C03F008034F
:102D6C00002B02D17B69002B31D0786800F02AF956
:102D7C007B681B685B6903F04003002B23D07B68E6
:102D8C001B685A697B681B6822F040025A617B6899
:102D9C009B6B002B13D07B689B6B764A5A637B68CA
:102DAC009B6B1846FEF7D2FC0346002B16D07B68B3
:102DBC009B6B5B6B7A68926B104698470EE0786859
:102DCC0000F0ECF80AE0786800F0E8F806E07868C3
:102DDC0000F0E4F87B6800221A64C3E000BFC1E095
:102DEC007B681B6B012B40F0A1807B6A03F0100306
:102DFC00002B00F09B803B6A03F01003002B00F0CB
:102E0C0095800023FB607B681B681B68FB607B68FC
:102E1C001B685B68FB60FB687B681B685B6903F085
:102E2C004003002B4ED07B689B6B1B685B683B821E
:102E3C003B8A002B00F098807B689B8D3A8A9A42E3
:102E4C0080F092807B683A8ADA857B689B6B9B6901
:102E5C00202B2BD07B681B68DA687B681B6822F4FC
:102E6C008072DA607B681B685A697B681B6822F089
:102E7C0001025A617B681B685A697B681B6822F0E7
:102E8C0040025A617B68202283F83E207B68002236
:102E9C001A637B681B68DA687B681B6822F0100277
:102EAC00DA607B689B6B1846FEF715FC7B689A8D85
:102EBC007B68DB8D9BB2D31A9BB21946786800F005
:102ECC0076F851E07B689A8D7B68DB8D9BB2D31AC8
:102EDC007B827B68DB8D9BB2002B47D07B8A002BDF
:102EEC0044D07B681B68DA687B681B6822F490729C
:102EFC00DA607B681B685A697B681B6822F00102E8
:102F0C005A617B68202283F83E207B6800221A637A
:102F1C007B681B68DA687B681B6822F01002DA6039
:102F2C007B8A1946786800F042F81FE07B6A03F050
:102F3C008003002B08D03B6A03F08003002B03D0E6
:102F4C00786800F07FF812E07B6A03F04003002BF6
:102F5C000DD03B6A03F04003002B08D0786800F0DA
:102F6C00C0F804E000BF02E000BF00E000BF28375B
:102F7C00BD4680BD2930000880B483B000AF7860B6
:102F8C0000BF0C37BD4680BC704780B483B000AF27
:102F9C00786000BF0C37BD4680BC704780B483B0EE
:102FAC0000AF786000BF0C37BD4680BC704780B462
:102FBC0083B000AF78600B467B8000BF0C37BD46FA
:102FCC0080BC704780B483B000AF78607B681B68AE
:102FDC00DA687B681B6822F49072DA607B681B6885
:102FEC005A697B681B6822F001025A617B681B6B73
:102FFC00012B07D17B681B68DA687B681B6822F0A1
:10300C001002DA607B68202283F83E207B68002265
:10301C001A6300BF0C37BD4680BC704780B584B0C6
:10302C0000AF78607B685B6AFB60FB680022DA8526
:10303C00FB680022DA84F868FFF7B0FF00BF103796
:10304C00BD4680BD80B485B000AF78607B6893F8D6
:10305C003D30DBB2212B3ED17B689B68B3F5805FA2
:10306C0014D17B681B69002B10D17B681B6AFB6039
:10307C00FB681B881A467B681B68C2F308025A60FF
:10308C007B681B6A9A1C7B681A6208E07B681B6A67
:10309C00591C7A6811621A787B681B685A607B68C5
:1030AC00DB8C9BB2013B9BB27A681946D184002B16
:1030BC000FD17B681B68DA687B681B6822F0800282
:1030CC00DA607B681B68DA687B681B6842F0400238
:1030DC00DA60002300E0022318461437BD4680BC9A
:1030EC00704780B582B000AF78607B681B68DA6887
:1030FC007B681B6822F04002DA607B68202283F830
:10310C003D207868FFF738FF002318460837BD4686
:10311C0080BD80B586B000AF78607B6893F83E3098
:10312C00DBB2222B40F099807B689B68B3F5805F03
:10313C0017D17B681B69002B13D100237B617B6843
:10314C009B6A3B617B681B685B689BB2C3F308039B
:10315C009AB23B691A807B689B6A9A1C7B689A625C
:10316C0026E07B689B6A7B6100233B617B689B68E4
:10317C00B3F5805F07D07B689B68002B0AD17B6816
:10318C001B69002B06D17B681B685B68DAB27B6914
:10319C001A7008E07B681B685B68DBB203F07F0386
:1031AC00DAB27B691A707B689B6A5A1C7B689A62DC
:1031BC007B68DB8D9BB2013B9BB27A681946D1854B
:1031CC00002B48D17B681B68DA687B681B6822F08F
:1031DC002002DA607B681B68DA687B681B6822F463
:1031EC008072DA607B681B685A697B681B6822F006
:1031FC0001025A617B68202283F83E207B681B6B9E
:10320C00012B23D17B6800221A637B681B68DA6868
:10321C007B681B6822F01002DA607B681B681B68F5
:10322C0003F01003102B0AD10023FB607B681B6892
:10323C001B68FB607B681B685B68FB60FB687B68DA
:10324C009B8D19467868FFF7B2FE02E07868FFF7AD
:10325C009CFE002302E0002300E0022318461837EE
:10326C00BD4680BD80B584B000AF78607B681B68BC
:10327C001B6923F440517B68DA687B681B680A433E
:10328C001A617B689A687B681B691A437B685B6967
:10329C001343BB607B681B68DB6823F4B05323F0DB
:1032AC000C037A681268B9680B43D3607B681B689F
:1032BC005B6923F440717B689A697B681B680A43DD
:1032CC005A617B681B682C4A934203D1FFF746F87E
:1032DC00F86002E0FFF72EF8F860FA6813469B00DE
:1032EC0013449A001A447B685B689B00B2FBF3F3AF
:1032FC00224AA2FB03235B091901FA6813469B00BF
:10330C0013449A001A447B685B689B00B2FBF3F28F
:10331C001A4BA3FB02035B09642000FB03F3D31AD3
:10332C001B013233154AA2FB03235B0903F0F003A4
:10333C001944FA6813469B0013449A001A447B689C
:10334C005B689B00B2FBF3F20C4BA3FB02035B0923
:10335C00642000FB03F3D31A1B013233074AA2FB90
:10336C0003235B0903F00F027B681B680A449A6015
:10337C0000BF1037BD4680BD003801401F85EB51A2
:10338C0070B500260C4D0D4C641BA410A64209D13F
:10339C0000F030F800260A4D0A4C641BA410A6421B
:1033AC0005D170BD55F8043B98470136EEE755F84A
:1033BC00043B98470136F2E7843500088435000851
:1033CC0084350008883500080A44914200F1FF3327
:1033DC0000D1704710B511F8014B914203F8014F21
:1033EC00F9D110BD03460244934200D1704703F853
:1033FC00011BF9E7F8B500BFF8BC08BC9E46704746
:0C340C00F8B500BFF8BC08BC9E46704735
:1034180000000000000000000000000000000000A4
:103428000000000000000000010000000100000092
:103438000000000000000000010000000100000082
:103448000100000001000000000000000000000072
:103458000100000000000000000000000100000062
:103468000000000000000000000000000000000054
:103478000000000001000000010000000000000042
:103488000100000000000000000000000100000032
:103498000100000000000000000000000000000023
:1034A8000100000000000000000000000100000012
:1034B8000000000000000000000000000100000003
:1034C80000000000000000000000000000000000F4
:1034D80000000000000000000000000000000000E4
:1034E80001000000010000000100000001000000D0
:1034F80000000000000000000000000000000000C4
:1035080000000000000000000000000000000000B3
:1035180000000000000000000000000001000000A2
:1035280000000000000000000200040020008000ED
:103538000002000800100000000C0140000C0140CF
:10354800000801400008014000080140000801404F
:103558000008014002030405060708090A0B0C0DC0
:103568000E0F10100000000000000000010203040C
:0C3578000607080900000000010203041F
:043584003101000809
:043588000D01000829
:10358C000200000090010000010000008813000000
:10359C00D0070000B80B0000010000000100000083
:1035AC00010000000024F4001000000001000000E5
:04000005080013B923
:00000001FF
