:020000040800F2
:1000000000500020851D0008011D0008071D000884
:100010000D1D0008131D0008191D00080000000038
:100020000000000000000000000000001F1D00088C
:100030002B1D000800000000371D0008431D0008AC
:10004000CD1D0008CD1D0008CD1D0008CD1D0008E8
:10005000CD1D0008CD1D0008CD1D0008CD1D0008D8
:10006000CD1D0008CD1D0008CD1D0008CD1D0008C8
:10007000CD1D0008CD1D0008CD1D0008CD1D0008B8
:10008000CD1D0008CD1D0008CD1D0008CD1D0008A8
:10009000CD1D0008CD1D0008CD1D0008CD1D000898
:1000A000CD1D0008CD1D0008CD1D0008CD1D000888
:1000B000511D0008CD1D0008CD1D0008CD1D0008F4
:1000C000CD1D0008CD1D0008CD1D0008CD1D000868
:1000D000CD1D0008CD1D0008651D0008CD1D0008C0
:1000E000CD1D0008CD1D0008CD1D0008000000003A
:1000F0000000000000000000000000000000000000
:0C01000000000000000000005FF808F1A3
:10010C0010B5054C237833B9044B13B10448AFF345
:10011C0000800123237010BDA0000020000000000F
:10012C00E04F000808B5034B1BB103490348AFF37C
:10013C00008008BD00000000A4000020E04F000873
:10014C0080B582B000AF01237B6098E0504A7B6899
:10015C0052F823204F497B6841F823204E4A7B6894
:10016C0052F823204A497B6841F823207B68012BF5
:10017C0009D10221494802F0C9F903461946464AF9
:10018C007B6842F823107B68022B09D1102143486D
:10019C0002F0BCF9034619463F4A7B6842F823102B
:1001AC007B68032B09D101213D4802F0AFF90346CE
:1001BC001946394A7B6842F823107B68042B09D115
:1001CC000121364802F0A2F903461946324A7B68EF
:1001DC0042F823102F4A7B6852F823202C497B6865
:1001EC0051F823309A4247D1294A7B6852F8232090
:1001FC0029497B6851F823309A423DD1294A7B68C2
:10020C0052F8232024497B6851F823309A4216D0A7
:10021C00214A7B6852F8232022497B6841F823202D
:10022C001D4A7B6852F82330002B25D1786800F0EA
:10023C005BF81D4A7B68C82142F823101CE01A4A5F
:10024C007B6852F823305A1E17497B6841F82320EB
:10025C00154A7B6852F82330002B0DD10E4A7B686F
:10026C0052F82330002B02D1786800F03DF80E4A8A
:10027C007B68C82142F823107B6801337B607B6864
:10028C00042B7FF763AF00BF00BF0837BD4680BDAE
:10029C0050010020F40000208C01002000080140D7
:1002AC00000C0140E00000206401002080B483B009
:1002BC0000AF78607B68042B01DD00230DE0094A58
:1002CC007B6852F82330002B06D0064A7B6800214D
:1002DC0042F82310012300E0002318460C37BD46DA
:1002EC0080BC70477801002080B483B000AF786088
:1002FC00044A7B68012142F8231000BF0C37BD462D
:10030C0080BC70477801002084B080B500AF07F145
:10031C00080C8CE80F000120FFF7C8FF0346002BE8
:10032C0006D0BA4B03221A60B94B01221A6067E15E
:10033C00B74B1B68012B4DD0002B40F36181502B28
:10034C0000F35E81322BC0F25B81323B1E2B00F23C
:10035C00578101A252F823F0590400080D06000839
:10036C000D0600080D0600080D0600080D06000815
:10037C000D0600080D0600080D0600080D06000805
:10038C00B90400080D0600080D0600080D0600084B
:10039C000D0600080D0600080D0600080D060008E5
:1003AC000D0600080D060008210500080D060008C2
:1003BC000D0600080D0600080D0600080D060008C5
:1003CC000D0600080D0600080D0600080D060008B5
:1003DC007F0500084FF4FA7318228E4907F10800C4
:1003EC0003F089FC00F02CFD8B4B4FF4C8721A60A3
:1003FC00874B32221A604FF4FA730A22874907F1AD
:10040C00080003F078FC864B1B681946012001F0AC
:10041C0033FB4FF47A71062001F02EFB814B1B68E5
:10042C00814A82FB03129211DB17D31A7F4A1360A5
:10043C007B4B1B687C4A82FB03129211DB17D31A8D
:10044C007B4A13607B4B01221A60D9E000F020FD3F
:10045C00794B5B68012B40F0CC806D4B3C221A60D1
:10046C004FF4FA731022754907F1080003F043FCAE
:10047C00734B1B681946012001F0FEFA704B1B6888
:10048C00694A82FB03129211DB17D31A674A136075
:10049C006B4B1B68644A82FB03129211DB17D31A55
:1004AC00634A1360634B01221A60A2E000F00EFD58
:1004BC00614B5B68012B40F09E80554B46221A60C5
:1004CC004FF4FA7310225F4907F1080003F013FC94
:1004DC00534B1B681946012001F0CEFA504B1B6898
:1004EC00514A82FB03129211DB17D31A4F4A136045
:1004FC004C4B1B684C4A82FB03129211DB17D31A2C
:10050C004B4A13604B4B01221A60434B4FF4C87299
:10051C001A6070E000F0F8FC474B5B68012B6CD163
:10052C003B4B50221A604FF4FA731022464907F1E4
:10053C00080003F0E0FB424B1B681946012001F058
:10054C009BFA3F4B1B68384A82FB03129211DB1754
:10055C00D31A364A13603A4B1B68334A82FB031298
:10056C009211DB17D31A324A1360324B01221A60F4
:10057C0043E000F0E7FC304B5B68012B3FD1244B90
:10058C0032221A604FF4FA731022244907F1080042
:10059C0003F0B1FB224B1B681946012001F06CFAE9
:1005AC00204B1B68204A82FB03129211DB17D31AD3
:1005BC001E4A13601A4B1B681B4A82FB03129211D2
:1005CC00DB17D31A1A4A13601A4B01221A60124B0A
:1005DC001B68B3F5167F12D14FF4FA7318221B491E
:1005EC0007F1080003F087FB0B4B4FF4FA721A600B
:1005FC0005E000BF04E000BF02E000BF00E000BF68
:10060C00BD46BDE8804004B0704700BF0400002028
:10061C0010000020F84F00080800002010500008BF
:10062C001C00002014000020D34D6210200000207C
:10063C002400002028000020B40200201C500008D8
:10064C0018000020285000083450000840500008C2
:10065C0084B080B500AF07F1080C8CE80F00A04BFC
:10066C005B68012B06D19F4B02221A609E4B012224
:10067C001A60FCE29C4B1B68B3F5A07F00F0338240
:10068C00B3F5A07F00F3C582DC2B00F05181DC2B8D
:10069C0000F3BF82012B02D0782B4CD0B9E24FF47F
:1006AC00FA731822914907F1080003F024FB8E4BD2
:1006BC0078221A608E4B1B688E4A13608C4B1B6819
:1006CC008D4A82FB03129211DB17D31A8B4A1360EB
:1006DC00854B1B688A4A136041F28831012001F076
:1006EC00CBF94FF4FA71022001F0C6F9FA2103207C
:1006FC0001F0C2F94FF4FA731A22824907F108008B
:10070C0003F0F9FA4FF4FA7310227F4907F108004D
:10071C0003F0F1FA794B1B681A467C497C4804F0CB
:10072C00C7F803469AB24FF4FA73794907F10800F7
:10073C0003F0E1FA9BE26A4B9B68012B06D100F0B7
:10074C001FFC4FF4FA71022001F096F90120FFF71B
:10075C00ADFD0346002B42D0634BDC221A606D4B7F
:10076C001B68644A13606B4B1B68634A82FB031261
:10077C009211DB17D31A614A13605B4B1B68604AFA
:10078C00136041F28831012001F076F94FF4FA71CF
:10079C00022001F071F9FA21032001F06DF94FF4F8
:1007AC00FA731C225C4907F1080003F0A4FA4FF419
:1007BC00FA731022544907F1080003F09CFA4F4BCE
:1007CC001B681A465149524804F072F803469AB213
:1007DC004FF4FA734E4907F1080003F08CFA02202B
:1007EC00FFF764FD0346012B31D1424B1B6803F527
:1007FC007A73404A13604FF4FA731022474907F199
:10080C00080003F078FA3B4B1B683B4A82FB03124F
:10081C009211DB17D31A1A463C493D4804F048F8AC
:10082C0003469AB24FF4FA73394907F1080003F002
:10083C0062FA304B1B683A4A934203DD2D4B4FF45E
:10084C007A721A6041F28831012001F015F9032007
:10085C00FFF72CFD0346012B40F0DD81254B1B6877
:10086C00234A1360224B1A682A4B1B68D31A2D4A51
:10087C00136041F28831012001F0FEF81C4B1B681B
:10088C001D4A82FB03129211DB17D31A1B4A136009
:10089C00144B02221A60144B01221A604FF4FA73A3
:1008AC000F22214907F1080003F025FA4FF4FA73DF
:1008BC000F221E4907F1080003F01DFA0F4B1B68AD
:1008CC001A461249124803F0F3FF03469AB24FF44A
:1008DC00FA730F4907F1080003F00DFA9BE100BF12
:1008EC00B402002004000020100000205C5000081E
:1008FC0014000020C4000020D34D62102000002002
:10090C0024000020705000088850000898500008FF
:10091C00C001002018000020A0500008BC500008A6
:10092C00B88201001C000020CC500008DC500008EC
:10093C00BA4B9B68012B06D100F062FB4FF4FA71A5
:10094C00022001F099F80120FFF7B0FC0346002BC0
:10095C0049D0B34B4FF4A0721A60B24B1B68B24A29
:10096C0082FB03129211DB17D31AB04A1360AD4B02
:10097C001B68AD4A82FB03129211DB17D31AAC4AE7
:10098C001360A74B1B68AB4A136041F288310120FE
:10099C0001F072F84FF4FA71022001F06DF8FA21AF
:1009AC00032001F069F84FF4FA731B22A24907F1F6
:1009BC00080003F0A0F94FF4FA7310229F4907F1D5
:1009CC00080003F098F99A4B1B681A469C499D48FD
:1009DC0003F06EFF03469AB24FF4FA73994907F18C
:1009EC00080003F088F90220FFF760FC0346012B96
:1009FC0031D18E4B1B6803F57A738C4A13604FF41C
:100A0C00FA731022904907F1080003F074F9874B30
:100A1C001B68854A82FB03129211DB17D31A1A4604
:100A2C008749884803F044FF03469AB24FF4FA739F
:100A3C00844907F1080003F05EF97C4B1B68834A7C
:100A4C00934203DD794B4FF47A721A6041F288318C
:100A5C00012001F011F80320FFF728FC0346012BBD
:100A6C0040F00281714B1B68794A1360784B1A680D
:100A7C006C4B1B681344774A136041F28831012098
:100A8C0000F0FAFF724B1B68674A82FB031292114B
:100A9C00DB17D31A664A13606F4B02221A60604B45
:100AAC0001221A604FF4FA730F226C4907F1080007
:100ABC0003F021F94FF4FA731122694907F1080088
:100ACC0003F019F95A4B1B681A465D495D4803F04F
:100ADC00EFFE03469AB24FF4FA735A4907F1080035
:100AEC0003F009F9C0E04D4B9B68012B06D100F0D7
:100AFC00C7FA4FF4FA71022000F0BEFF0120FFF795
:100B0C00D5FB0346002B05D0534B02221A60444BF5
:100B1C0001221A600220FFF7C9FB0346012B31D1D9
:100B2C00424B1B6803F57A73404A13604FF4FA7317
:100B3C001022454907F1080003F0DDF83B4B1B6818
:100B4C00394A82FB03129211DB17D31A1A463C491D
:100B5C003C4803F0ADFE03469AB24FF4FA733949A0
:100B6C0007F1080003F0C7F8304B1B68374A934273
:100B7C0003DD2E4B4FF47A721A6041F2883101205A
:100B8C0000F07AFF0320FFF791FB0346012B6DD198
:100B9C00264B1B68234A13602D4B1A68214B1B688C
:100BAC0013442C4A136041F28831012000F064FF99
:100BBC001C4B1B681C4A82FB03129211DB17D31AC5
:100BCC001B4A1360244B02221A60154B01221A6037
:100BDC004FF4FA730F22214907F1080003F08BF848
:100BEC004FF4FA7311221F4907F1080003F083F840
:100BFC000F4B1B681A461249124803F059FE034664
:100C0C009AB24FF4FA730F4907F1080003F073F826
:100C1C002CE000BF2BE000BF29E000BFB402002095
:100C2C00100000201C000020D34D6210C4000020D6
:100C3C002000002024000020EC5000088850000800
:100C4C0098500008C0010020BC500008B882010078
:100C5C00180000201400002004000020CC500008D4
:100C6C00085100081C51000800BF00E000BFBD4641
:100C7C00BDE8804004B0704780B500AF01224FF44E
:100C8C008061054801F059FC00224FF48071034843
:100C9C0001F053FC00BF80BD000C01400008014076
:100CAC0080B500AF00224FF48061054801F045FC8F
:100CBC0001224FF48071034801F03FFC00BF80BD5E
:100CCC00000C01400008014080B500AF00224FF439
:100CDC008061054801F031FC00224FF4807103481B
:100CEC0001F02BFC00BF80BD000C0140000801404E
:100CFC0084B080B500AF07F1080C8CE80F00254BD1
:100D0C001B68B3F5167F3AD0B3F5167F3BDCB3F511
:100D1C00C87F03D0B3F5FA7F2BD034E0FFF7D4FFB4
:100D2C001D4B09221A600420FFF7C0FA0346002B62
:100D3C0028D01A4B1B683C2B03D0184B1B68322B4A
:100D4C0004D1144B4FF4FA721A6011E0134B1B6868
:100D5C00462B03D0114B1B68502B04D10D4B4FF479
:100D6C0016721A6004E00B4B4FF4C8721A6009E05B
:100D7C0008E0FFF795FF084B07221A6003E0FFF726
:100D8C007BFF00E000BF00BFBD46BDE8804004B063
:100D9C00704700BF080000200C000020100000204D
:100DAC0080B500AF1F4B1B68072B10D0092B37D118
:100DBC001D4B00221A601D4B00221A601C4B322264
:100DCC001A60194B1A681B4B1B685A6328E01A4BA4
:100DDC001B683C2B23D1194BDB68012B1FD1144B07
:100DEC001B68013B124A1360104B1B6805330F4AFA
:100DFC0013600D4B1B68002B03D10C4B1B68193374
:100E0C0000E00023084A1360074B1A68094B1B6863
:100E1C005A63074B1B681946032000F02DFE00BFD8
:100E2C0000BF80BD0C000020BC000020C0000020D2
:100E3C00000000200801002010000020B402002057
:100E4C0080B500AF0E4B00221A600E4B01221A60C7
:100E5C0000224FF480610C4801F06FFB0022082146
:100E6C000A4801F06AFB00222021084801F065FBCA
:100E7C0000221021054801F060FB00BF80BD00BFBF
:100E8C00C40000201000002000080140000C0140AC
:100E9C0080B500AF01224FF480610A4801F04DFB90
:100EAC0000220821084801F048FB002220210648B6
:100EBC0001F043FB01221021034801F03EFB00BF6F
:100ECC0080BD00BF00080140000C014080B500AFA0
:100EDC0001224FF480610A4801F02FFB0022082107
:100EEC00084801F02AFB01222021064801F025FBCD
:100EFC0001221021034801F020FB00BF80BD00BF80
:100F0C0000080140000C014080B500AF00224FF4F6
:100F1C0080610A4801F011FB01220821084801F008
:100F2C000CFB01222021064801F007FB00221021B6
:100F3C00034801F002FB00BF80BD00BF0008014068
:100F4C00000C014080B500AF01224FF480610A48CB
:100F5C0001F0F3FA01220821084801F0EEFA01220F
:100F6C002021064801F0E9FA00221021034801F083
:100F7C00E4FA00BF80BD00BF00080140000C014036
:100F8C0080B500AF1B4B1B68002B18D101224FF40E
:100F9C008061194801F0D1FA00220821174801F0AC
:100FAC00CCFA01222021154801F0C7FA00221021A9
:100FBC00124801F0C2FA0F4B01221A6017E000220E
:100FCC004FF480610C4801F0B8FA002208210B485C
:100FDC0001F0B3FA00222021084801F0AEFA0022F9
:100FEC001021064801F0A9FA024B00221A6000BF3A
:100FFC0080BD00BFCC00002000080140000C014067
:10100C0080B500AF1B4B1B68002B18D101224FF48D
:10101C008061194801F091FA01220821174801F06A
:10102C008CFA01222021154801F087FA01221021A7
:10103C00124801F082FA0F4B01221A6017E00022CD
:10104C004FF480610C4801F078FA002208210B481B
:10105C0001F073FA00222021084801F06EFA0022F8
:10106C001021064801F069FA024B00221A6000BFF9
:10107C0080BD00BFCC00002000080140000C0140E6
:10108C0080B500AF1B4B1B68002B18D100224FF40E
:10109C008061194801F051FA01220821174801F02A
:1010AC004CFA00222021154801F047FA01221021A8
:1010BC00124801F042FA0F4B01221A6017E000228D
:1010CC004FF480610C4801F038FA002208210B48DB
:1010DC0001F033FA00222021084801F02EFA0022F8
:1010EC001021064801F029FA024B00221A6000BFB9
:1010FC0080BD00BFCC00002000080140000C014066
:10110C0084B080B500AF07F1080C8CE80F004A4B97
:10111C001B68B3F5FA7F63D0B3F5FA7F7ADCB3F5CD
:10112C00C87F50D0B3F5C87F74DCB3F5967F3DD043
:10113C00B3F5967F6EDCC82B2BD0C82B6ADC012B49
:10114C0002D0642B08D065E03B4B64221A60FA2174
:10115C00032000F091FC68E0384B1B68022B14D183
:10116C003749384803F0A4FB374B1A68374B1B68D8
:10117C003749344803F09CFB03469AB24FF4FA7398
:10118C00304907F1080002F0B6FD2B4BC8221A605B
:10119C004BE0304BDB68012B40D1274B4FF4967260
:1011AC001A60FA21032000F067FC37E0294BDB685A
:1011BC00012B35D1204B4FF4C8721A60FA21032051
:1011CC0000F05AFC2CE0234BDB68012B2AD11A4B84
:1011DC004FF4FA721A60FA21032000F04DFC21E062
:1011EC001C4BDB68012B1FD1134B64221A60134B71
:1011FC001B68022B09D1144B1B68013B124A13606C
:10120C00124B1B68013B114A1360FA21032000F0BA
:10121C0033FC09E0084B64221A6006E000BF04E0CE
:10122C0000BF02E000BF00E000BF00BFBD46BDE84C
:10123C00804004B0704700BF28000020040000204C
:10124C0030510008C00100202000002024000020A4
:10125C0034510008B4020020F0B58FB00EAF2E4B05
:10126C001B78012B02D12C4B00221A702B4E6D4691
:10127C0006F110040FCC0FC50FCC0FC50FCC0FC54A
:10128C0023682B6096E80F00FFF732FDFFF788FD0F
:10129C00234B1B68022B10D1204E6D4606F1100417
:1012AC000FCC0FC50FCC0FC50FCC0FC523682B600F
:1012BC0096E80F00FFF728F813E0194B1B68032B77
:1012CC000FD1164E6D4606F110040FCC0FC50FCC86
:1012DC000FC50FCC0FC523682B6096E80F00FFF7E6
:1012EC00B7F90D4B1B78012B02D10B4B00221A7056
:1012FC000A4E6D4606F110040FCC0FC50FCC0FC56E
:10130C000FCC0FC523682B6096E80F00FFF7F8FE93
:10131C0000BF0437BD46F0BDCA00002028020020E3
:10132C000400002080B582B000AF78607B681B6839
:10133C00134A93421FD1134B1B785A1CD1B2114A3A
:10134C0011701A46104B1978104B99540D4B1B7891
:10135C001E2B02D10B4B00221A700D4B01221A705E
:10136C003223012208490B4802F0C5FC0122064930
:10137C00084802F052FD00BF0837BD4680BD00BFD3
:10138C0000440040C9000020C8000020A00100203B
:10139C00CA0000202802002080B500AF00F012FD2A
:1013AC0000F048F800F088F800F072F900F0D0F87E
:1013BC0000F044F9184801F043FD01221749184880
:1013CC0002F02BFD0021174801F0E4FD4FF47A7177
:1013DC00002000F051FB4FF47A71012000F04CFB1F
:1013EC004FF47A71022000F047FB4FF47A7103201E
:1013FC0000F042FB012201210B4800F037FA0122D8
:10140C0001210A4800F032FA01220121084800F0BB
:10141C002DFA00F0AFFAFCE7E0010020C800002034
:10142C002802002008010020C51A00084D01000800
:10143C006512000880B590B000AF07F118032822A0
:10144C000021184603F076F93B1D00221A605A6001
:10145C009A60DA601A610223BB610123BB6210231C
:10146C00FB6202237B630023BB634FF46013FB63BB
:10147C0007F11803184601F079F80346002B01D048
:10148C0000F07EF90F237B600223BB600023FB601E
:10149C004FF480633B6100237B613B1D02211846A6
:1014AC0001F0E4FA0346002B01D000F069F900BF0B
:1014BC004037BD4680BD000080B586B000AF07F157
:1014CC00080300221A605A609A60DA603B460022D8
:1014DC001A605A601D4B4FF080421A601B4B41F64C
:1014EC003F725A60194B00229A60184B4F22DA60F7
:1014FC00164B00221A61154B00229A61134801F019
:10150C004FFC0346002B01D000F03AF94FF4805306
:10151C00BB6007F1080319460C4801F0A3FF034612
:10152C00002B01D000F02CF900233B6000237B60E2
:10153C003B461946054802F021FB0346002B01D01F
:10154C0000F01EF900BF1837BD4680BDE001002039
:10155C0080B58EB000AF07F1280300221A605A60E4
:10156C009A60DA6007F1200300221A605A603B1D72
:10157C0000221A605A609A60DA601A615A619A61A4
:10158C002C4B2D4A1A602B4B4F225A60294B0022B0
:10159C009A60284B4F22DA60264B00221A61254BA9
:1015AC0000229A61234801F0FBFB0346002B01D07B
:1015BC0000F0E6F84FF48053BB6207F1280319469C
:1015CC001C4801F04FFF0346002B01D000F0D8F867
:1015DC00184801F087FC0346002B01D000F0D0F82E
:1015EC0000233B6200237B6207F12003194611485C
:1015FC0002F0C4FA0346002B01D000F0C1F86023BE
:10160C007B600023BB600023FB6000237B613B1DE0
:10161C0000221946074801F067FE0346002B01D053
:10162C0000F0AEF8034800F0E1FA00BF3837BD46D1
:10163C0080BD00BF080100200004004080B500AF51
:10164C00114B124A1A60104B4FF416525A600E4B43
:10165C0000229A600C4B0022DA600B4B00221A61BC
:10166C00094B0C225A61084B00229A61064B00224E
:10167C00DA61054802F0F2FA0346002B01D000F0C3
:10168C007FF800BF80BD00BF28020020004400404E
:10169C0080B586B000AF07F1080300221A605A60CB
:1016AC009A60DA602E4B9B692D4A43F004039361D8
:1016BC002B4B9B6903F004037B607B68284B9B6975
:1016CC00274A43F008039361254B9B6903F00803F9
:1016DC003B603B6800224FF48761224800F02DFFED
:1016EC0000224FF4A061204800F027FF1323BB60B9
:1016FC000023FB6001233B6107F1080319461A48DC
:10170C0000F080FD0123BB600023FB6001233B61E3
:10171C0007F108031946134800F074FD4FF4876372
:10172C00BB600123FB6000233B6102237B6107F15B
:10173C00080319460B4800F065FD4FF4A063BB602D
:10174C000123FB6000233B6102237B6107F108034B
:10175C001946054800F056FD00BF1837BD4680BD40
:10176C0000100240000C01400008014080B582B01E
:10177C0000AF786000F0D2F800BF0837BD4680BDDE
:10178C0080B400AF72B600BFFEE7000080B485B035
:10179C0000AF7860344B1B687A689A425ED0324B4B
:1017AC001B68FB600023FB7214E02F4B1B68FA686C
:1017BC009A4202D1FB7A0133FB72FB7A022B10D0D6
:1017CC007B68DA68FB68DB68D21A7B68DA60FB68D6
:1017DC005B68FB60FB68DA687B68DB689A42E4D97B
:1017EC0000E000BF7B68DB68002B02D17B68012224
:1017FC001A767B68FA685A60FB681A687B681A600C
:10180C00FB681B687A685A60FB687A681A60FB7A16
:10181C00002B11D1FB68DA687B68DB68D21AFB6895
:10182C00DA60FB68DB68002B02D1FB6801221A76B8
:10183C000D4A7B68136012E0FB7A012B0FD1FB6819
:10184C00DA687B68DB68D21AFB68DA60FB68DB68F5
:10185C00002B04D1FB6801221A7600E000BF14377C
:10186C00BD4680BC704700BFD000002080B586B05C
:10187C0000AFF860B9607A60FB68002B42D000239F
:10188C007B6102E07B6901337B617B69272B05D887
:10189C001F4A7B6913441B78002BF3D17B69282BDF
:1018AC0032D01B4A7B69134401221A70194B6422F3
:1018BC001A701C2002F02EFF03463B613B69BA688C
:1018CC00DA603B697A681A613B69FA689A603B692D
:1018DC007A695A613B6900221A760F4B1B68002B00
:1018EC0003D03869FFF752FF08E03B693A691A6088
:1018FC003B693A695A60084A3B691360054BC82238
:10190C001A7002E000BF00E000BF1837BD4680BD72
:10191C006C0200202C000020D000002080B400AF0E
:10192C00124B1B68002B1DD0104B1B681B7E002B11
:10193C0018D10F4B1B78C82B14D10C4B1B68DB68D0
:10194C00002B06D0094B1B68DA68084B1B68013A60
:10195C00DA60064B1B68DB68002B03D1034B1B685A
:10196C0001221A7600BFBD4680BC7047D000002013
:10197C002C00002080B582B000AF254B64221A7079
:10198C0036E0244B1B689B689847224B1B681B69ED
:10199C00002B0DD11F4B1B683B601E4B1B685B68FB
:1019AC001C4A13603B685B69184600F035F81FE071
:1019BC00184B1B687B60174B1A68164B1B685B68CF
:1019CC0012681A60134B1A68124B1B681B6852681A
:1019DC005A60104B1B685B680E4A13607B680022D0
:1019EC001A767B681A697B68DA607868FFF7CEFE36
:1019FC00084B1B68002B04D0064B1B681B7E002B6E
:101A0C00BFD1034BC8221A7000BF0837BD4680BD3A
:101A1C002C000020D000002080B584B000AF78608E
:101A2C00134A7B6813441B78002B1DD0104A7B682B
:101A3C00134400221A700F4B1B68FB6002E0FB681A
:101A4C005B68FB60FB685B697A689A42F7D1FB685C
:101A5C005B68FA6812681A60FB681B68FA6852685F
:101A6C005A60F86802F05EFE00BF1037BD4680BDBC
:101A7C006C020020D000002080B483B000AF7860EE
:101A8C0039603B68094A82FB03129210DB17D21AA9
:101A9C0007497B6841F82320064A7B68002142F8FD
:101AAC00231000BF0C37BD4680BC70476766666666
:101ABC0094020020B402002080B483B000AF002355
:101ACC007B601CE0124A7B6852F82330002B13DD3C
:101ADC000F4A7B6852F823305A1E0D497B6841F837
:101AEC0023200B4A7B6852F82330002B04DC094A74
:101AFC007B68012142F823107B6801337B607B6893
:101B0C00062BDFDD00BF00BF0C37BD4680BC704725
:101B1C0094020020B402002080B485B000AF154BB5
:101B2C009B69144A43F001039361124B9B6903F0C8
:101B3C000103BB60BB680F4BDB690E4A43F080535B
:101B4C00D3610C4BDB6903F080537B607B680A4BE1
:101B5C005B68FB60FB6823F0E063FB60FB6843F0B1
:101B6C000073FB60044AFB68536000BF1437BD462A
:101B7C0080BC7047001002400000014080B584B06A
:101B8C0000AF78607B681B68B3F1804F14D1154BA4
:101B9C00DB69144A43F00103D361124BDB6903F098
:101BAC000103FB60FB68002200211C2000F043FABB
:101BBC001C2000F05CFA10E07B681B680A4A934218
:101BCC000BD1084BDB69074A43F00203D361054B89
:101BDC00DB6903F00203BB60BB6800BF1037BD4676
:101BEC0080BD00BF001002400004004080B588B0EA
:101BFC0000AF786007F1100300221A605A609A60F7
:101C0C00DA607B681B680F4A934217D10E4B9B69B5
:101C1C000D4A43F0040393610B4B9B6903F00403DF
:101C2C00FB60FB6840233B6102237B610223FB6169
:101C3C0007F110031946054800F0E4FA00BF2037FD
:101C4C00BD4680BD00040040001002400008014069
:101C5C0080B588B000AF786007F1100300221A60DD
:101C6C005A609A60DA607B681B681F4A934237D1CE
:101C7C001E4BDB691D4A43F40033D3611B4BDB69FC
:101C8C0003F40033FB60FB68184B9B69174A43F065
:101C9C0004039361154B9B6903F00403BB60BB68A1
:101CAC0004233B6102237B610323FB6107F11003D7
:101CBC0019460F4800F0A6FA08233B6100237B610C
:101CCC000023BB6107F110031946094800F09AFA8A
:101CDC0000220021262000F0AEF9262000F0C7F9E2
:101CEC0000BF2037BD4680BD0044004000100240BC
:101CFC000008014080B400AFFEE780B400AFFEE7FF
:101D0C0080B400AFFEE780B400AFFEE780B400AF54
:101D1C00FEE780B400AF00BFBD4680BC704780B406
:101D2C0000AF00BFBD4680BC704780B400AF00BFA1
:101D3C00BD4680BC704780B500AF00F089F800BF8D
:101D4C0080BD000080B500AF024801F0C5F900BFAE
:101D5C0080BD00BFE001002080B500AF024802F05A
:101D6C008DF800BF80BD00BF2802002080B400AFFA
:101D7C0000BFBD4680BC70470C480D490D4A00237E
:101D8C0002E0D458C4500433C4188C42F9D30A4A24
:101D9C000A4C002301E013600432A242FBD3FFF78C
:101DAC00E5FF02F093FCFFF7F7FA70470000002004
:101DBC00A0000020B8510008A0000020E80200207C
:101DCC00FEE7000080B500AF084B1B68074A43F0E4
:101DDC0010031360032000F023F90F2000F008F823
:101DEC00FFF79AFE0023184680BD00BF002002407A
:101DFC0080B582B000AF7860124B1A68124B1B781A
:101E0C0019464FF47A73B3FBF1F3B2FBF3F31846B4
:101E1C0000F03BF90346002B01D001230EE07B6858
:101E2C000F2B0AD8002279684FF0FF3000F003F92D
:101E3C00064A7B681360002300E00123184608372C
:101E4C00BD4680BD3000002038000020340000204A
:101E5C0080B400AF054B1B781A46054B1B68134426
:101E6C00034A136000BFBD4680BC70473800002099
:101E7C00D402002080B400AF024B1B681846BD464C
:101E8C0080BC7047D402002080B485B000AF78606D
:101E9C007B6803F00703FB600C4BDB68BB60BA6824
:101EAC004FF6FF031340BB60FB681A02BB68134379
:101EBC0043F0BF6343F40033BB60044ABB68D36098
:101ECC0000BF1437BD4680BC704700BF00ED00E07A
:101EDC0080B400AF044BDB681B0A03F00703184601
:101EEC00BD4680BC704700BF00ED00E080B483B0FD
:101EFC0000AF0346FB7197F90730002B0BDBFB7926
:101F0C0003F01F02064997F907305B09012000FA1C
:101F1C0002F241F8232000BF0C37BD4680BC70474D
:101F2C0000E100E080B483B000AF03463960FB7180
:101F3C0097F90730002B0ADB3B68DAB20C4997F9AA
:101F4C0007301201D2B20B4483F800230AE03B683D
:101F5C00DAB20849FB7903F00F03043B1201D2B249
:101F6C000B441A7600BF0C37BD4680BC704700BFCF
:101F7C0000E100E000ED00E080B489B000AFF86053
:101F8C00B9607A60FB6803F00703FB61FB69C3F17E
:101F9C000703042B28BF0423BB61FB690433062B06
:101FAC0002D9FB69033B00E000237B614FF0FF3259
:101FBC00BB6902FA03F3DA43BB681A407B699A40A7
:101FCC004FF0FF317B6901FA03F3D9437B680B4077
:101FDC00134318462437BD4680BC704780B582B089
:101FEC0000AF78607B68013BB3F1807F01D30123A4
:101FFC000FE00A4A7B68013B53600F214FF0FF3022
:10200C00FFF790FF054B00229A60044B07221A60E1
:10201C00002318460837BD4680BD00BF10E000E025
:10202C0080B582B000AF78607868FFF72DFF00BFF5
:10203C000837BD4680BD80B586B000AF0346B96099
:10204C007A60FB7300237B61FFF742FF78617A684B
:10205C00B9687869FFF790FF024697F90F3011467F
:10206C001846FFF75FFF00BF1837BD4680BD80B52F
:10207C0082B000AF0346FB7197F907301846FFF7A3
:10208C0035FF00BF0837BD4680BD80B582B000AFBC
:10209C0078607868FFF7A2FF034618460837BD46FC
:1020AC0080BD80B485B000AF78600023FB737B6883
:1020BC0093F82130022B08D07B6804229A637B684A
:1020CC00002283F82020012320E07B681B681A681B
:1020DC007B681B6822F00E021A607B681B681A680A
:1020EC007B681B6822F001021A607B681A6C7B68A3
:1020FC00DB6B012101FA02F25A607B68012283F842
:10210C0021207B68002283F82020FB7B18461437A3
:10211C00BD4680BC7047000080B584B000AF7860CD
:10212C000023FB737B6893F82130022B05D07B686E
:10213C0004229A630123FB7351E07B681B681A68C5
:10214C007B681B6822F00E021A607B681B681A6899
:10215C007B681B6822F001021A607B681B68224AAC
:10216C00934229D07B681B68204A934222D07B681B
:10217C001B681F4A93421AD07B681B681D4A934206
:10218C0012D07B681B681C4A93420AD07B681B6880
:10219C001A4A934202D14FF480130EE04FF0807331
:1021AC000BE04FF4803308E04FF4805305E04FF41C
:1021BC00807302E0102300E00123114A53607B6816
:1021CC00012283F821207B68002283F820207B6881
:1021DC005B6B002B03D07B685B6B78689847FB7B51
:1021EC0018461037BD4680BD080002401C00024056
:1021FC003000024044000240580002406C00024093
:10220C000000024080B48BB000AF786039600023CE
:10221C007B6200233B6269E101227B6A02FA03F3D1
:10222C00FB613B681B68FA691340BB61BA69FB69C7
:10223C009A4240F058813B685B689A4A93425ED060
:10224C00984A934275D8984A934258D0964A9342EA
:10225C006FD8964A934252D0944A934269D8944A82
:10226C0093424CD0924A934263D8924A934246D0BE
:10227C00904A93425DD8122B2AD8122B59D801A21E
:10228C0052F823F00B230008E5220008F72200087F
:10229C00392300083F2300083F2300083F23000890
:1022AC003F2300083F2300083F2300083F2300087A
:1022BC003F2300083F2300083F2300083F2300086A
:1022CC003F2300083F230008ED22000801230008EB
:1022DC00794A934213D02CE03B68DB683B6229E0DF
:1022EC003B68DB6804333B6224E03B68DB68083303
:1022FC003B621FE03B68DB680C333B621AE03B68D7
:10230C009B68002B02D104233B6213E03B689B6863
:10231C00012B05D108233B627B68FA691A6109E03D
:10232C0008233B627B68FA695A6103E000233B6235
:10233C0000E000BFBB69FF2B01D87B6801E07B6824
:10234C0004337B61BB69FF2B02D87B6A9B0002E0E4
:10235C007B6A083B9B003B617B691A680F213B69D8
:10236C0001FA03F3DB431A40396A3B6901FA03F3C0
:10237C001A437B691A603B685B6803F08053002B3F
:10238C0000F0B1804D4B9B694C4A43F001039361C3
:10239C004A4B9B6903F00103BB60BB68484A7B6AEC
:1023AC009B08023352F82330FB607B6A03F0030373
:1023BC009B000F2202FA03F3DB43FA681340FB6025
:1023CC007B68404A934213D07B683F4A93420DD0BE
:1023DC007B683E4A934207D07B683D4A934201D1C9
:1023EC00032306E0042304E0022302E0012300E0BF
:1023FC0000237A6A02F0030292009340FA681343B6
:10240C00FB602F497B6A9B080233FA6841F8232052
:10241C003B685B6803F48033002B06D02D4B1A68A5
:10242C002C49BB6913430B6006E02A4B1A68BB6945
:10243C00DB43284913400B603B685B6803F40033B3
:10244C00002B06D0234B5A682249BB6913434B60BF
:10245C0006E0204B5A68BB69DB431E4913404B60B6
:10246C003B685B6803F48013002B06D0194B9A6809
:10247C001849BB6913438B6006E0164B9A68BB691D
:10248C00DB43144913408B603B685B6803F4001317
:10249C00002B21D00F4BDA680E49BB691343CB607C
:1024AC0021E000BF000032100000311000002210AB
:1024BC00000021100000121000001110001002404A
:1024CC000000014000080140000C014000100140D8
:1024DC0000140140000401400B4BDA68BB69DB437C
:1024EC0009491340CB607B6A01337B623B681A68F5
:1024FC007B6A22FA03F3002B7FF48EAE00BF00BF81
:10250C002C37BD4680BC70470004014080B485B0B8
:10251C0000AF78600B467B807B689A687B881340A1
:10252C00002B02D00123FB7301E00023FB73FB7B28
:10253C0018461437BD4680BC704780B483B000AFDA
:10254C0078600B467B8013467B707B78002B03D026
:10255C007A887B681A6103E07B881A047B681A61AD
:10256C0000BF0C37BD4680BC7047000080B586B0FC
:10257C0000AF78607B68002B01D101236CE27B6893
:10258C001B6803F00103002B00F08780924B5B6803
:10259C0003F00C03042B0CD08F4B5B6803F00C0383
:1025AC00082B12D18C4B5B6803F48033B3F5803F5E
:1025BC000BD1894B1B6803F40033002B6CD07B6868
:1025CC005B68002B68D1012346E27B685B68B3F53E
:1025DC00803F06D1804B1B687F4A43F480331360E5
:1025EC002EE07B685B68002B0CD17B4B1B687A4A16
:1025FC0023F480331360784B1B68774A23F48023D1
:10260C0013601DE07B685B68B3F5A02F0CD1724B97
:10261C001B68714A43F4802313606F4B1B686E4A2E
:10262C0043F4803313600BE06B4B1B686A4A23F452
:10263C0080331360684B1B68674A23F48023136054
:10264C007B685B68002B13D0FFF714FC386108E043
:10265C00FFF710FC02463B69D31A642B01D9032304
:10266C00FAE15D4B1B6803F40033002BF0D014E04F
:10267C00FFF700FC386108E0FFF7FCFB02463B6902
:10268C00D31A642B01D90323E6E1534B1B6803F4E3
:10269C000033002BF0D100E000BF7B681B6803F017
:1026AC000203002B63D04C4B5B6803F00C03002B34
:1026BC000BD0494B5B6803F00C03082B1CD1464B29
:1026CC005B6803F48033002B16D1434B1B6803F07B
:1026DC000203002B05D07B681B69012B01D0012361
:1026EC00BAE13D4B1B6823F0F8027B685B69DB00A9
:1026FC00394913430B603AE07B681B69002B20D0EF
:10270C00364B01221A60FFF7B5FB386108E0FFF782
:10271C00B1FB02463B69D31A022B01D903239BE17F
:10272C002D4B1B6803F00203002BF0D02A4B1B68C7
:10273C0023F0F8027B685B69DB00274913430B60CD
:10274C0015E0264B00221A60FFF794FB386108E075
:10275C00FFF790FB02463B69D31A022B01D90323E6
:10276C007AE11D4B1B6803F00203002BF0D17B6850
:10277C001B6803F00803002B3AD07B689B69002B85
:10278C0019D0174B01221A60FFF774FB386108E06F
:10279C00FFF770FB02463B69D31A022B01D90323C6
:1027AC005AE10D4B5B6A03F00203002BF0D00120C1
:1027BC0000F0D8FA1CE00A4B00221A60FFF75AFB13
:1027CC0038610FE0FFF756FB02463B69D31A022B28
:1027DC0008D9032340E100BF001002400000424230
:1027EC00800442429E4B5B6A03F00203002BE9D14A
:1027FC007B681B6803F00403002B00F0A680002309
:10280C00FB75974BDB6903F08053002B0DD1944B78
:10281C00DB69934A43F08053D361914BDB6903F03E
:10282C008053BB60BB680123FB758E4B1B6803F4A4
:10283C008073002B18D18B4B1B688A4A43F480732E
:10284C001360FFF717FB386108E0FFF713FB024634
:10285C003B69D31A642B01D90323FDE0814B1B6820
:10286C0003F48073002BF0D07B68DB68012B06D15E
:10287C007B4B1B6A7A4A43F0010313622DE07B68A1
:10288C00DB68002B0CD1764B1B6A754A23F00103D5
:10289C001362734B1B6A724A23F0040313621CE02D
:1028AC007B68DB68052B0CD16D4B1B6A6C4A43F0C3
:1028BC00040313626A4B1B6A694A43F001031362F7
:1028CC000BE0674B1B6A664A23F001031362644BEF
:1028DC001B6A634A23F0040313627B68DB68002BDA
:1028EC0015D0FFF7C7FA38610AE0FFF7C3FA0246C2
:1028FC003B69D31A41F28832934201D90323ABE0EE
:10290C00574B1B6A03F00203002BEED014E0FFF7C9
:10291C00B1FA38610AE0FFF7ADFA02463B69D31A07
:10292C0041F28832934201D9032395E04C4B1B6A48
:10293C0003F00203002BEED1FB7D012B05D1484B9C
:10294C00DB69474A23F08053D3617B68DB69002B3A
:10295C0000F08180424B5B6803F00C03082B61D0C4
:10296C007B68DB69022B46D13F4B00221A60FFF7D4
:10297C0081FA386108E0FFF77DFA02463B69D31A09
:10298C00022B01D9032367E0354B1B6803F000735E
:10299C00002BF0D17B681B6AB3F5803F08D1304B1C
:1029AC005B6823F400327B689B682D4913434B60B2
:1029BC002B4B5B6823F474127B68196A7B685B6A27
:1029CC000B43274913434B60274B01221A60FFF737
:1029DC0051FA386108E0FFF74DFA02463B69D31A09
:1029EC00022B01D9032337E01D4B1B6803F0007346
:1029FC00002BF0D02FE01C4B00221A60FFF73AFAA4
:102A0C00386108E0FFF736FA02463B69D31A022B0D
:102A1C0001D9032320E0124B1B6803F00073002B39
:102A2C00F0D118E07B68DB69012B01D1012313E0A5
:102A3C000B4B5B68FB60FB6803F480327B681B6AA2
:102A4C009A4206D1FB6803F470127B685B6A9A4267
:102A5C0001D0012300E0002318461837BD4680BD85
:102A6C0000100240007000406000424280B584B00B
:102A7C0000AF786039607B68002B01D10123D0E076
:102A8C006A4B1B6803F007033A689A4210D9674BEC
:102A9C001B6823F0070265493B6813430B60634BCB
:102AAC001B6803F007033A689A4201D00123B8E08F
:102ABC007B681B6803F00203002B20D07B681B682B
:102ACC0003F00403002B05D0594B5B68584A43F4C0
:102ADC00E06353607B681B6803F00803002B05D090
:102AEC00534B5B68524A43F460535360504B5B68E2
:102AFC0023F0F0027B689B684D4913434B607B6865
:102B0C001B6803F00103002B40D07B685B68012B32
:102B1C0007D1474B1B6803F40033002B15D101235D
:102B2C007FE07B685B68022B07D1414B1B6803F08D
:102B3C000073002B09D1012373E03D4B1B6803F09C
:102B4C000203002B01D101236BE0394B5B6823F0AE
:102B5C0003027B685B68364913434B60FFF78AF9C5
:102B6C00F8600AE0FFF786F90246FB68D31A41F2D7
:102B7C008832934201D9032353E02D4B5B6803F059
:102B8C000C027B685B689B009A42EBD1274B1B685D
:102B9C0003F007033A689A4210D2244B1B6823F0C7
:102BAC00070222493B6813430B60204B1B6803F060
:102BBC0007033A689A4201D0012332E07B681B6814
:102BCC0003F00403002B08D0194B5B6823F4E0627C
:102BDC007B68DB68164913434B607B681B6803F00A
:102BEC000803002B09D0124B5B6823F460527B68FE
:102BFC001B69DB000E4913434B6000F021F80246C1
:102C0C000B4B5B681B0903F00F030A49CB5C22FAE0
:102C1C0003F3094A1360094B1B681846FFF7E8F8E1
:102C2C00002318461037BD4680BD00BF002002406F
:102C3C0000100240645100083000002034000020D5
:102C4C0090B48AB000AF2A4B3C1D0FCB84E80F0028
:102C5C0040F201233B800023FB610023BB61002376
:102C6C007B6200237B6100233B62224B5B68FB6130
:102C7C00FB6903F00C03042B02D0082B03D02DE0CE
:102C8C001D4B3B622DE0FB699B0C03F00F0307F11E
:102C9C002802134413F8243C7B61FB6903F4803352
:102CAC00002B13D0134B5B685B0C03F0010307F193
:102CBC002802134413F8283CBB617B690E4A02FBC3
:102CCC0003F2BB69B2FBF3F37B6204E07B690B4A52
:102CDC0002FB03F37B627B6A3B6202E0064B3B62C6
:102CEC0000BF3B6A18462837BD4690BC704700BFF2
:102CFC00545100080010024000127A0000093D00F7
:102D0C0080B400AF024B1B681846BD4680BC7047B0
:102D1C003000002080B500AFFFF7F2FF0246054BF4
:102D2C005B681B0A03F007030349CB5C22FA03F32D
:102D3C00184680BD001002407451000880B500AFE9
:102D4C00FFF7DEFF0246054B5B68DB0A03F0070367
:102D5C000349CB5C22FA03F3184680BD00100240F5
:102D6C007451000880B485B000AF78600A4B1B68C2
:102D7C000A4AA2FB03235B0A7A6802FB03F3FB609B
:102D8C0000BFFB685A1EFA60002BF9D100BF00BFD0
:102D9C001437BD4680BC704730000020D34D621004
:102DAC0080B582B000AF78607B68002B01D1012325
:102DBC0041E07B6893F83D30DBB2002B06D17B6899
:102DCC00002283F83C207868FEF7D8FE7B6802224C
:102DDC0083F83D207B681A687B68043319461046DB
:102DEC0000F028FC7B68012283F846207B680122D6
:102DFC0083F83E207B68012283F83F207B68012208
:102E0C0083F840207B68012283F841207B680122F3
:102E1C0083F842207B68012283F843207B680122DF
:102E2C0083F844207B68012283F845207B680122CB
:102E3C0083F83D20002318460837BD4680BD0000AE
:102E4C0080B485B000AF78607B6893F83D30DBB21E
:102E5C00012B01D001233AE07B68022283F83D204C
:102E6C007B681B68DA687B681B6842F00102DA60D9
:102E7C007B681B68184A93420ED07B681B68B3F1C1
:102E8C00804F09D07B681B68144A934204D07B683E
:102E9C001B68134A934211D17B681B689B6803F033
:102EAC000703FB60FB68062B10D07B681B681A6855
:102EBC007B681B6842F001021A6007E07B681B68A4
:102ECC001A687B681B6842F001021A6000231846DE
:102EDC001437BD4680BC7047002C014000040040F4
:102EEC000008004080B582B000AF78607B68002B92
:102EFC0001D1012341E07B6893F83D30DBB2002B1C
:102F0C0006D17B68002283F83C20786800F039F801
:102F1C007B68022283F83D207B681A687B68043347
:102F2C001946104600F086FB7B68012283F8462088
:102F3C007B68012283F83E207B68012283F83F20C6
:102F4C007B68012283F840207B68012283F84120B2
:102F5C007B68012283F842207B68012283F843209E
:102F6C007B68012283F844207B68012283F845208A
:102F7C007B68012283F83D20002318460837BD46A4
:102F8C0080BD80B483B000AF786000BF0C37BD4605
:102F9C0080BC704780B584B000AF786039603B6806
:102FAC00002B09D17B6893F83E30DBB2012B14BFA8
:102FBC0001230023DBB222E03B68042B09D17B68A0
:102FCC0093F83F30DBB2012B14BF01230023DBB29B
:102FDC0015E03B68082B09D17B6893F84030DBB2D5
:102FEC00012B14BF01230023DBB208E07B6893F8AC
:102FFC004130DBB2012B14BF01230023DBB2002BC9
:10300C0001D001235EE03B68002B04D17B680222D7
:10301C0083F83E2013E03B68042B04D17B6802222A
:10302C0083F83F200BE03B68082B04D17B6802221D
:10303C0083F8402003E07B68022283F841207B6800
:10304C001B6801223968184600F074FD7B681B6808
:10305C001E4A934207D17B681B685A6C7B681B68BD
:10306C0042F400425A647B681B68184A93420ED0A3
:10307C007B681B68B3F1804F09D07B681B68144ACE
:10308C00934204D07B681B68124A934211D17B682F
:10309C001B689B6803F00703FB60FB68062B10D0D2
:1030AC007B681B681A687B681B6842F001021A6017
:1030BC0007E07B681B681A687B681B6842F001029A
:1030CC001A60002318461037BD4680BD002C014005
:1030DC00000400400008004080B582B000AF78606A
:1030EC007B681B681B6903F00203022B22D17B68EF
:1030FC001B68DB6803F00203022B1BD17B681B6887
:10310C006FF002021A617B6801221A777B681B68D8
:10311C009B6903F00303002B03D0786800F06FFA6F
:10312C0005E0786800F062FA786800F071FA7B6864
:10313C0000221A777B681B681B6903F00403042BBD
:10314C0022D17B681B68DB6803F00403042B1BD1C2
:10315C007B681B686FF004021A617B6802221A7785
:10316C007B681B689B6903F44073002B03D0786861
:10317C0000F045FA05E0786800F038FA786800F05D
:10318C0047FA7B6800221A777B681B681B6903F07F
:10319C000803082B22D17B681B68DB6803F008034B
:1031AC00082B1BD17B681B686FF008021A617B68C7
:1031BC0004221A777B681B68DB6903F00303002B7E
:1031CC0003D0786800F01BFA05E0786800F00EFA7E
:1031DC00786800F01DFA7B6800221A777B681B6800
:1031EC001B6903F01003102B22D17B681B68DB6872
:1031FC0003F01003102B1BD17B681B686FF01002BF
:10320C001A617B6808221A777B681B68DB6903F4F8
:10321C004073002B03D0786800F0F1F905E0786872
:10322C0000F0E4F9786800F0F3F97B6800221A7773
:10323C007B681B681B6903F00103012B0ED17B68B3
:10324C001B68DB6803F00103012B07D17B681B684B
:10325C006FF001021A617868FEF788FA7B681B68C8
:10326C001B6903F08003802B0ED17B681B68DB6825
:10327C0003F08003802B07D17B681B686FF0800202
:10328C001A61786800F0E1FC7B681B681B6903F02D
:10329C004003402B0ED17B681B68DB6803F04003B6
:1032AC00402B07D17B681B686FF040021A6178686D
:1032BC0000F0B7F97B681B681B6903F02003202B17
:1032CC000ED17B681B68DB6803F02003202B07D131
:1032DC007B681B686FF020021A61786800F0ACFC08
:1032EC0000BF0837BD4680BD80B584B000AFF86024
:1032FC00B9607A60FB6893F83C30012B01D1022352
:10330C00ACE0FB68012283F83C207B680C2B00F2BC
:10331C009F8001A252F823F0593300085D34000855
:10332C005D3400085D340008993300085D340008F2
:10333C005D3400085D340008DB3300085D340008A0
:10334C005D3400085D3400081B340008FB681B6802
:10335C00B968184600F0D0F9FB681B689A69FB68DD
:10336C001B6842F008029A61FB681B689A69FB684B
:10337C001B6822F004029A61FB681B689969BB68A0
:10338C001A69FB681B680A439A6162E0FB681B6858
:10339C00B968184600F016FAFB681B689A69FB6856
:1033AC001B6842F400629A61FB681B689A69FB68AF
:1033BC001B6822F480629A61FB681B689969BB6880
:1033CC001B691A02FB681B680A439A6141E0FB689F
:1033DC001B68B968184600F05FFAFB681B68DA696D
:1033EC00FB681B6842F00802DA61FB681B68DA694B
:1033FC00FB681B6822F00402DA61FB681B68D96960
:10340C00BB681A69FB681B680A43DA6121E0FB6838
:10341C001B68B968184600F0A9FAFB681B68DA69E2
:10342C00FB681B6842F40062DA61FB681B68DA69AE
:10343C00FB681B6822F48062DA61FB681B68D9693F
:10344C00BB681B691A02FB681B680A43DA6100E05F
:10345C0000BFFB68002283F83C200023184610377D
:10346C00BD4680BD80B584B000AF786039607B68A4
:10347C0093F83C30012B01D10223B3E07B6801228D
:10348C0083F83C207B68022283F83D207B681B6814
:10349C009B68FB60FB6823F07703FB60FB6823F4FD
:1034AC007F43FB607B681B68FA689A603B681B680B
:1034BC00B3F5005F3ED0B3F5005F00F28780B3F543
:1034CC00805F00F08580B3F5805F7FD8702B1AD0B9
:1034DC00702B7BD8602B50D0602B77D8502B3CD0E6
:1034EC00502B73D8402B58D0402B6FD8302B64D036
:1034FC00302B6BD8202B60D0202B67D8002B5CD0C6
:10350C00102B5AD062E07B6818683B6899683B685E
:10351C005A683B68DB6800F0EEFA7B681B689B68B6
:10352C00FB60FB6843F07703FB607B681B68FA6801
:10353C009A604EE07B6818683B6899683B685A68EB
:10354C003B68DB6800F0D7FA7B681B689A687B687D
:10355C001B6842F480429A603BE07B6818683B68C9
:10356C0059683B68DB681A4600F04EFA7B681B68AA
:10357C005021184600F0A5FA2BE07B6818683B68D0
:10358C0059683B68DB681A4600F06CFA7B681B686C
:10359C006021184600F095FA1BE07B6818683B68C0
:1035AC0059683B68DB681A4600F02EFA7B681B688A
:1035BC004021184600F085FA0BE07B681A683B68DE
:1035CC001B681946104600F07CFA02E000BF00E0D0
:1035DC0000BF7B68012283F83D207B68002283F8C2
:1035EC003C20002318461037BD4680BD80B483B004
:1035FC0000AF786000BF0C37BD4680BC704780B40C
:10360C0083B000AF786000BF0C37BD4680BC7047FC
:10361C0080B483B000AF786000BF0C37BD4680BC6F
:10362C00704780B483B000AF786000BF0C37BD46E4
:10363C0080BC704780B485B000AF786039607B681F
:10364C001B68FB607B68294A93420BD07B68B3F103
:10365C00804F07D07B68264A934203D07B68254A6B
:10366C00934208D1FB6823F07003FB603B685B68F6
:10367C00FA681343FB607B681C4A93420BD07B684F
:10368C00B3F1804F07D07B68194A934203D07B6813
:10369C00184A934208D1FB6823F44073FB603B68E3
:1036AC00DB68FA681343FB60FB6823F080023B681D
:1036BC005B691343FB607B68FA681A603B689A6825
:1036CC007B68DA623B681A687B689A627B68074A97
:1036DC00934203D13B681A697B681A637B680122A9
:1036EC005A6100BF1437BD4680BC7047002C0140A6
:1036FC00000400400008004080B487B000AF786040
:10370C0039607B681B6A23F001027B681A627B6854
:10371C001B6A7B617B685B683B617B689B69FB60B8
:10372C00FB6823F07003FB60FB6823F00303FB6072
:10373C003B681B68FA681343FB607B6923F0020348
:10374C007B613B689B687A6913437B617B681C4A8D
:10375C0093420CD17B6923F008037B613B68DB68E7
:10376C007A6913437B617B6923F004037B617B687B
:10377C00134A934211D13B6923F480733B613B693B
:10378C0023F400733B613B685B693A6913433B610B
:10379C003B689B693A6913433B617B683A695A60A1
:1037AC007B68FA689A613B685A687B685A637B68E5
:1037BC007A691A6200BF1C37BD4680BC704700BFD7
:1037CC00002C014080B487B000AF786039607B6812
:1037DC001B6A23F010027B681A627B681B6A7B6190
:1037EC007B685B683B617B689B69FB60FB6823F4CF
:1037FC00E043FB60FB6823F44073FB603B681B6891
:10380C001B02FA681343FB607B6923F020037B6186
:10381C003B689B681B017A6913437B617B681D4A7B
:10382C0093420DD17B6923F080037B613B68DB689D
:10383C001B017A6913437B617B6923F040037B6135
:10384C007B68144A934213D13B6923F480633B6138
:10385C003B6923F400633B613B685B699B003A69FD
:10386C0013433B613B689B699B003A6913433B6183
:10387C007B683A695A607B68FA689A613B685A6857
:10388C007B689A637B687A691A6200BF1C37BD46F5
:10389C0080BC7047002C014080B487B000AF7860CA
:1038AC0039607B681B6A23F480727B681A627B68C0
:1038BC001B6A7B617B685B683B617B68DB69FB60D7
:1038CC00FB6823F07003FB60FB6823F00303FB60D1
:1038DC003B681B68FA681343FB607B6923F4007335
:1038EC007B613B689B681B027A6913437B617B6835
:1038FC001D4A93420DD17B6923F400637B613B68C5
:10390C00DB681B027A6913437B617B6923F4806358
:10391C007B617B68144A934213D13B6923F4805337
:10392C003B613B6923F400533B613B685B691B01C2
:10393C003A6913433B613B689B691B013A6913432A
:10394C003B617B683A695A607B68FA68DA613B686C
:10395C005A687B68DA637B687A691A6200BF1C3725
:10396C00BD4680BC704700BF002C014080B487B0BE
:10397C0000AF786039607B681B6A23F480527B68E7
:10398C001A627B681B6A3B617B685B687B617B6846
:10399C00DB69FB60FB6823F4E043FB60FB6823F40A
:1039AC004073FB603B681B681B02FA681343FB60A7
:1039BC003B6923F400533B613B689B681B033A69EA
:1039CC0013433B617B680F4A934209D17B6923F413
:1039DC0080437B613B685B699B017A6913437B6124
:1039EC007B687A695A607B68FA68DA613B685A6866
:1039FC007B681A647B683A691A6200BF1C37BD4643
:103A0C0080BC7047002C014080B487B000AFF860D8
:103A1C00B9607A60FB681B6A7B61FB681B6A23F0E8
:103A2C000102FB681A62FB689B693B613B6923F0EE
:103A3C00F0033B617B681B013A6913433B617B6973
:103A4C0023F00A037B617A69BB6813437B61FB68D3
:103A5C003A699A61FB687A691A6200BF1C37BD46E5
:103A6C0080BC704780B487B000AFF860B9607A60F2
:103A7C00FB681B6A23F01002FB681A62FB689B69E7
:103A8C007B61FB681B6A3B617B6923F470437B6140
:103A9C007B681B037A6913437B613B6923F0A003AA
:103AAC003B61BB681B013A6913433B61FB687A6954
:103ABC009A61FB683A691A6200BF1C37BD4680BC2C
:103ACC00704780B485B000AF786039607B689B68C4
:103ADC00FB60FB6823F07003FB603A68FB681343E0
:103AEC0043F00703FB607B68FA689A6000BF1437E9
:103AFC00BD4680BC704780B487B000AFF860B96039
:103B0C007A603B60FB689B687B617B6923F47F4335
:103B1C007B613B681A027B681A43BB6813437A6962
:103B2C0013437B61FB687A699A6000BF1C37BD4602
:103B3C0080BC704780B487B000AFF860B9607A6021
:103B4C00BB6803F01F03012202FA03F37B61FB68DD
:103B5C001A6A7B69DB431A40FB681A62FB681A6AB3
:103B6C00BB6803F01F03796801FA03F31A43FB687F
:103B7C001A6200BF1C37BD4680BC704780B485B04C
:103B8C0000AF786039607B6893F83C30012B01D131
:103B9C00022346E07B68012283F83C207B680222EA
:103BAC0083F83D207B681B685B68FB607B681B6847
:103BBC009B68BB60FB6823F07003FB603B681B6871
:103BCC00FA681343FB607B681B68FA685A607B6871
:103BDC001B68164A93420ED07B681B68B3F1804F6A
:103BEC0009D07B681B68124A934204D07B681B681F
:103BFC00104A93420CD1BB6823F08003BB603B6836
:103C0C005B68BA681343BB607B681B68BA689A60D0
:103C1C007B68012283F83D207B68002283F83C20DE
:103C2C00002318461437BD4680BC7047002C014059
:103C3C00000400400008004080B483B000AF7860FE
:103C4C0000BF0C37BD4680BC704780B483B000AF5A
:103C5C00786000BF0C37BD4680BC704780B582B021
:103C6C0000AF78607B68002B01D101233FE07B68BB
:103C7C0093F83D30DBB2002B06D17B68002283F831
:103C8C003C207868FDF7E4FF7B68242283F83D2014
:103C9C007B681B68DA687B681B6822F40052DA6068
:103CAC00786800F085FC7B681B681A697B681B6868
:103CBC0022F490421A617B681B685A697B681B6806
:103CCC0022F02A025A617B681B68DA687B681B68E1
:103CDC0042F40052DA607B6800221A647B6820226E
:103CEC0083F83D207B68202283F83E200023184671
:103CFC000837BD4680BD80B58AB002AFF860B960A8
:103D0C003B601346FB8000237B61FB6893F83D30DE
:103D1C00DBB2202B7CD1BB68002B02D0FB88002BA4
:103D2C0001D1012375E0FB6893F83C30012B01D1E4
:103D3C0002236EE0FB68012283F83C20FB68002222
:103D4C001A64FB68212283F83D20FEF793F8786112
:103D5C00FB68FA889A84FB68FA88DA84FB689B68AB
:103D6C00B3F5805F08D1FB681B69002B04D10023DD
:103D7C00FB61BB68BB6103E0BB68FB610023BB61FB
:103D8C00FB68002283F83C202AE03B6800937B69A7
:103D9C0000228021F86800F038FA0346002B01D08D
:103DAC00032336E0FB69002B0BD1BB691B881A4639
:103DBC00FB681B68C2F308025A60BB690233BB6123
:103DCC0007E0FB691A78FB681B685A60FB690133D2
:103DDC00FB61FB68DB8C9BB2013B9AB2FB68DA841B
:103DEC00FB68DB8C9BB2002BCFD13B6800937B69CB
:103DFC0000224021F86800F008FA0346002B01D09D
:103E0C00032306E0FB68202283F83D20002300E01A
:103E1C00022318462037BD4680BD80B584B000AF64
:103E2C00F860B9601346FB80FB6893F83E30DBB258
:103E3C00202B1DD1BB68002B02D0FB88002B01D19D
:103E4C00012316E0FB6893F83C30012B01D10223CF
:103E5C000FE0FB68012283F83C20FB6800221A6308
:103E6C00FB881A46B968F86800F019FA034600E0B6
:103E7C00022318461037BD4680BD000080B58AB0BD
:103E8C0000AF78607B681B681B687B627B681B6873
:103E9C00DB683B627B681B685B69FB610023BB6171
:103EAC0000237B617B6A03F00F03BB61BB69002BB2
:103EBC000DD17B6A03F02003002B08D03B6A03F082
:103ECC002003002B03D0786800F0C9FA7BE1BB69B2
:103EDC00002B00F0B180FB6903F00103002B05D12E
:103EEC003B6A03F49073002B00F0A6807B6A03F00E
:103EFC000103002B0AD03B6A03F48073002B05D01E
:103F0C007B681B6C43F001027B681A647B6A03F0CC
:103F1C000403002B0AD0FB6903F00103002B05D02E
:103F2C007B681B6C43F002027B681A647B6A03F0AB
:103F3C000203002B0AD0FB6903F00103002B05D010
:103F4C007B681B6C43F004027B681A647B6A03F089
:103F5C000803002B0FD03B6A03F02003002B04D185
:103F6C00FB6903F00103002B05D07B681B6C43F04D
:103F7C0008027B681A647B681B6C002B00F01E81A6
:103F8C007B6A03F02003002B07D03B6A03F020036D
:103F9C00002B02D0786800F062FA7B681B685B69C2
:103FAC0003F04003002B14BF01230023DBB27B6121
:103FBC007B681B6C03F00803002B02D17B69002B80
:103FCC0031D0786800F0A4F97B681B685B6903F05A
:103FDC004003002B23D07B681B685A697B681B68E5
:103FEC0022F040025A617B689B6B002B13D07B68DC
:103FFC009B6B764A5A637B689B6B1846FEF78CF872
:10400C000346002B16D07B689B6B5B6B7A68926BBC
:10401C00104698470EE0786800F0E3F80AE07868FC
:10402C0000F0DFF806E0786800F0DBF87B6800222F
:10403C001A64C3E000BFC1E07B681B6B012B40F02E
:10404C00A1807B6A03F01003002B00F09B803B6A7D
:10405C0003F01003002B00F095800023FB607B68BD
:10406C001B681B68FB607B681B685B68FB60FB68FC
:10407C007B681B685B6903F04003002B4ED07B68A8
:10408C009B6B1B685B683B823B8A002B00F0988023
:10409C007B689B8D3A8A9A4280F092807B683A8A40
:1040AC00DA857B689B6B9B69202B2BD07B681B680C
:1040BC00DA687B681B6822F48072DA607B681B68A4
:1040CC005A697B681B6822F001025A617B681B6885
:1040DC005A697B681B6822F040025A617B68202277
:1040EC0083F83E207B6800221A637B681B68DA68C1
:1040FC007B681B6822F01002DA607B689B6B1846A9
:10410C00FDF7CFFF7B689A8D7B68DB8D9BB2D31A52
:10411C009BB21946786800F06DF851E07B689A8D77
:10412C007B68DB8D9BB2D31A7B827B68DB8D9BB269
:10413C00002B47D07B8A002B44D07B681B68DA6845
:10414C007B681B6822F49072DA607B681B685A6982
:10415C007B681B6822F001025A617B68202283F87D
:10416C003E207B6800221A637B681B68DA687B68D8
:10417C001B6822F01002DA607B8A1946786800F01E
:10418C0039F81FE07B6A03F08003002B08D03B6AF0
:10419C0003F08003002B03D0786800F0F9F812E0EC
:1041AC007B6A03F04003002B0DD03B6A03F0400305
:1041BC00002B08D0786800F03AF904E000BF02E068
:1041CC0000BF00E000BF2837BD4680BD7543000826
:1041DC0080B483B000AF786000BF0C37BD4680BCA4
:1041EC00704780B483B000AF786000BF0C37BD4619
:1041FC0080BC704780B483B000AF78600B467B8086
:10420C0000BF0C37BD4680BC704780B584B000AF92
:10421C00F860B9603B601346FB712CE0BB69B3F1ED
:10422C00FF3F28D0BB69002B07D0FDF723FE0246C9
:10423C003B68D31ABA699A421DD2FB681B68DA68CC
:10424C00FB681B6822F4D072DA60FB681B685A6941
:10425C00FB681B6822F001025A61FB68202283F87C
:10426C003D20FB68202283F83E20FB68002283F867
:10427C003C2003230FE0FB681B681A68BB681340E3
:10428C00BA689A420CBF01230023DBB21A46FB79B1
:10429C009A42C3D0002318461037BD4680BD80B467
:1042AC0085B000AFF860B9601346FB80FB68BA6854
:1042BC009A62FB68FA889A85FB68FA88DA85FB684B
:1042CC0000221A64FB68222283F83E20FB6800223D
:1042DC0083F83C20FB681B68DA68FB681B6842F4B7
:1042EC008072DA60FB681B685A69FB681B6842F0D5
:1042FC0001025A61FB681B68DA68FB681B6842F0B4
:10430C002002DA60002318461437BD4680BC704783
:10431C0080B483B000AF78607B681B68DA687B6818
:10432C001B6822F49072DA607B681B685A697B68A0
:10433C001B6822F001025A617B681B6B012B07D1B1
:10434C007B681B68DA687B681B6822F01002DA60F5
:10435C007B68202283F83E207B6800221A6300BF12
:10436C000C37BD4680BC704780B584B000AF786018
:10437C007B685B6AFB60FB680022DA85FB680022C5
:10438C00DA84F868FFF72DFF00BF1037BD4680BDFB
:10439C0080B485B000AF78607B6893F83D30DBB2B9
:1043AC00212B3ED17B689B68B3F5805F14D17B6871
:1043BC001B69002B10D17B681B6AFB60FB681B8898
:1043CC001A467B681B68C2F308025A607B681B6A3A
:1043DC009A1C7B681A6208E07B681B6A591C7A6815
:1043EC0011621A787B681B685A607B68DB8C9BB205
:1043FC00013B9BB27A681946D184002B0FD17B68A4
:10440C001B68DA687B681B6822F08002DA607B68C4
:10441C001B68DA687B681B6842F04002DA60002394
:10442C0000E0022318461437BD4680BC704780B5A7
:10443C0082B000AF78607B681B68DA687B681B68A9
:10444C0022F04002DA607B68202283F83D207868F5
:10445C00FFF7BEFE002318460837BD4680BD80B569
:10446C0086B000AF78607B6893F83E30DBB2222BCD
:10447C0040F099807B689B68B3F5805F17D17B68AF
:10448C001B69002B13D100237B617B689B6A3B610A
:10449C007B681B685B689BB2C3F308039AB23B69E9
:1044AC001A807B689B6A9A1C7B689A6226E07B6800
:1044BC009B6A7B6100233B617B689B68B3F5805FE3
:1044CC0007D07B689B68002B0AD17B681B69002B8B
:1044DC0006D17B681B685B68DAB27B691A7008E0EE
:1044EC007B681B685B68DBB203F07F03DAB27B6925
:1044FC001A707B689B6A5A1C7B689A627B68DB8D9E
:10450C009BB2013B9BB27A681946D185002B48D1EE
:10451C007B681B68DA687B681B6822F02002DA6013
:10452C007B681B68DA687B681B6822F48072DA602F
:10453C007B681B685A697B681B6822F001025A6110
:10454C007B68202283F83E207B681B6B012B23D1D8
:10455C007B6800221A637B681B68DA687B681B68BF
:10456C0022F01002DA607B681B681B6803F01003F2
:10457C00102B0AD10023FB607B681B681B68FB6057
:10458C007B681B685B68FB60FB687B689B8D1946CE
:10459C007868FFF72FFE02E07868FCF7C3FE002373
:1045AC0002E0002300E0022318461837BD4680BD08
:1045BC0080B584B000AF78607B681B681B6923F4FE
:1045CC0040517B68DA687B681B680A431A617B6818
:1045DC009A687B681B691A437B685B691343BB60F1
:1045EC007B681B68DB6823F4B05323F00C037A68F8
:1045FC001268B9680B43D3607B681B685B6923F452
:10460C0040717B689A697B681B680A435A617B68B6
:10461C001B682C4A934203D1FEF790FBF86002E032
:10462C00FEF778FBF860FA6813469B0013449A0077
:10463C001A447B685B689B00B2FBF3F3224AA2FB33
:10464C0003235B091901FA6813469B0013449A0073
:10465C001A447B685B689B00B2FBF3F21A4BA3FB1A
:10466C0002035B09642000FB03F3D31A1B013233F2
:10467C00154AA2FB03235B0903F0F0031944FA6803
:10468C0013469B0013449A001A447B685B689B009A
:10469C00B2FBF3F20C4BA3FB02035B09642000FB9F
:1046AC0003F3D31A1B013233074AA2FB03235B0922
:1046BC0003F00F027B681B680A449A6000BF103736
:1046CC00BD4680BD003801401F85EB5170B50026FA
:1046DC000C4D0D4C641BA410A64209D100F07AFCC1
:1046EC0000260A4D0A4C641BA410A64205D170BDCD
:1046FC0055F8043B98470136EEE755F8043B9847CC
:10470C000136F2E7B0510008B0510008B051000872
:10471C00B4510008024B0146186800F05FB800BFA6
:10472C003C000020024B0146186800F00BB800BF9B
:10473C003C00002003460244934200D1704703F82A
:10474C00011BF9E738B50546002943D051F8043C64
:10475C000C1F002BB8BFE41800F0CAF81E4A1368EF
:10476C00104633B9636014602846BDE8384000F049
:10477C00C5B8A3420AD921686218934201BF1A68CE
:10478C005B685218226063600460EDE71A465B6850
:10479C000BB1A342FAD911685018A0420BD1206872
:1047AC000144501883421160DED118685B680144E3
:1047BC0011605360D8E702D90C232B60D4E7206832
:1047CC0021188B4201BF19685B680918216063606E
:1047DC005460C9E738BD00BFD4000020F8B5CD1C2B
:1047EC0025F0030508350C2D38BF0C25002D064689
:1047FC0001DBA94203D90C2333600020F8BD00F083
:10480C0077F821490A6814469CB9204F3B6823B9B4
:10481C002146304600F03CF838602946304600F01E
:10482C0037F8431C23D10C233046336000F066F874
:10483C00E3E723685B1B17D40B2B03D923601C44C1
:10484C00256004E06368A2420CBF0B6053603046E5
:10485C0000F054F804F10B00231D20F00700C21ADD
:10486C00CCD01B1AA350C9E722466468CCE7C41C01
:10487C0024F00304A042E3D0211A304600F008F8DB
:10488C000130DDD1CFE700BFD4000020D8000020DC
:10489C0038B50023054D044608462B6000F08CFB10
:1048AC00431C02D12B6803B1236038BDD802002011
:1048BC000EB46FF0004100B59CB01DAB0290069099
:1048CC00079104910848094953F8042B0591006895
:1048DC0002A9019300F074F80022029B1A701CB01C
:1048EC005DF804EB03B070473C0000200802FFFFAA
:1048FC00014800F0FBBA00BFE0020020014800F0C4
:10490C00F6BA00BFE00200202DE9F0478E6882461F
:10491C009E420C4690461F4638D88A8912F4906FF6
:10492C0032D0256809690133A5EB010965694B444F
:10493C0005EB450505EBD5756D109D4238BF1D4641
:10494C00530531D52946FFF749FF064650B90C23CC
:10495C004FF0FF30CAF80030A38943F04003A38125
:10496C00BDE8F0874A46216900F0D0FAA38923F408
:10497C00906343F08003A38126614E4426603E463B
:10498C006561A5EB0905A560BE4200D93E463246DD
:10499C004146206800F0C8FAA36822689B1B324489
:1049AC000020A3602260DBE72A4600F0D7FA064617
:1049BC000028E1D150462169FFF7C4FEC7E700008B
:1049CC002DE9F04F98468B8907461B060D46144679
:1049DC009DB00ED50B6963B94021FFF7FFFE28602F
:1049EC00286120B90C233B604FF0FF30D1E040230D
:1049FC006B610023099320238DF8293030234FF06D
:104A0C000109CDF80C80DFF8A4818DF82A302346FB
:104A1C009A4613F8012B0AB1252AF9D1BAEB040BEB
:104A2C000BD05B46224629463846FFF76DFF013016
:104A3C0000F0AA80099A5A4409929AF80030002B87
:104A4C0000F0A28000234FF0FF32CDE905230AF1DC
:104A5C00010A049307938DF853301A935446052298
:104A6C0014F8011B514800F043FA049AD8B9D00647
:104A7C0044BF20238DF85330110744BF2B238DF8EE
:104A8C0053309AF800302A2B15D0544600204FF0A2
:104A9C000A0C079A214611F8013B303B092B4ED9E1
:104AAC00B0B1079214E0A0EB080309FA03F3134327
:104ABC00A2460493D2E7039B191D1B680391002B9C
:104ACC00BBBF5B4242F0020207930793B8BF04924C
:104ADC0023782E2B0CD163782A2B35D1039B0234EF
:104AEC001A1D1B680392002BB8BF4FF0FF330593C0
:104AFC00DFF8C8A003225046217800F0F9F940B144
:104B0C004023A0EB0A0003FA00F0049B013403439A
:104B1C00049314F8011B062225488DF8281000F088
:104B2C00E7F9002838D0234B1BBB039B073323F03A
:104B3C00070308330393099B3344099367E70C4637
:104B4C0001200CFB0232A5E700234FF00A0C19469A
:104B5C0001340593204610F8012B303A092A03D969
:104B6C00002BC5D00591C3E7044601230CFB0121A2
:104B7C00F0E703AB00932A4638460F4B04A9AFF37A
:104B8C000080421C0646D6D1AB895B063FF52CAFA4
:104B9C0009981DB0BDE8F08F03AB00932A46384648
:104BAC00054B04A900F07CF8EBE700BF7C51000832
:104BBC0086510008000000001549000882510008C9
:104BCC002DE9F047164699468A680B6907469342C9
:104BDC00B8BF1346336091F843200C46DDF82080B3
:104BEC000AB1013333602368990642BF336802333C
:104BFC003360256815F0060506D104F1190AE3683F
:104C0C0032689B1AAB4228DC94F84320131E2268AE
:104C1C0018BF012392062DD44946384604F14302AD
:104C2C00C047013020D02368E56803F00603042B4D
:104C3C0018BF002532684FF00006A36808BFAD1AF4
:104C4C00226908BF25EAE5759342C4BF9B1AED188B
:104C5C001A34B5421AD1002008E0012352464946C5
:104C6C003846C047013003D14FF0FF30BDE8F08724
:104C7C000135C4E73020E11881F843005A1C94F840
:104C8C0045102244023382F84310C5E70123224623
:104C9C0049463846C0470130E6D00136D9E7000016
:104CAC002DE9FF470C46277E9146782F80469A4681
:104CBC000C9904F1430207D8622F0AD8002F00F098
:104CCC00D980582F00F0A48004F1420684F8427079
:104CDC003AE0A7F16303152BF6D801A050F823F0A6
:104CEC00454D0008594D0008D54C0008D54C00081E
:104CFC00D54C0008D54C0008594D0008D54C00087F
:104D0C00D54C0008D54C0008D54C0008674E00085F
:104D1C00894D0008494E0008D54C0008D54C0008B8
:104D2C00894E0008D54C0008894D0008D54C000868
:104D3C00D54C0008514E00080B6804F142061A1DB0
:104D4C001B680A6084F842300123A4E025680868D7
:104D5C002E0600F104030AD505680B60002D03DA5A
:104D6C002D236D4284F843300A235E4819E015F078
:104D7C00400F05680B6018BF2DB2EFE70B68256874
:104D8C00181D0860280601D51D6802E06906FBD5D0
:104D9C001D886F2F0CBF08230A235248002184F86A
:104DAC0043106668002EA8BF2168A660A4BF21F03E
:104DBC00040121600DB9002E4DD01646B5FBF3F160
:104DCC0003FB1157C75D06F8017D2F46BB420D460C
:104DDC00F4D9082B0BD12368DF0708D52369616848
:104DEC009942DEBF302306F8013C06F1FF36921BD8
:104DFC0022614B4621464046CDF800A003AAFFF79E
:104E0C00DFFE01304CD14FF0FF3004B0BDE8F0872D
:104E1C00344884F845700E68236856F8045B1F0606
:104E2C000E6014D5D90744BF43F0200323601DB98D
:104E3C00236823F0200323601023AFE7236843F09B
:104E4C00200323607823284884F84530E3E75E0686
:104E5C0048BFADB2E6E71646BBE70B6826681D1DDA
:104E6C0060690D6035061B6801D5186002E071069B
:104E7C00FBD51880002316462361BAE70B681A1D70
:104E8C000A601E6800213046626800F031F808B1F3
:104E9C00801B606063682361002384F84330A8E7BB
:104EAC003246494640462369D0470130ABD023688F
:104EBC009B0713D4E068039B9842B8BF1846A4E73D
:104ECC000123324649464046D04701309BD001353C
:104EDC00E36803995B1AAB42F2DCEBE7002504F1C3
:104EEC001906F5E78D5100089E5100087047704770
:104EFC00034610B5C9B202449342184601D10020B2
:104F0C0003E0047801338C42F6D110BD0A4491427F
:104F1C0000F1FF3300D1704710B511F8014B9142ED
:104F2C0003F8014FF9D110BD884210B501EB020412
:104F3C0002D98442234607D8431EA14208D011F857
:104F4C00012B03F8012FF8E7014602448A4200D1F5
:104F5C0010BD13F8014D02F8014DF7E7F8B50746FF
:104F6C0014460E4621B91146BDE8F840FFF736BC91
:104F7C0022B9FFF7E7FB25462846F8BD00F014F8E8
:104F8C00A0420FD221463846FFF728FC05460028E0
:104F9C00F2D031462246FFF7B9FF31463846FFF7CB
:104FAC00D1FBE9E73546E7E751F8043C181F002B25
:104FBC00BCBF0B58C0187047044B0246196809B99E
:104FCC0003491960186802441A607047DC0000201D
:104FDC00E8020020F8B500BFF8BC08BC9E4670473C
:0C4FEC00F8B500BFF8BC08BC9E4670473A
:104FF8004D6F64653A204175746F6D617469632003
:105008006D6F64650D0A00005245442047524545BE
:105018004E0D0A0052454420414D4245520D0A00AA
:10502800475245454E205245440D0A00414D4245E0
:1050380052205245440D0A005065646573747269C4
:10504800616E206D6F64653A20475245454E0D0AE2
:10505800000000004D6F64653A204D616E75616C0B
:10506800206D6F64650D0A004D6F646520323A202B
:105078004D6F64696679696E67205245440D0A0070
:1050880043757272656E742074696D65203D2000E9
:1050980025640D0A000000004D6F646520333A2036
:1050A8004D6F64696679696E6720414D4245520DBE
:1050B8000A000000557064617465642074696D6548
:1050C800203D200055706F6E207570646174653ADC
:1050D8000D0A000052454420636F756E7465722096
:1050E8003D2000004D6F646520343A204D6F64699F
:1050F8006679696E6720475245454E0D0A000000E3
:10510800414D42455220636F756E746572203D2093
:1051180000000000475245454E20636F756E746568
:1051280072203D2000000000000000004C69676804
:10513800742031203D2025642020204C6967687444
:105148002032203D2025640D0A00000002030405DA
:10515800060708090A0B0C0D0E0F101000000000BE
:10516800000000000102030406070809000000000F
:1051780001020304232D302B2000686C4C00656667
:105188006745464700303132333435363738394190
:1051980042434445460030313233343536373839A6
:0851A8006162636465660000AA
:0451B00031010008C1
:0451B4000D010008E1
:1051B8003200000002000000900100000900000019
:1051C8000100000088130000D0070000B80B0000A1
:1051D800010000000100000001000000C8000000FC
:1051E8000024F4001000000001000000400000202E
:1051F80000000000000000000000000000000000A7
:105208000000000000000000000000000000000096
:105218000000000000000000000000000000000086
:105228000000000000000000000000000000000076
:105238000000000000000000000000000000000066
:105248000000000000000000000000000000000056
:0400000508001D854D
:00000001FF
