:020000040800F2
:100000000050002081120008111200081712000889
:100010001D12000823120008291200080000000029
:100020000000000000000000000000002F12000887
:100030003B1200080000000047120008531200089D
:10004000C9120008C9120008C9120008C912000824
:10005000C9120008C9120008C9120008C912000814
:10006000C9120008C9120008C9120008C912000804
:10007000C9120008C9120008C9120008C9120008F4
:10008000C9120008C9120008C9120008C9120008E4
:10009000C9120008C9120008C9120008C9120008D4
:1000A000C9120008C9120008C9120008C9120008C4
:1000B00061120008C9120008C9120008C91200081C
:1000C000C9120008C9120008C9120008C9120008A4
:1000D000C9120008C9120008C9120008C912000894
:1000E000C9120008C9120008C91200080000000067
:1000F0000000000000000000000000000000000000
:0C01000000000000000000005FF808F1A3
:10010C0010B5054C237833B9044B13B10448AFF345
:10011C0000800123237010BD30000020000000007F
:10012C00F82F000808B5034B1BB103490348AFF384
:10013C00008008BD0000000034000020F82F0008EB
:10014C0080B582B000AF01237B6098E0504A7B6899
:10015C0052F823204F497B6841F823204E4A7B6894
:10016C0052F823204A497B6841F823207B68012BF5
:10017C0009D10221494801F097FB03461946464A2A
:10018C007B6842F823107B68022B09D1102143486D
:10019C0001F08AFB034619463F4A7B6842F823105C
:1001AC007B68032B09D101213D4801F07DFB0346FF
:1001BC001946394A7B6842F823107B68042B09D115
:1001CC000121364801F070FB03461946324A7B6820
:1001DC0042F823102F4A7B6852F823202C497B6865
:1001EC0051F823309A4247D1294A7B6852F8232090
:1001FC0029497B6851F823309A423DD1294A7B68C2
:10020C0052F8232024497B6851F823309A4216D0A7
:10021C00214A7B6852F8232022497B6841F823202D
:10022C001D4A7B6852F82330002B25D1786800F0EA
:10023C005BF81D4A7B68C82142F823101CE01A4A5F
:10024C007B6852F823305A1E17497B6841F82320EB
:10025C00154A7B6852F82330002B0DD10E4A7B686F
:10026C0052F82330002B02D1786800F03DF80E4A8A
:10027C007B68C82142F823107B6801337B607B6864
:10028C00042B7FF763AF00BF00BF0837BD4680BDAE
:10029C00CC00002070000020080100200008014064
:1002AC00000C01405C000020E000002080B483B012
:1002BC0000AF78607B68042B01DD00230DE0094A58
:1002CC007B6852F82330002B06D0064A7B6800214D
:1002DC0042F82310012300E0002318460C37BD46DA
:1002EC0080BC7047F400002080B483B000AF78600D
:1002FC00044A7B68012142F8231000BF0C37BD462D
:10030C0080BC7047F400002080B500AF0120FFF7DF
:10031C00CDFF0346002B07D07C4B05221A6041F21F
:10032C008831002000F082FE794B9B68012B0ED1A6
:10033C00784B1B68013B774A1360774B1B68013B7A
:10034C00754A13604FF47A71022000F06FFE734B04
:10035C001B68032B4ED0032BC0F2D580502B00F31F
:10036C00D280322BC0F2CF80323B1E2B00F2CB80DE
:10037C0001A252F823F000BF3B040008130500084B
:10038C0013050008130500081305000813050008E1
:10039C0013050008130500081305000813050008D1
:1003AC006304000813050008130500081305000872
:1003BC0013050008130500081305000813050008B1
:1003CC0013050008130500089B040008130500081A
:1003DC001305000813050008130500081305000891
:1003EC001305000813050008130500081305000881
:1003FC00C30400084A4B4FF4C8721A6000F004FBA7
:10040C00464B32221A60474B1B681946002000F0FD
:10041C000DFE4FF47A71022000F008FE424B1B686F
:10042C003C4A13603F4B1B683B4A13606BE000F087
:10043C00EBFA374B1B68012B5ED1384B3C221A6010
:10044C003A4B1B681946002000F0F0FD374B1B6837
:10045C00314A136050E000F0F5FA2D4B1B68012B6C
:10046C004CD12E4B46221A602E4B1B68194600208D
:10047C0000F0DCFD2B4B1B68264A13602A4B1B68D3
:10048C00254A1360264B4FF4C8721A6036E000F010
:10049C00F7FA1F4B1B68012B32D1204B50221A60EC
:1004AC00224B1B681946002000F0C0FD1F4B1B6837
:1004BC00184A136024E000F001FB154B1B68012B5C
:1004CC0020D1164B32221A60164B1B68194600209D
:1004DC0000F0ACFD144B1B680E4A1360114B1B68EB
:1004EC000D4A13600E4B1B68B3F5167F0AD10C4BEB
:1004FC004FF4FA721A6005E000BF04E000BF02E09E
:10050C0000BF00E000BF00BF80BD00BF00000020A6
:10051C00780100201C000020200000200C0000208E
:10052C0004000020180000201000002014000020FF
:10053C0080B500AF724B1B68B3F5967F00F09380CB
:10054C00B3F5967F00F3D180642B02D0C82B45D035
:10055C00CBE06C4B5B68012B06D100F0CDFA4FF46D
:10056C00FA71012000F062FD664B1B68012B05D16E
:10057C00654B04221A60624B03221A600120FFF7BC
:10058C0095FE0346002B07D05D4BC8221A6041F242
:10059C008831002000F04AFD0220FFF787FE034659
:1005AC00002B02D0584B06221A600320FFF77EFE68
:1005BC000346002B00F09D80544B1B68544A13607B
:1005CC00534B1A68534B1B68D31A534A13604E4B48
:1005DC0004221A604A4B03221A608AE0494B5B687A
:1005EC00012B06D100F0C8FA4FF4FA71012000F08B
:1005FC001DFD444B1B68012B05D1434B04221A6093
:10060C003F4B03221A600120FFF750FE0346002BDC
:10061C0008D03B4B4FF496721A6041F2883100209F
:10062C0000F004FD0220FFF741FE0346002B02D030
:10063C00354B06221A600320FFF738FE0346002BC9
:10064C0059D0324B1B68334A1360324B1A68324B09
:10065C001B6813442E4A13602B4B04221A60284B40
:10066C0003221A6047E0274B5B68012B06D100F090
:10067C00C3FA4FF4FA71012000F0D8FC214B1B682F
:10068C00012B05D1204B04221A601D4B03221A604A
:10069C000120FFF70BFE0346002B05D01A4B04225A
:1006AC001A60174B03221A600220FFF7FFFD034666
:1006BC00002B02D0144B06221A600320FFF7F6FD24
:1006CC000346002B19D0114B1B68134A1360114BB6
:1006DC001A68114B1B6813440D4A13600A4B042211
:1006EC001A60074B03221A6007E0054B64221A605C
:1006FC0004E000BF02E000BF00E000BF00BF80BD0F
:10070C000C00002078010020000000205400002084
:10071C0010000020140000201800002080B500AF4D
:10072C0001224FF48061054801F0D5F800224FF406
:10073C008071034801F0CFF800BF80BD000C014070
:10074C000008014080B500AF00224FF480610548DD
:10075C0001F0C1F801224FF48071034801F0BBF89D
:10076C0000BF80BD000C01400008014080B500AF07
:10077C0000224FF48061054801F0ADF800224FF4DF
:10078C008071034801F0A7F800BF80BD000C014048
:10079C000008014080B500AF224B1B68B3F5167FF3
:1007AC003AD0B3F5167F3BDCB3F5C87F03D0B3F575
:1007BC00FA7F2BD034E0FFF7D9FF1B4B09221A60CC
:1007CC000420FFF773FD0346002B28D0174B1B6842
:1007DC003C2B03D0154B1B68322B04D1114B4FF41F
:1007EC00FA721A6011E0114B1B68462B03D00F4BA9
:1007FC001B68502B04D10B4B4FF416721A6004E09B
:10080C00084B4FF4C8721A6009E008E0FFF79AFF32
:10081C00054B07221A6003E0FFF780FF00E000BFE2
:10082C0000BF80BD04000020080000200C00002048
:10083C0080B500AF384B1B68092B06D0092B69DC3F
:10084C00072B0BD0082B31D064E0344B00221A60FC
:10085C00324B1A68324B1B685A635BE0314B1B6896
:10086C003C2B0BD1304B1A68304B1B689A4205DC81
:10087C00294B08221A60294B14221A602C4BDB6876
:10088C00012B44D1254B1B68002B01D1142300E014
:10089C000023224A1360214B1A68214B1B685A63B0
:1008AC004FF47A71032000F0C1FB30E01D4B1B6844
:1008BC003C2B06D01B4B1B68322B02D0164B09224B
:1008CC001A601C4B1B6814331A4A1360184BDB68F4
:1008DC00012B1ED1114B1B68002B03D1154B1B6830
:1008EC00143300E000230D4A13600C4B1A680C4BB8
:1008FC001B685A630F4B1B686FF0090202FB03F372
:10090C0003F57A731946032000F090FB01E000BF59
:10091C0000E000BF00BF80BD080000204C0000209C
:10092C00840000200000002064010020140000203E
:10093C00780100205000002080B400AF2B4B1B68C6
:10094C00B3F5967F35D0B3F5967F49DC642B02D096
:10095C00C82B17D044E0264B1B68264A1360254B46
:10096C001B68254A934203D1224B00221A6005E0F2
:10097C00204B1B6803F57A731E4A13601F4B05222C
:10098C001A602EE01E4B1B681A4A1360194B1B6829
:10099C00194A934203D1174B00221A6005E0154BFC
:1009AC001B6803F57A73134A1360144B05221A6003
:1009BC0017E0144B1B680F4A13600E4B1B680E4A52
:1009CC00934203D10B4B00221A6005E0094B1B68C4
:1009DC0003F57A73074A1360084B05221A6000E08E
:1009EC0000BF00BFBD4680BC704700BF0C0000209C
:1009FC001000002054000020B882010000000020EC
:100A0C00140000201800002080B500AF01224FF424
:100A1C0080610A4800F05FFF00220821084800F0BE
:100A2C005AFF00222021064800F055FF0122102118
:100A3C00034800F050FF00BF80BD00BF000801401C
:100A4C00000C014080B500AF01224FF480610A48D0
:100A5C0000F041FF00220821084800F03CFF012271
:100A6C002021064800F037FF01221021034800F036
:100A7C0032FF00BF80BD00BF00080140000C0140E8
:100A8C0080B500AF00224FF480610A4800F023FFCC
:100A9C0001220821084800F01EFF012220210648EF
:100AAC0000F019FF00221021034800F014FF00BFD2
:100ABC0080BD00BF00080140000C014080B500AFB4
:100ACC0001224FF480610A4800F005FF0122082141
:100ADC00084800F000FF01222021064800F0FBFE30
:100AEC0000221021034800F0F6FE00BF80BD00BFBD
:100AFC0000080140000C014080B500AF1B4B1B6887
:100B0C00002B18D101224FF48061194800F0E3FE4C
:100B1C0000220821174800F0DEFE01222021154892
:100B2C0000F0D9FE00221021124800F0D4FE0F4B29
:100B3C0001221A6017E000224FF480610C4800F08B
:100B4C00CAFE002208210B4800F0C5FE002220211D
:100B5C00084800F0C0FE00221021064800F0BBFE41
:100B6C00024B00221A6000BF80BD00BF580000205D
:100B7C0000080140000C014080B500AF1B4B1B6806
:100B8C00002B18D101224FF48061194800F0A3FE0C
:100B9C0001220821174800F09EFE01222021154851
:100BAC0000F099FE01221021124800F094FE0F4B28
:100BBC0001221A6017E000224FF480610C4800F00B
:100BCC008AFE002208210B4800F085FE002220211D
:100BDC00084800F080FE00221021064800F07BFE41
:100BEC00024B00221A6000BF80BD00BF58000020DD
:100BFC0000080140000C014080B500AF1B4B1B6886
:100C0C00002B18D100224FF48061194800F063FECC
:100C1C0001220821174800F05EFE00222021154811
:100C2C0000F059FE01221021124800F054FE0F4B27
:100C3C0001221A6017E000224FF480610C4800F08A
:100C4C004AFE002208210B4800F045FE002220211C
:100C5C00084800F040FE00221021064800F03BFE40
:100C6C00024B00221A6000BF80BD00BF580000205C
:100C7C0000080140000C014080B500AF114B1B680F
:100C8C00033B032B1BD801A252F823F0A90C00083C
:100C9C00B10C0008BF0C0008C50C0008094B04225D
:100CAC001A600DE0FFF730FBFFF774FDFFF7C0FD96
:100CBC0006E0FFF73DFC03E0FFF73EFE00E000BF5F
:100CCC0000BF80BD0000002080B500AF00F0F8FA36
:100CDC0000F028F800F068F800F028F900F0B0F8FF
:100CEC000E4801F049FA00210D4801F0EFFA4FF4DB
:100CFC007A71002000F09AF94FF47A71012000F01B
:100D0C0095F94FF47A71022000F090F94FF47A7152
:100D1C00032000F08BF9FFF7AFFFFCE71C0100206C
:100D2C008400002080B590B000AF07F11803282292
:100D3C000021184602F052F93B1D00221A605A603D
:100D4C009A60DA601A610223BB610123BB62102333
:100D5C00FB6202237B630023BB634FF46013FB63D2
:100D6C0007F11803184600F0CFFD0346002B01D005
:100D7C0000F056F90F237B600223BB600023FB605D
:100D8C004FF480633B6100237B613B1D02211846BD
:100D9C0001F03AF80346002B01D000F041F900BFF6
:100DAC004037BD4680BD000080B586B000AF07F16E
:100DBC00080300221A605A609A60DA603B460022EF
:100DCC001A605A601D4B4FF080421A601B4B41F663
:100DDC003F725A60194B00229A60184B4F22DA600E
:100DEC00164B00221A61154B00229A61134801F030
:100DFC0073F90346002B01D000F012F94FF4805325
:100E0C00BB6007F1080319460C4801F0C7FC034608
:100E1C00002B01D000F004F900233B6000237B6021
:100E2C003B461946054802F045F80346002B01D015
:100E3C0000F0F6F800BF1837BD4680BD1C0100203D
:100E4C0080B58EB000AF07F1280300221A605A60FB
:100E5C009A60DA6007F1200300221A605A603B1D89
:100E6C0000221A605A609A60DA601A615A619A61BB
:100E7C002C4B2D4A1A602B4B4F225A60294B0022C7
:100E8C009A60284B4F22DA60264B00221A61254BC0
:100E9C0000229A61234801F01FF90346002B01D070
:100EAC0000F0BEF84FF48053BB6207F128031946DB
:100EBC001C4801F073FC0346002B01D000F0B0F885
:100ECC00184801F0ABF90346002B01D000F0A8F84C
:100EDC0000233B6200237B6207F120031946114873
:100EEC0001F0E8FF0346002B01D000F099F86023D5
:100EFC007B600023BB600023FB6000237B613B1DF8
:100F0C0000221946074801F08BFB0346002B01D049
:100F1C0000F086F8034800F043F900BF3837BD46AF
:100F2C0080BD00BF840000200004004080B586B066
:100F3C0000AF07F1080300221A605A609A60DA6069
:100F4C002E4B9B692D4A43F0040393612B4B9B69F9
:100F5C0003F004037B607B68284B9B69274A43F0B2
:100F6C0008039361254B9B6903F008033B603B68C6
:100F7C0000224FF48761224800F0ADFC00224FF4B0
:100F8C00A061204800F0A7FC1323BB600023FB608A
:100F9C0001233B6107F1080319461A4800F000FBD6
:100FAC000123BB600023FB6001233B6107F10803B5
:100FBC001946134800F0F4FA4FF48763BB60012321
:100FCC00FB6000233B6102237B6107F10803194698
:100FDC000B4800F0E5FA4FF4A063BB600123FB6003
:100FEC0000233B6102237B6107F108031946054886
:100FFC0000F0D6FA00BF1837BD4680BD0010024085
:10100C00000C01400008014080B582B000AF786050
:10101C0000F02CF8FFF794F800BF0837BD4680BDF0
:10102C0080B400AF72B600BFFEE7000080B483B09E
:10103C0000AF786039603B68094A82FB031292105A
:10104C00DB17D21A07497B6841F82320064A7B68D4
:10105C00002142F8231000BF0C37BD4680BC7047FE
:10106C0067666666640100207801002080B483B056
:10107C0000AF00237B601CE0124A7B6852F82330DF
:10108C00002B13DD0F4A7B6852F823305A1E0D4992
:10109C007B6841F823200B4A7B6852F82330002BE5
:1010AC0004DC094A7B68012142F823107B68013378
:1010BC007B607B68032BDFDD00BF00BF0C37BD46B8
:1010CC0080BC7047640100207801002080B485B09A
:1010DC0000AF154B9B69144A43F001039361124B0B
:1010EC009B6903F00103BB60BB680F4BDB690E4AC5
:1010FC0043F08053D3610C4BDB6903F080537B606E
:10110C007B680A4B5B68FB60FB6823F0E063FB6069
:10111C00FB6843F00073FB60044AFB68536000BF3C
:10112C001437BD4680BC70470010024000000140DF
:10113C0080B584B000AF78607B681B68B3F1804FDA
:10114C0014D1154BDB69144A43F00103D361124BE4
:10115C00DB6903F00103FB60FB68002200211C200B
:10116C0000F0E7F91C2000F000FA10E07B681B6827
:10117C000A4A93420BD1084BDB69074A43F002033E
:10118C00D361054BDB6903F00203BB60BB6800BF96
:10119C001037BD4680BD00BF001002400004004067
:1011AC0080B588B000AF786007F1100300221A6098
:1011BC005A609A60DA607B681B680F4A934217D1B9
:1011CC000E4B9B690D4A43F0040393610B4B9B69D7
:1011DC0003F00403FB60FB6840233B6102237B614B
:1011EC000223FB6107F110031946054800F0D8F9FA
:1011FC0000BF2037BD4680BD0004004000100240F7
:10120C000008014080B400AFFEE780B400AFFEE7F9
:10121C0080B400AFFEE780B400AFFEE780B400AF4F
:10122C00FEE780B400AF00BFBD4680BC704780B401
:10123C0000AF00BFBD4680BC704780B400AF00BF9C
:10124C00BD4680BC704780B500AF00F07FF800BF92
:10125C0080BD000080B500AF024801F0D9F800BF96
:10126C0080BD00BF1C01002080B400AF00BFBD4694
:10127C0080BC70470C480D490D4A002302E0D4583D
:10128C00C4500433C4188C42F9D30A4A0A4C0023C4
:10129C0001E013600432A242FBD3FFF7E5FF01F03B
:1012AC0079FEFFF711FD7047000000203000002090
:1012BC00383000083000002090010020FEE70000CC
:1012CC0080B500AF084B1B68074A43F0100313604E
:1012DC00032000F023F90F2000F008F8FFF7F6FECA
:1012EC000023184680BD00BF0020024080B582B0AC
:1012FC0000AF7860124B1A68124B1B7819464FF4EA
:10130C007A73B3FBF1F3B2FBF3F3184600F03BF93D
:10131C000346002B01D001230EE07B680F2B0AD86B
:10132C00002279684FF0FF3000F003F9064A7B6821
:10133C001360002300E0012318460837BD4680BD2A
:10134C00240000202C0000202800002080B400AFD6
:10135C00054B1B781A46054B1B681344034A136054
:10136C0000BFBD4680BC70472C0000208C010020C3
:10137C0080B400AF024B1B681846BD4680BC70475A
:10138C008C01002080B485B000AF78607B6803F0DE
:10139C000703FB600C4BDB68BB60BA684FF6FF03BE
:1013AC001340BB60FB681A02BB68134343F0BF6376
:1013BC0043F40033BB60044ABB68D36000BF1437EE
:1013CC00BD4680BC704700BF00ED00E080B400AFAC
:1013DC00044BDB681B0A03F007031846BD4680BCB0
:1013EC00704700BF00ED00E080B483B000AF03464F
:1013FC00FB7197F90730002B0BDBFB7903F01F0215
:10140C00064997F907305B09012000FA02F241F80E
:10141C00232000BF0C37BD4680BC704700E100E0C4
:10142C0080B483B000AF03463960FB7197F9073085
:10143C00002B0ADB3B68DAB20C4997F90730120132
:10144C00D2B20B4483F800230AE03B68DAB20849B5
:10145C00FB7903F00F03043B1201D2B20B441A7652
:10146C0000BF0C37BD4680BC704700BF00E100E0F8
:10147C0000ED00E080B489B000AFF860B9607A602C
:10148C00FB6803F00703FB61FB69C3F10703042B43
:10149C0028BF0423BB61FB690433062B02D9FB690B
:1014AC00033B00E000237B614FF0FF32BB6902FA83
:1014BC0003F3DA43BB681A407B699A404FF0FF3163
:1014CC007B6901FA03F3D9437B680B40134318463D
:1014DC002437BD4680BC704780B582B000AF7860C1
:1014EC007B68013BB3F1807F01D301230FE00A4AF3
:1014FC007B68013B53600F214FF0FF30FFF790FFEB
:10150C00054B00229A60044B07221A6000231846F0
:10151C000837BD4680BD00BF10E000E080B582B04A
:10152C0000AF78607868FFF72DFF00BF0837BD4625
:10153C0080BD80B586B000AF0346B9607A60FB739E
:10154C0000237B61FFF742FF78617A68B96878699C
:10155C00FFF790FF024697F90F3011461846FFF738
:10156C005FFF00BF1837BD4680BD80B582B000AFAD
:10157C000346FB7197F907301846FFF735FF00BF9C
:10158C000837BD4680BD80B582B000AF7860786802
:10159C00FFF7A2FF034618460837BD4680BD000082
:1015AC0080B48BB000AF7860396000237B6200237D
:1015BC003B6269E101227B6A02FA03F3FB613B683F
:1015CC001B68FA691340BB61BA69FB699A4240F027
:1015DC0058813B685B689A4A93425ED0984A934222
:1015EC0075D8984A934258D0964A93426FD8964AE7
:1015FC00934252D0944A934269D8944A93424CD025
:10160C00924A934263D8924A934246D0904A93426C
:10161C005DD8122B2AD8122B59D801A252F823F0DC
:10162C00A71600088116000893160008D5160008A6
:10163C00DB160008DB160008DB160008DB160008BA
:10164C00DB160008DB160008DB160008DB160008AA
:10165C00DB160008DB160008DB160008DB1600089A
:10166C00DB160008891600089D160008794A93427B
:10167C0013D02CE03B68DB683B6229E03B68DB68FD
:10168C0004333B6224E03B68DB6808333B621FE0B9
:10169C003B68DB680C333B621AE03B689B68002BB1
:1016AC0002D104233B6213E03B689B68012B05D1FC
:1016BC0008233B627B68FA691A6109E008233B62E4
:1016CC007B68FA695A6103E000233B6200E000BFCB
:1016DC00BB69FF2B01D87B6801E07B6804337B611D
:1016EC00BB69FF2B02D87B6A9B0002E07B6A083B3C
:1016FC009B003B617B691A680F213B6901FA03F37C
:10170C00DB431A40396A3B6901FA03F31A437B69DC
:10171C001A603B685B6803F08053002B00F0B180CB
:10172C004D4B9B694C4A43F0010393614A4B9B69B7
:10173C0003F00103BB60BB68484A7B6A9B08023319
:10174C0052F82330FB607B6A03F003039B000F22EB
:10175C0002FA03F3DB43FA681340FB607B68404AF0
:10176C00934213D07B683F4A93420DD07B683E4A2C
:10177C00934207D07B683D4A934201D1032306E094
:10178C00042304E0022302E0012300E000237A6A30
:10179C0002F0030292009340FA681343FB602F4956
:1017AC007B6A9B080233FA6841F823203B685B682C
:1017BC0003F48033002B06D02D4B1A682C49BB69DF
:1017CC0013430B6006E02A4B1A68BB69DB432849BC
:1017DC0013400B603B685B6803F40033002B06D0AE
:1017EC00234B5A682249BB6913434B6006E0204BDC
:1017FC005A68BB69DB431E4913404B603B685B680E
:10180C0003F48013002B06D0194B9A681849BB6956
:10181C0013438B6006E0164B9A68BB69DB43144993
:10182C0013408B603B685B6803F40013002B21D0E2
:10183C000F4BDA680E49BB691343CB6021E000BF44
:10184C0000003210000031100000221000002110A6
:10185C0000001210000011100010024000000140A6
:10186C0000080140000C0140001001400014014030
:10187C00000401400B4BDA68BB69DB430949134098
:10188C00CB607B6A01337B623B681A687B6A22FA05
:10189C0003F3002B7FF48EAE00BF00BF2C37BD4688
:1018AC0080BC70470004014080B485B000AF786004
:1018BC000B467B807B689A687B881340002B02D098
:1018CC000123FB7301E00023FB73FB7B18461437E9
:1018DC00BD4680BC704780B483B000AF78600B46C7
:1018EC007B8013467B707B78002B03D07A887B68D7
:1018FC001A6103E07B881A047B681A6100BF0C37FD
:10190C00BD4680BC7047000080B586B000AF7860E3
:10191C007B68002B01D101236CE27B681B6803F010
:10192C000103002B00F08780924B5B6803F00C03E3
:10193C00042B0CD08F4B5B6803F00C03082B12D1DB
:10194C008C4B5B6803F48033B3F5803F0BD1894B30
:10195C001B6803F40033002B6CD07B685B68002B96
:10196C0068D1012346E27B685B68B3F5803F06D102
:10197C00804B1B687F4A43F4803313602EE07B68F6
:10198C005B68002B0CD17B4B1B687A4A23F48033A9
:10199C001360784B1B68774A23F4802313601DE097
:1019AC007B685B68B3F5A02F0CD1724B1B68714A36
:1019BC0043F4802313606F4B1B686E4A43F48033EF
:1019CC0013600BE06B4B1B686A4A23F48033136083
:1019DC00684B1B68674A23F4802313607B685B6841
:1019EC00002B13D0FFF7C4FC386108E0FFF7C0FCF4
:1019FC0002463B69D31A642B01D90323FAE15D4BF0
:101A0C001B6803F40033002BF0D014E0FFF7B0FC9C
:101A1C00386108E0FFF7ACFC02463B69D31A642B33
:101A2C0001D90323E6E1534B1B6803F40033002B6D
:101A3C00F0D100E000BF7B681B6803F00203002BB1
:101A4C0063D04C4B5B6803F00C03002B0BD0494B61
:101A5C005B6803F00C03082B1CD1464B5B6803F44A
:101A6C008033002B16D1434B1B6803F00203002B71
:101A7C0005D07B681B69012B01D00123BAE13D4BDA
:101A8C001B6823F0F8027B685B69DB003949134360
:101A9C000B603AE07B681B69002B20D0364B01228F
:101AAC001A60FFF765FC386108E0FFF761FC02463D
:101ABC003B69D31A022B01D903239BE12D4B1B68E5
:101ACC0003F00203002BF0D02A4B1B6823F0F80222
:101ADC007B685B69DB00274913430B6015E0264BE1
:101AEC0000221A60FFF744FC386108E0FFF740FC65
:101AFC0002463B69D31A022B01D903237AE11D4B11
:101B0C001B6803F00203002BF0D17B681B6803F009
:101B1C000803002B3AD07B689B69002B19D0174B1C
:101B2C0001221A60FFF724FC386108E0FFF720FC63
:101B3C0002463B69D31A022B01D903235AE10D4B00
:101B4C005B6A03F00203002BF0D0012000F0A6FA30
:101B5C001CE00A4B00221A60FFF70AFC38610FE008
:101B6C00FFF706FC02463B69D31A022B08D9032364
:101B7C0040E100BF0010024000004242800442429B
:101B8C009E4B5B6A03F00203002BE9D17B681B6858
:101B9C0003F00403002B00F0A6800023FB75974B89
:101BAC00DB6903F08053002B0DD1944BDB69934A16
:101BBC0043F08053D361914BDB6903F08053BB60DE
:101BCC00BB680123FB758E4B1B6803F48073002BE1
:101BDC0018D18B4B1B688A4A43F480731360FFF750
:101BEC00C7FB386108E0FFF7C3FB02463B69D31A19
:101BFC00642B01D90323FDE0814B1B6803F4807334
:101C0C00002BF0D07B68DB68012B06D17B4B1B6A69
:101C1C007A4A43F0010313622DE07B68DB68002BEA
:101C2C000CD1764B1B6A754A23F001031362734B7C
:101C3C001B6A724A23F0040313621CE07B68DB68A6
:101C4C00052B0CD16D4B1B6A6C4A43F004031362D9
:101C5C006A4B1B6A694A43F0010313620BE0674B42
:101C6C001B6A664A23F001031362644B1B6A634AC6
:101C7C0023F0040313627B68DB68002B15D0FFF79D
:101C8C0077FB38610AE0FFF773FB02463B69D31A16
:101C9C0041F28832934201D90323ABE0574B1B6AC4
:101CAC0003F00203002BEED014E0FFF761FB386168
:101CBC000AE0FFF75DFB02463B69D31A41F288321A
:101CCC00934201D9032395E04C4B1B6A03F00203AA
:101CDC00002BEED1FB7D012B05D1484BDB69474A2C
:101CEC0023F08053D3617B68DB69002B00F081808B
:101CFC00424B5B6803F00C03082B61D07B68DB69FB
:101D0C00022B46D13F4B00221A60FFF731FB3861A2
:101D1C0008E0FFF72DFB02463B69D31A022B01D9D1
:101D2C00032367E0354B1B6803F00073002BF0D1E5
:101D3C007B681B6AB3F5803F08D1304B5B6823F49A
:101D4C0000327B689B682D4913434B602B4B5B68BF
:101D5C0023F474127B68196A7B685B6A0B4327490E
:101D6C0013434B60274B01221A60FFF701FB3861CC
:101D7C0008E0FFF7FDFA02463B69D31A022B01D9A2
:101D8C00032337E01D4B1B6803F00073002BF0D0CE
:101D9C002FE01C4B00221A60FFF7EAFA386108E0CA
:101DAC00FFF7E6FA02463B69D31A022B01D903234B
:101DBC0020E0124B1B6803F00073002BF0D118E0ED
:101DCC007B68DB69012B01D1012313E00B4B5B68B2
:101DDC00FB60FB6803F480327B681B6A9A4206D175
:101DEC00FB6803F470127B685B6A9A4201D0012392
:101DFC0000E0002318461837BD4680BD0010024095
:101E0C00007000406000424280B584B000AF786042
:101E1C0039607B68002B01D10123D0E06A4B1B6831
:101E2C0003F007033A689A4210D9674B1B6823F0FA
:101E3C00070265493B6813430B60634B1B6803F057
:101E4C0007033A689A4201D00123B8E07B681B680B
:101E5C0003F00203002B20D07B681B6803F0040303
:101E6C00002B05D0594B5B68584A43F4E063536030
:101E7C007B681B6803F00803002B05D0534B5B6891
:101E8C00524A43F460535360504B5B6823F0F002AA
:101E9C007B689B684D4913434B607B681B6803F060
:101EAC000103002B40D07B685B68012B07D1474BAB
:101EBC001B6803F40033002B15D101237FE07B68F2
:101ECC005B68022B07D1414B1B6803F00073002B9E
:101EDC0009D1012373E03D4B1B6803F00203002B77
:101EEC0001D101236BE0394B5B6823F003027B6863
:101EFC005B68364913434B60FFF73AFAF8600AE027
:101F0C00FFF736FA0246FB68D31A41F28832934245
:101F1C0001D9032353E02D4B5B6803F00C027B6863
:101F2C005B689B009A42EBD1274B1B6803F00703BD
:101F3C003A689A4210D2244B1B6823F007022249BC
:101F4C003B6813430B60204B1B6803F007033A6894
:101F5C009A4201D0012332E07B681B6803F0040332
:101F6C00002B08D0194B5B6823F4E0627B68DB68BC
:101F7C00164913434B607B681B6803F00803002B66
:101F8C0009D0124B5B6823F460527B681B69DB0041
:101F9C000E4913434B6000F021F802460B4B5B6873
:101FAC001B0903F00F030A49CB5C22FA03F3094A1D
:101FBC001360094B1B681846FFF798F90023184665
:101FCC001037BD4680BD00BF00200240001002400B
:101FDC0020300008240000202800002090B48AB093
:101FEC0000AF2A4B3C1D0FCB84E80F0040F20123BD
:101FFC003B800023FB610023BB6100237B62002339
:10200C007B6100233B62224B5B68FB61FB6903F045
:10201C000C03042B02D0082B03D02DE01D4B3B628C
:10202C002DE0FB699B0C03F00F0307F1280213440E
:10203C0013F8243C7B61FB6903F48033002B13D031
:10204C00134B5B685B0C03F0010307F1280213448C
:10205C0013F8283CBB617B690E4A02FB03F2BB6997
:10206C00B2FBF3F37B6204E07B690B4A02FB03F3E4
:10207C007B627B6A3B6202E0064B3B6200BF3B6AC1
:10208C0018462837BD4690BC704700BF103000087A
:10209C000010024000127A0000093D0080B485B0A7
:1020AC0000AF78600A4B1B680A4AA2FB03235B0A49
:1020BC007A6802FB03F3FB6000BFFB685A1EFA60F0
:1020CC00002BF9D100BF00BF1437BD4680BC704750
:1020DC0024000020D34D621080B582B000AF786030
:1020EC007B68002B01D1012341E07B6893F83D30E4
:1020FC00DBB2002B06D17B68002283F83C20786889
:10210C00FFF716F87B68022283F83D207B681A687B
:10211C007B6804331946104600F028FC7B680122CA
:10212C0083F846207B68012283F83E207B680122DD
:10213C0083F83F207B68012283F840207B680122D2
:10214C0083F841207B68012283F842207B680122BE
:10215C0083F843207B68012283F844207B680122AA
:10216C0083F845207B68012283F83D200023184624
:10217C000837BD4680BD000080B485B000AF7860E4
:10218C007B6893F83D30DBB2012B01D001233AE0A0
:10219C007B68022283F83D207B681B68DA687B68C9
:1021AC001B6842F00102DA607B681B68184A934294
:1021BC000ED07B681B68B3F1804F09D07B681B681D
:1021CC00144A934204D07B681B68134A934211D182
:1021DC007B681B689B6803F00703FB60FB68062B9E
:1021EC0010D07B681B681A687B681B6842F0010280
:1021FC001A6007E07B681B681A687B681B6842F0F2
:10220C0001021A60002318461437BD4680BC704783
:10221C00002C0140000400400008004080B582B052
:10222C0000AF78607B68002B01D1012341E07B6813
:10223C0093F83D30DBB2002B06D17B68002283F88B
:10224C003C20786800F039F87B68022283F83D2046
:10225C007B681A687B6804331946104600F086FBCD
:10226C007B68012283F846207B68012283F83E209C
:10227C007B68012283F83F207B68012283F8402091
:10228C007B68012283F841207B68012283F842207D
:10229C007B68012283F843207B68012283F8442069
:1022AC007B68012283F845207B68012283F83D205E
:1022BC00002318460837BD4680BD80B483B000AFFC
:1022CC00786000BF0C37BD4680BC704780B584B0C9
:1022DC0000AF786039603B68002B09D17B6893F8BC
:1022EC003E30DBB2012B14BF01230023DBB222E012
:1022FC003B68042B09D17B6893F83F30DBB2012B90
:10230C0014BF01230023DBB215E03B68082B09D175
:10231C007B6893F84030DBB2012B14BF0123002300
:10232C00DBB208E07B6893F84130DBB2012B14BFC1
:10233C0001230023DBB2002B01D001235EE03B68BC
:10234C00002B04D17B68022283F83E2013E03B680B
:10235C00042B04D17B68022283F83F200BE03B68FE
:10236C00082B04D17B68022283F8402003E07B68B1
:10237C00022283F841207B681B68012239681846C9
:10238C0000F074FD7B681B681E4A934207D17B6882
:10239C001B685A6C7B681B6842F400425A647B6869
:1023AC001B68184A93420ED07B681B68B3F1804FB0
:1023BC0009D07B681B68144A934204D07B681B6865
:1023CC00124A934211D17B681B689B6803F0070388
:1023DC00FB60FB68062B10D07B681B681A687B6857
:1023EC001B6842F001021A6007E07B681B681A68E0
:1023FC007B681B6842F001021A60002318461037F4
:10240C00BD4680BD002C0140000400400008004087
:10241C0080B582B000AF78607B681B681B6903F0E5
:10242C000203022B22D17B681B68DB6803F00203DA
:10243C00022B1BD17B681B686FF002021A617B6850
:10244C0001221A777B681B689B6903F00303002B3E
:10245C0003D0786800F06FFA05E0786800F062FA53
:10246C00786800F071FA7B6800221A777B681B6829
:10247C001B6903F00403042B22D17B681B68DB6807
:10248C0003F00403042B1BD17B681B686FF0040260
:10249C001A617B6802221A777B681B689B6903F4BC
:1024AC004073002B03D0786800F045FA05E078689B
:1024BC0000F038FA786800F047FA7B6800221A7747
:1024CC007B681B681B6903F00803082B22D17B680F
:1024DC001B68DB6803F00803082B1BD17B681B68A7
:1024EC006FF008021A617B6804221A777B681B68FC
:1024FC00DB6903F00303002B03D0786800F01BFAB0
:10250C0005E0786800F00EFA786800F01DFA7B6838
:10251C0000221A777B681B681B6903F01003102BD1
:10252C0022D17B681B68DB6803F01003102B1BD1D6
:10253C007B681B686FF010021A617B6808221A779F
:10254C007B681B68DB6903F44073002B03D078684D
:10255C0000F0F1F905E0786800F0E4F9786800F033
:10256C00F3F97B6800221A777B681B681B6903F000
:10257C000103012B0ED17B681B68DB6803F00103A0
:10258C00012B07D17B681B686FF001021A61786818
:10259C00FEF73AFD7B681B681B6903F08003802BF8
:1025AC000ED17B681B68DB6803F08003802B07D19E
:1025BC007B681B686FF080021A61786800F0E1FCA0
:1025CC007B681B681B6903F04003402B0ED17B68B2
:1025DC001B68DB6803F04003402B07D17B681B684A
:1025EC006FF040021A61786800F0B7F97B681B68DD
:1025FC001B6903F02003202B0ED17B681B68DB6862
:10260C0003F02003202B07D17B681B686FF020029E
:10261C001A61786800F0ACFC00BF0837BD4680BD7D
:10262C0080B584B000AFF860B9607A60FB6893F84D
:10263C003C30012B01D10223ACE0FB68012283F872
:10264C003C207B680C2B00F29F8001A252F823F0F7
:10265C009126000895270008952700089527000863
:10266C00D126000895270008952700089527000813
:10267C0013270008952700089527000895270008C0
:10268C0053270008FB681B68B968184600F0D0F99E
:10269C00FB681B689A69FB681B6842F008029A6128
:1026AC00FB681B689A69FB681B6822F004029A613C
:1026BC00FB681B689969BB681A69FB681B680A434D
:1026CC009A6162E0FB681B68B968184600F016FA5C
:1026DC00FB681B689A69FB681B6842F400629A618C
:1026EC00FB681B689A69FB681B6822F480629A611C
:1026FC00FB681B689969BB681B691A02FB681B683D
:10270C000A439A6141E0FB681B68B968184600F0FF
:10271C005FFAFB681B68DA69FB681B6842F0080209
:10272C00DA61FB681B68DA69FB681B6822F004023B
:10273C00DA61FB681B68D969BB681A69FB681B689E
:10274C000A43DA6121E0FB681B68B968184600F09F
:10275C00A9FAFB681B68DA69FB681B6842F4006223
:10276C00DA61FB681B68DA69FB681B6822F480621B
:10277C00DA61FB681B68D969BB681B691A02FB68C4
:10278C001B680A43DA6100E000BFFB68002283F893
:10279C003C20002318461037BD4680BD80B584B060
:1027AC0000AF786039607B6893F83C30012B01D125
:1027BC000223B3E07B68012283F83C207B68022271
:1027CC0083F83D207B681B689B68FB60FB6823F0EB
:1027DC007703FB60FB6823F47F43FB607B681B681B
:1027EC00FA689A603B681B68B3F5005F3ED0B3F59E
:1027FC00005F00F28780B3F5805F00F08580B3F551
:10280C00805F7FD8702B1AD0702B7BD8602B50D068
:10281C00602B77D8502B3CD0502B73D8402B58D0F2
:10282C00402B6FD8302B64D0302B6BD8202B60D042
:10283C00202B67D8002B5CD0102B5AD062E07B6821
:10284C0018683B6899683B685A683B68DB6800F01D
:10285C00EEFA7B681B689B68FB60FB6843F07703B0
:10286C00FB607B681B68FA689A604EE07B681868AE
:10287C003B6899683B685A683B68DB6800F0D7FA9C
:10288C007B681B689A687B681B6842F480429A607C
:10289C003BE07B6818683B6859683B68DB681A4604
:1028AC0000F04EFA7B681B685021184600F0A5FA20
:1028BC002BE07B6818683B6859683B68DB681A46F4
:1028CC0000F06CFA7B681B686021184600F095FAE2
:1028DC001BE07B6818683B6859683B68DB681A46E4
:1028EC0000F02EFA7B681B684021184600F085FA30
:1028FC000BE07B681A683B681B681946104600F0B1
:10290C007CFA02E000BF00E000BF7B68012283F884
:10291C003D207B68002283F83C20002318461037AA
:10292C00BD4680BD80B483B000AF786000BF0C376B
:10293C00BD4680BC704780B483B000AF786000BFE8
:10294C000C37BD4680BC704780B483B000AF786054
:10295C0000BF0C37BD4680BC704780B483B000AF5D
:10296C00786000BF0C37BD4680BC704780B485B022
:10297C0000AF786039607B681B68FB607B68294A14
:10298C0093420BD07B68B3F1804F07D07B68264A0B
:10299C00934203D07B68254A934208D1FB6823F00D
:1029AC007003FB603B685B68FA681343FB607B68F1
:1029BC001C4A93420BD07B68B3F1804F07D07B68E5
:1029CC00194A934203D07B68184A934208D1FB689A
:1029DC0023F44073FB603B68DB68FA681343FB60CD
:1029EC00FB6823F080023B685B691343FB607B68E8
:1029FC00FA681A603B689A687B68DA623B681A6806
:102A0C007B689A627B68074A934203D13B681A69D8
:102A1C007B681A637B6801225A6100BF1437BD467C
:102A2C0080BC7047002C01400004004000080040AE
:102A3C0080B487B000AF786039607B681B6A23F084
:102A4C0001027B681A627B681B6A7B617B685B682E
:102A5C003B617B689B69FB60FB6823F07003FB6048
:102A6C00FB6823F00303FB603B681B68FA681343A5
:102A7C00FB607B6923F002037B613B689B687A698E
:102A8C0013437B617B681C4A93420CD17B6923F016
:102A9C0008037B613B68DB687A6913437B617B6964
:102AAC0023F004037B617B68134A934211D13B6989
:102ABC0023F480733B613B6923F400733B613B68F7
:102ACC005B693A6913433B613B689B693A69134301
:102ADC003B617B683A695A607B68FA689A613B682B
:102AEC005A687B685A637B687A691A6200BF1C3724
:102AFC00BD4680BC704700BF002C014080B487B03D
:102B0C0000AF786039607B681B6A23F010027B6829
:102B1C001A627B681B6A7B617B685B683B617B68C4
:102B2C009B69FB60FB6823F4E043FB60FB6823F4C8
:102B3C004073FB603B681B681B02FA681343FB6025
:102B4C007B6923F020037B613B689B681B017A69DE
:102B5C0013437B617B681D4A93420DD17B6923F043
:102B6C0080037B613B68DB681B017A6913437B61E3
:102B7C007B6923F040037B617B68144A934213D139
:102B8C003B6923F480633B613B6923F400633B6145
:102B9C003B685B699B003A6913433B613B689B69EB
:102BAC009B003A6913433B617B683A695A607B68C6
:102BBC00FA689A613B685A687B689A637B687A69A1
:102BCC001A6200BF1C37BD4680BC7047002C014008
:102BDC0080B487B000AF786039607B681B6A23F4DF
:102BEC0080727B681A627B681B6A7B617B685B689E
:102BFC003B617B68DB69FB60FB6823F07003FB6067
:102C0C00FB6823F00303FB603B681B68FA68134303
:102C1C00FB607B6923F400737B613B689B681B0240
:102C2C007A6913437B617B681D4A93420DD17B69A2
:102C3C0023F400637B613B68DB681B027A691343F6
:102C4C007B617B6923F480637B617B68144A9342CC
:102C5C0013D13B6923F480533B613B6923F400534C
:102C6C003B613B685B691B013A6913433B613B6801
:102C7C009B691B013A6913433B617B683A695A6053
:102C8C007B68FA68DA613B685A687B68DA637B6850
:102C9C007A691A6200BF1C37BD4680BC704700BF02
:102CAC00002C014080B487B000AF786039607B683D
:102CBC001B6A23F480527B681A627B681B6A3B6137
:102CCC007B685B687B617B68DB69FB60FB6823F47A
:102CDC00E043FB60FB6823F44073FB603B681B68BC
:102CEC001B02FA681343FB603B6923F400533B61FE
:102CFC003B689B681B033A6913433B617B680F4A33
:102D0C00934209D17B6923F480437B613B685B6907
:102D1C009B017A6913437B617B687A695A607B6893
:102D2C00FA68DA613B685A687B681A647B683A69AE
:102D3C001A6200BF1C37BD4680BC7047002C014096
:102D4C0080B487B000AFF860B9607A60FB681B6A2A
:102D5C007B61FB681B6A23F00102FB681A62FB684B
:102D6C009B693B613B6923F0F0033B617B681B0172
:102D7C003A6913433B617B6923F00A037B617A69EF
:102D8C00BB6813437B61FB683A699A61FB687A699B
:102D9C001A6200BF1C37BD4680BC704780B487B038
:102DAC0000AFF860B9607A60FB681B6A23F0100210
:102DBC00FB681A62FB689B697B61FB681B6A3B6161
:102DCC007B6923F470437B617B681B037A69134333
:102DDC007B613B6923F0A0033B61BB681B013A6933
:102DEC0013433B61FB687A699A61FB683A691A6222
:102DFC0000BF1C37BD4680BC704780B485B000AFA7
:102E0C00786039607B689B68FB60FB6823F070031B
:102E1C00FB603A68FB68134343F00703FB607B6875
:102E2C00FA689A6000BF1437BD4680BC704780B406
:102E3C0087B000AFF860B9607A603B60FB689B6854
:102E4C007B617B6923F47F437B613B681A027B685F
:102E5C001A43BB6813437A6913437B61FB687A6935
:102E6C009A6000BF1C37BD4680BC704780B487B0E9
:102E7C0000AFF860B9607A60BB6803F01F030122F1
:102E8C0002FA03F37B61FB681A6A7B69DB431A4025
:102E9C00FB681A62FB681A6ABB6803F01F03796847
:102EAC0001FA03F31A43FB681A6200BF1C37BD46D4
:102EBC0080BC704780B485B000AF786039607B68A7
:102ECC0093F83C30012B01D1022346E07B680122B0
:102EDC0083F83C207B68022283F83D207B681B68CA
:102EEC005B68FB607B681B689B68BB60FB6823F0BE
:102EFC007003FB603B681B68FA681343FB607B68DC
:102F0C001B68FA685A607B681B68164A93420ED09D
:102F1C007B681B68B3F1804F09D07B681B68124A31
:102F2C00934204D07B681B68104A93420CD1BB6857
:102F3C0023F08003BB603B685B68BA681343BB60DB
:102F4C007B681B68BA689A607B68012283F83D2015
:102F5C007B68002283F83C20002318461437BD46BA
:102F6C0080BC7047002C0140000400400008004069
:102F7C0080B483B000AF786000BF0C37BD4680BC16
:102F8C00704780B483B000AF786000BF0C37BD468B
:102F9C0080BC704770B500260C4D0D4C641BA41002
:102FAC00A64209D100F022F800260A4D0A4C641BF7
:102FBC00A410A64205D170BD55F8043B98470136C4
:102FCC00EEE755F8043B98470136F2E7303000083D
:102FDC00303000083030000834300008034602441A
:102FEC00934200D1704703F8011BF9E7F8B500BF15
:102FFC00F8BC08BC9E467047F8B500BFF8BC08BCCE
:04300C009E46704725
:1030100002030405060708090A0B0C0D0E0F101019
:103020000000000000000000010203040607080978
:043030003101000862
:043034000D01000882
:1030380003000000900100000900000003000000E8
:1030480088130000D0070000B80B000088130000A8
:10305800B80B00000024F40010000000010000007C
:04000005080012815C
:00000001FF
